:10235A006D61696E5F5F5F5F0A006D61696E207310
:10236A0074617274206C697374656E6E696E670A43
:10237A0000475053204275666665723A000A004764
:10238A006F742047505253204275666665723A0050
:1016EF0081050081030082010000C10181060A818A
:1016FF00040060800133474554202F3F64617461BB
:10170F003D3126636369643D3030303030303030E6
:10171F00303030303030303030303030266C6F6E0B
:10172F003D303030302E30303030266C61743D30EB
:10173F003030302E3030303020485454502F312E2E
:10174F00310D0A486F73743A0D0A0D0A000000003C
:10175F00000000000000000000000000000000007A
:10176F00000000000000000000000000000000006A
:10177F00000000000000608000B3474554202F3F59
:10178F00646174613D2D3126636369643D3030308F
:10179F00303030303030303030303030303030303A
:1017AF003020485454502F312E310D0A486F737426
:1017BF003A0D0A0D0A0000000000000000000000B2
:1017CF00000000000000000000000000000000000A
:1017DF0000000000000000000000000000000000FA
:1017EF0000000000000000000000000000000000EA
:1017FF000000000000000000000085075F5F000090
:01180F0000D8
:0824D5007FF47E51DEFEDFFA08
:0124DD0022DC
:1024A500758920759850758DFD858D8BD28ED2AC32
:0324B500D2AF2281
:10245E0043A210438E08E59A543F4440F59A439A9E
:0B246E0010438E10759CF443AF012258
:0B0FF5008F9BE59A20E1FB539AFD2240
:0623D7007BFF7A237987E9
:1023DD007899EBF208EAF208E9F27899E2FB08E263
:1023ED00FA08E2F9120506FF60101224CA789BE282
:0B23FD002401F218E23400F280E0221C
:102479007F80900233E4F0A3DFFC9002337430F0E4
:06248900A3F0E47800F26C
:01248F00222A
:100026007F809001B3E4F0A3DFFC9001B37402F08B
:0B003600A3F0E47805F27801F208F274
:01004100229C
:03002300021DA813
:101DA800C0E0C0F0C083C082C0D075D000C000C001
:0D1DB80001C002C003C004C005C006C00782
:101DC500309866C2987892E599F220040280557899
:101DD50092E2FEB47B151224799002337431F0A39C
:101DE50014F078007402F2C2038034900233E0B438
:101DF500312DEEB47D0BA37431F090023314F080D5
:101E05001E7800E2FFC3948050157892E2FE743389
:101E15002FF582E43402F583EEF0EF047800F2301A
:091E250003077892E2FF12243455
:101E2E00D007D006D005D004D003D002D001D00008
:0B1E3E00D0D0D082D083D0F0D0E032B2
:030043000215465D
:10154600C0E0C0F0C083C082C0D075D000C000C06B
:0D15560001C002C003C004C005C006C007EC
:10156300E59A20E0047F0180027F00EF6002C1D48E
:10157300200402C1D17893E59BF2D2907801E2FE78
:1015830008E2FF4E700F7893E2B424097801E4F285
:101593000804F2C158EF64014E70107893E2B44727
:1015A3000A7801E4F2087402F2C1587802E2640294
:1015B300700218E270107893E2B4500A7801E4F2F2
:1015C300087403F2C1587801E2FE08E2FF64034E97
:1015D30070107893E2B4520A7801E4F2087404F2CA
:1015E3008073EF64044E70107893E2B44D0A78016F
:1015F300E4F2087405F2805D7802E2640570021873
:10160300E270107893E2B4430A7801E4F2087406B6
:10161300F280427801E2FE08E2FF64064E701E7813
:1016230093E2B42C187801E4F2087407F278057495
:1016330002F29001B4F09001B314F08018C3EF9458
:1016430001EE9400400F7802E2940718E2940050F0
:1016530004E4F208F27802E26407700218E2706EA2
:101663009001B4E0640160667893E2640A703878AC
:1016730004E204F27801E4F208F27806E22401FFBE
:10168300E433FE7804E2C39FEE6480F874809840EC
:101693003D9001B37402F0A314F07804E4F27FE800
:1016A3007E03121FDA80277806E2FF7804E2C39FE5
:1016B300401C9001B3E0B401157893E2FF7805E292
:1016C30024B3F582E43401F583EFF0E204F2539A94
:0116D300FE18
:1016D400D007D006D005D004D003D002D001D0006A
:0B16E400D0D0D082D083D0F0D0E03214
:100CF200E4FF1224E67894EBF208EAF208E9F2E45F
:100D020008F208F27800F27805F2C204C203120077
:100D12002612247912245E1224A57BFF7A23795AA3
:100D22001223DD121C017BFF7A2379641223DDE496
:100D3200FF7894E2FB08E2FA08E2F98F82758300F9
:100D420012051FFE74452FF582E43401F583EEF09F
:100D52008F8275830012051FFE74C62FF582E4345C
:100D620000F583EEF00FEFB414C7D2049001B4E0A3
:100D720064016002C13C7BFF7A23797B1223DD7B15
:100D8200017A0179B51223DD1223D79001C0E06404
:100D92004160157B017A0079B31223DDD203D200C0
:100DA2007B017A0079B3C1349001C2E090015EF018
:100DB2009001C3E090015FF09001C4E0900160F007
:100DC2009001C5E0900161F09001C7E0900163F0ED
:100DD2009001C8E0900164F09001C9E0900165F0D3
:100DE2009001CAE0900166F09001CEE090016CF0B3
:100DF2009001CFE090016DF09001D0E090016EF093
:100E02009001D1E090016FF09001D3E0900171F078
:100E12009001D4E0900172F09001D5E0900173F05E
:100E22009001D6E0900174F0D203D2007B017A01E6
:100E32007933121814C203120026900234E064318E
:100E42006002C1EA7BFF7A2379891223DD7B017A72
:100E52000279351223DD1223D7900235E064326025
:100E620002C1E7A3E06430707CA3E064317076785D
:100E7200987406F27898E2FFC39480506874332F16
:100E8200F582E43402F583E0FF605AEFB4531D7833
:100E920098E22435F582E43402F583E0FF600DB474
:100EA2004F04D2018006EFB44302C2017898E2FFF8
:100EB2002433F582E43402F583E0B4462174352FFD
:100EC200F582E43402F583E0FF6013B4520778063A
:100ED200741EF28009EFB448057806740AF2789815
:100EE200E204F2808F122479200102A16E789774B5
:100EF20064F2B2901224D57897E214F2E2D394000D
:100F020050F078977464F27897E2D394005002A17B
:0E0F12006EB2901224D51224D5E214F280E9BA
:07080000780DECF208EDF2A7
:10080700781DEBF208EAF208E9F290000512051FDD
:10081700780FF27F0212200A781DE2FB08E2FA083D
:10082700E2F98F8275830012051FFF780FE2644398
:10083700600281EEEF6441600281EE7F04122000C6
:10084700781DE2FB08E2FA08E2F98F82758300124D
:10085700051FFF780DE2FC08E22426F582E43CF54B
:1008670083EFF07F0612200A781DE2FB08E2FA0800
:10087700E2F98F8275830012051FFF780DE2FC08ED
:10088700E22427F582E43CF583EFF07F0312200A88
:100897001220C4780DE2FA08E2F5828A8312071E55
:1008A7007F051220001220C4780DE2FA08E2FB242B
:1008B70004F582E43AF58312071E8B828A83E0FCF3
:1008C700A3E0FDA3E0FEA3E0FF12038F7C007D649D
:1008D7001205C5780DE2FC08E2FD2408F582E43C28
:1008E700F583EEF0A3EFF0ED2408F582E43CF58301
:1008F700E0FEA3E0FF7C007D6412055EAC06AD0759
:10090700EC120356C004A905AA06AB07780DE2FE50
:1009170008E2F5828E83E0FCA3E0FDA3E0FEA3E0FE
:10092700FFD000120049781112072A7811E2FC085B
:10093700E2FD08E2FE08E2FF12038F780DE2FC08F1
:10094700E2FD240AF582E43CF583EEF0A3EFF0ED37
:10095700240AF582E43CF583E0FCA3E0FDEC1203F6
:1009670056C004A905AA06AB077811E2FC08E2FD08
:1009770008E2FE08E2FFD000120049E4FBFA7970B2
:10098700784212013E12038F780DE2FC08E2FD2443
:100997000CF582E43CF583EEF0A3EFF0ED2404F5CB
:1009A70082E43CF583E0FCA3E0FDA3E0FEA3E0FFC7
:1009B70012038F7C007D641205C5780DE2FC08E206
:1009C700FD240EF582E43CF583EEF0A3EFF0ED2471
:1009D7000EF582E43CF583E0FEA3E0FF7C007D6436
:1009E70012055EAC06AD07EC120356C004A905AAB2
:1009F70006AB07780DE2FE08E22404F582E43EF533
:100A070083E0FCA3E0FDA3E0FEA3E0FFD00012001B
:100A170049781512072A7815E2FC08E2FD08E2FE7C
:100A270008E2FF12038F780DE2FC08E2FD2410F5BF
:100A370082E43CF583EEF0A3EFF0ED2410F582E4B9
:100A47003CF583E0FCA3E0FDEC120356C004A905C6
:100A5700AA06AB077815E2FC08E2FD08E2FE08E209
:100A6700FFD000120049E4FBFA7970784212013E88
:100A770012038F780DE2FC08E22412F582E43CF5BC
:100A870083EEF0A3EFF0781DE2FB08E2FA08E2F943
:100A97007F0712200A122065781912072A7FCD7E58
:100AA700CC7DEC7C3F7819E2FB08E2F908E2FA0812
:100AB700E2CBF812013E780DE2FA08E22414F5823F
:100AC700E43AF58312071E781DE2FB08E2FA08E212
:100AD700F97F0812200A122065780DE2FA08E2244D
:100AE70018F582E43AF58312071E781DE2FB08E247
:100AF700FA08E2F990000712051FFF3395E0FEEFB1
:100B070024D0FFEE34FFFE7C007D0A12055E9000C4
:100B17000812051FFD3395E0FCED24D0FDEC34FFF2
:100B2700CD2FFFED3EFE780DE2FC08E2242EF58284
:100B3700E43CF583EEF0A3EFF090000912051FFFE8
:100B47003395E0FEEF24D0FFEE34FFFE7C007D0AF4
:100B570012055E90000A12051FFD3395E0FCED2497
:100B6700D0FDEC34FFCD2FFFED3EFE780DE2FC0803
:100B7700E22430F582E43CF583EEF0A3EFF0900039
:100B87000B12051FFF3395E0FEEF24D0FFEE34FF75
:100B9700FE7C007D0A12055E90000C12051FFD33D6
:100BA70095E0FCED24D0FDEC34FFCD2FFFED3EFEAC
:100BB700780DE2FC08E22432F582E43CF583EEF09E
:100BC700A3EFF07F0912200A7810EFF2781DE2FBFD
:100BD70008E2FA08E2F97810E2F582758300120557
:100BE7001FFF3395E0FEEF24D0FFEE34FFFE7C00BD
:100BF7007D0A12055E7810E2F5828C83A312051F29
:100C0700FD3395E0FCED24D0FDEC34FFCD2FFFED57
:100C17003EFE780DE2FC08E2242CF582E43CF583E5
:100C2700EEF0A3EFF07810E2F582758300A3A3122C
:100C3700051FFF3395E0FEEF24D0FFEE34FFFE7C67
:100C4700007D0A12055E7810E2F5828C83A3A3A3C8
:100C570012051FFD3395E0FCED24D0FDEC34FFCDEC
:100C67002FFFED3EFE780DE2FC08E2242AF582E430
:100C77003CF583EEF0A3EFF07810E22404F582E46C
:100C870033F58312051FFF3395E0FEEF24D0FFEE07
:100C970034FFFE7C007D0A12055E7810E22405F51C
:100CA70082E433F58312051FFD3395E0FCED24D074
:100CB700FDEC34FFCD2FFFED3ECF24D0CF3407FE20
:100CC700780DE2FC08E2FD2428F582E43CF583EE8A
:100CD700F0A3EFF0ED2428FFE43CFAA9077B01120B
:0A0CE70010007E007F0122E4FEFFF2
:010CF10022E0
:100F2000E47820F208F27824EBF208EAF208E9F219
:100F30007824E2FB08E2FA08E2F9120506FF7002E3
:100F4000E1ED24D0B40A00507D900F5325E050020B
:100F5000058373E167E16FE178E182E18CE196E17D
:100F6000A0E1AAE1B4E1BEE47822F208F280577869
:100F700022E4F20804F2804E7822E4F2087402F2CD
:100F800080447822E4F2087403F2803A7822E4F292
:100F9000087404F280307822E4F2087405F28026A6
:100FA0007822E4F2087406F2801C7822E4F20874D5
:100FB00007F280127822E4F2087408F2800878229E
:100FC000E4F2087409F27820E2FE08E2FF7C007D7A
:100FD0000A12055E7823E22F7921F318E23E19F315
:100FE0007826E22401F218E23400F2E1307820E2BF
:040FF000FE08E2FF16
:010FF40022DA
:0A2274007827EBF208EAF208E9F21D
:10227E007F0112200A7834EFF2E214F27827E2F9A5
:10228E0008E2FA08E2788BC9F208EAF208E9F27875
:10229E0034E2FF788EE4F208EFF27BFE7A00792AC0
:1022AE00121F6B7834E2242AF8E4F27BFE7A00796E
:0422BE002A120F20B1
:0122C20022F9
:1011DE00783512073600000000783DE4F20804F27C
:1011EE0008EBF208EAF208E9F2783FE2FB08E2FACD
:1011FE0008E2F9120506FF7002618424D2B40C00D5
:10120E00400241AB90121C25E0500205837341A2AF
:10121E0041AB4134413F414A41554160416B4176BA
:10122E004181418C419778391207360000000080C9
:10123E006C78391207363F800000806178391207CA
:10124E0036400000008056783912073640400000C4
:10125E00804B783912073640800000804078391272
:10126E00073640A000008035783912073640C0009E
:10127E0000802A783912073640E00000801F783946
:10128E0012073641000000801478391207364110DB
:10129E0000008009783912073642380000E4FFFE5C
:1012AE007D387C427839E2FB08E2F908E2FA08E27E
:1012BE00CBF81202E4700D783DF208F27842F20893
:1012CE0004F26177783EE26401700218E2702FFF3B
:1012DE00FE7D207C417835E2FB08E2F908E2FA084F
:1012EE00E2CBF812013E7839E2FB08E2F908E2FAA5
:1012FE0008E2CBF812004D783512072A806B78354C
:10130E00E2FB08E2F908E2FA08E2CBF8C000C001FD
:10131E00C002C0037842E2FE08E2FF7C007D0A12A2
:10132E00055EAC06AD07EC120356C004A905AA066D
:10133E00AB077839E2FC08E2FD08E2FE08E2FFD0D6
:10134E0000120247D003D002D001D00012004D7817
:10135E003512072A7842E2FE08E2FF7C007D0A126F
:10136E00055E7842EEF208EFF27841E22401F218BF
:10137E00E23400F221F77835E2FC08E2FD08E2FEE5
:03138E0008E2FF73
:011391002239
:102065007E00781DE2FB08E2FA08E22FF9EE3AFA63
:0A2075007844EBF208EAF208E9F201
:10207F007F0112200A7851EFF2E214F27844E2F96C
:10208F0008E2FA08E2788BC9F208EAF208E9F27876
:10209F0051E2FF788EE4F208EFF27BFE7A00794787
:1020AF00121F6B7851E22447F8E4F27BFE7A007935
:0420BF00471211DED5
:0120C30022FA
:10139200785212073600000000785AE4F20804F28C
:1013A20008EBF208EAF208E9F2785CE2FB08E2FAFA
:1013B20008E2F9120506FF7002A13824D2B40C002B
:1013C2004002815F9013D025E0500205837381565D
:1013D200815F61E861F361FE81098114811F812AC5
:1013E20081358140814B785612073600000000801B
:1013F2006C78561207363F800000806178561207DB
:1014020036400000008056785612073640400000F1
:10141200804B785612073640800000804078561282
:10142200073640A000008035785612073640C000CB
:1014320000802A785612073640E00000801F785656
:101442001207364100000080147856120736411008
:1014520000008009785612073642380000E4FFFE89
:101462007D387C427856E2FB08E2F908E2FA08E2AB
:10147200CBF81202E4700D785AF208F2785FF208A3
:1014820004F2A12B785BE26401700218E2702FFF74
:10149200FE7D207C417852E2FB08E2F908E2FA087C
:1014A200E2CBF812013E7856E2FB08E2F908E2FAD2
:1014B20008E2CBF812004D785212072A806B78525C
:1014C200E2FB08E2F908E2FA08E2CBF8C000C00148
:1014D200C002C003785FE2FE08E2FF7C007D0A12D0
:1014E200055EAC06AD07EC120356C004A905AA06B8
:1014F200AB077856E2FC08E2FD08E2FE08E2FFD004
:1015020000120247D003D002D001D00012004D7861
:101512005212072A785FE2FE08E2FF7C007D0A127F
:10152200055E785FEEF208EFF2785EE22401F218CF
:10153200E23400F261AB7852E2FC08E2FD08E2FE1E
:0315420008E2FFBD
:011545002283
:1020C4007E00781DE2FB08E2FA08E22FF9EE3AFA04
:0A20D4007861EBF208EAF208E9F285
:1020DE007F0112200A786EEFF2E214F27861E2F9D3
:1020EE0008E2FA08E2788BC9F208EAF208E9F27817
:1020FE006EE2FF788EE4F208EFF27BFE7A007964EE
:10210E00121F6B786EE22464F8E4F27BFE7A00799B
:04211E0064121392A2
:01212200229A
:0A200000781DE2FB08E2FA08E2F99D
:0D200A00786FEFF208EBF208EAF208E9F255
:10201700E47874F2122490E47873F27873E2C39F41
:10202700EE6480F874809850327870E2FB08E2FA28
:1020370008E2F908E2F58275830012051FB42C0542
:102047007874E204F2786FE2FD7874E2B50505185A
:0D205700E204FF227873E204F280C07F00F3
:012064002259
:101000007875EBF208EAF208E9F27875E2FB08E29B
:10101000FA08E2F990000AE475F0011206969000D1
:101020000A120626D3943BE5F064809480404B7806
:1010300075E2FB08E2FA08E2F990000AE4F5F01222
:1010400006E3900008E475F001120696900008127D
:101050000626D3943BE5F064809480401D7875E2C9
:10106000FB08E2FA08E2F9900008E4F5F01206E362
:10107000900006E475F0011206967875E2FB08E22E
:10108000FA08E2F9900006E475F00812069690005E
:1010900006120626D39417E5F0648094805002214E
:1010A000DD7875E2FB08E2FA08E2F990000674FFC9
:1010B00075F0E8120696900004E475F001120696A9
:1010C000900002120626FFAEF064024E6018EF6434
:1010D000044E6012EF64064E600CEF64094E600629
:1010E000EF640B4E701D7875E2FB08E2FA08E2F936
:1010F000900004120626D3941EE5F064809480408C
:1011000031801B7875E2FB08E2FA08E2F9900004EE
:10111000120626D3941FE5F064809480401490005A
:1011200004E475F0011206E3900002E475F0011288
:1011300006967875E2FB08E2FA08E2F91205FBFF71
:10114000AEF07C007D041205C5ED4C70297875E287
:10115000FB08E2FA08E2F9900004120626D3941D77
:10116000E5F06480948040489000021206266402F4
:1011700045F0703C80277875E2FB08E2FA08E2F956
:10118000900004120626D3941CE5F06480948040FD
:101190001F900002120626640245F07013900004AE
:1011A00075F0011206E3900002E475F00112069654
:1011B0007875E2FB08E2FA08E2F9900002120626CE
:1011C000D3940CE5F064809480401290000274FF88
:0E11D00075F0F4120696E475F00112065E2228
:071A39007878EEF208EFF2ED
:101A4000E47882F208F2787AEBF208EAF208E9F236
:101A5000C3EF940AEE648094805033787AE2FB08F6
:101A600008E2F92401F218E2FA3400F274301205A7
:101A70004C787808E22430FF08E2FB0808E2F924F9
:101A800001F218E2FA3400F2EF12054C6111787895
:101A9000E2FE08E2FFD39400EE6480948040657C0F
:101AA000007D0A1205C5AB05AA047878E2FE08E2BB
:101AB000FF7C007D0A1205C57878EEF208EFF2AFE0
:101AC00003EF2430FF788208E2FD2401F218E234AB
:101AD00000F2747D2DF8EFF280B47882E2FE08E225
:101AE000FFC3EE648094804028747D2FF8E2FF7875
:101AF0007AE2FB0808E2F92401F218E2FA3400F273
:101B0000EF12054C7883E224FFF218E234FFF280F2
:0F1B1000C9787AE2FB08E2FA08E2F9E402054C30
:10192B00696E69742041540A0041540D0A004154F8
:10193B002B434349440D0A0041542B435245473F27
:10194B000D0A0041542B434744434F4E543D312C19
:10195B0000495000434D4E4554000D0A0041542B95
:10196B00584953503D300D0A0041542B58494943B7
:10197B003D310D0A0041542B584949433F0D0A0094
:10198B0041542B544350434C4F53453D300D0A00AB
:10199B0041542B54435053455455503D302C313208
:1019AB00302E32372E3132352E33312C38300D0A62
:1019BB000041542B49505354415455533D300D0A5B
:1019CB00006C696E6B20737563636573730A0041FA
:1019DB00542B584949433D300D0A006C696E6B20FE
:1019EB006661696C65640A00677072735F7374611A
:1019FB00727428290A00636865636B2067736D2016
:101A0B00726561647928290A0041542B5443505361
:101A1B00454E443D302C0077616974203E0A000D21
:0E1A2B000A0D0A0D0A00675F733A300A0000C8
:03181000818500CF
:041FD6007FE87E031F
:101FDA00E4FDFCC3ED9FEE6480F8EC648098501534
:101FEA00E4FBFA0BBB00010ABA03F8BBDEF50DBD30
:051FFA0000010C80DE77
:011FFF0022BF
:0824DE008F993099FDC299228B
:102311007F221224DE7F2C1224DE7F221224DE7B18
:05232100FF7A19795F4D
:1023260078B0EBF208EAF208E9F278B0E2FB08E2EC
:10233600FA08E2F9120506601A78B0E2FB0808E22C
:10234600F92401F218E2FA3400F2120506FF12240B
:04235600DE80D7222C
:0B24CA008F9BE59A30E1FB539AFD2246
:09239A001224B87BFF7A1979CCFA
:1023A30078B0EBF208EAF208E9F278B0E2FB08E26F
:1023B300FA08E2F9120506601A78B0E2FB0808E2AF
:1023C300F92401F218E2FA3400F2120506FF12248E
:0423D300CA80D722C3
:1024B800E4FF7886F208F27E80900347E4F0A3DE1A
:0124C800FC17
:0124C90022F0
:102408007BFF7A19792B1223A37884E2B4301C124B
:1024180024B8E47885F27BFF7A1979341223267878
:0C242800847431F27FF47E01121FDA226E
:102123007884E264317050900349E0B44F21A3E016
:10213300B44B1C1224B8E47885F27BFF7A19793901
:1021430012232678847432F27FF47E01021FDA129E
:1021530024B87BFF7A19793412232678847431F2F8
:102163007FF47E01121FDA7885E204F2E2B40507F8
:08217300187430F2E408F222B6
:101E4900E4FF7884E264326002C1DE900368E064F2
:101E59004F703FA3E0644B7039FF74502FF582E453
:101E69003403F583E0FE74B32FF582E43402F5837D
:101E7900EEF00FEFB414E31224B8E47885F2187485
:101E890033F27BFF7A1979431223267FE87E030216
:101E99001FDA1224B878847435F27BFF7A19794EE7
:101EA9001223267F221224DE7BFF7A19795C122302
:101EB900261223117F221224DE7BFF7A19796512FB
:101EC9002326121FD67885E204F2E2B405071874B6
:051ED90030F2E408F204
:011EDE0022E1
:10217B007884E26433704B900357E0B44F20A3E0B4
:10218B00B44B1B1224B8E47885F2187434F27BFF3D
:10219B007A1979681223267FE87E03021FDA12244C
:1021AB00B87BFF7A19793912232678847432F212AC
:1021BB001FD67885E204F2E2B40507187430F2E416
:0321CB0008F222F5
:100787007884E26434706C900349E0644F7040A34E
:10079700E0644B703A1224B8E47885F2187435F2A5
:1007A7007BFF7A19794E1223267F221224DE7BFFE4
:1007B7007A19795C1223261223117F221224DE7BF9
:1007C700FF7A1979651223267FE87E03021FDA1262
:1007D70024B878847434F27BFF7A19796812232657
:1007E700121FD67885E204F2E2B40507187430F2D6
:0407F700E408F222FE
:1021CE007884E26435704B900349E0B44F20A3E06D
:1021DE00B44B1B1224B8E47885F2187436F27BFFE8
:1021EE007A1979741223267FE87E03021FDA1224ED
:1021FE00B878847433F27BFF7A197943122326124E
:10220E001FD67885E204F2E2B40507187430F2E4C2
:03221E0008F222A1
:102221007884E26436704B900349E0B44F20A3E018
:10223100B44B1B1224B8E47885F2187437F27BFF93
:102241007A1979801223267FE87E03021FDA12248D
:10225100B878847436F27BFF7A19797412232612C6
:102261001FD67885E204F2E2B40507187430F2E46F
:0322710008F2224E
:1022C3007884E264377046900353E0B4311B1224E0
:1022D300B8E47885F2187438F27BFF7A19798B1297
:1022E30023267FE87E03021FDA1224B8788474372A
:1022F300F27BFF7A197980122326121FD67885E2A2
:0E23030004F2E2B40507187430F2E408F22286
:100003007884E2B438171224B8E47885F218743986
:0E001300F27BFF7A19799B122326121FD62248
:101CD600E478A7F27884E264396002A1A790034908
:101CE600E0B44F20A3E0B44B1BE47885F2187441AE
:101CF600F21224B87BFF7A1979BC1223267FE87E7C
:101D060003021FDAE478A7F278A7E2FFC3948050B3
:101D16005B74472FF582E43403F583E0FF604DEFF3
:101D2600642C704178A7E2FFC39477503874482F2B
:101D3600F582E43403F583E064437029E2FF244E20
:101D4600F582E43403F583E0B4541A744F2FF58218
:101D5600E43403F583E0B42C0C12239AE47885F27C
:101D6600187442F22278A7E204F2809C1224B87812
:101D7600847438F27BFF7A19798B122326121FD6C8
:101D86007885E204F2E2B405187BFF7A1979DA1253
:101D960023267FF47E01121FDA78847430F2E40879
:011DA600F24A
:011DA7002219
:101B1F00E478A7F2087C007DFE7BFF7A1A7931FE0C
:101B2F007F081204E07884E278ACF27BFE7A0079C9
:101B3F00A81223A37884E2644160028100900355C8
:101B4F00E0B44F07A3E0B44B028055E478A7F278D6
:101B5F00A7E2FFC39480505B74472FF582E43403F0
:101B6F00F583E0FF604DEF642C704178A7E2FFC36F
:101B7F009477503874482FF582E43403F583E0648A
:101B8F00437029E2FF244EF582E43403F583E0B479
:101B9F00541A744F2FF582E43403F583E0B42C0C00
:101BAF0012239AE47885F2187442F22278A7E2049D
:101BBF00F2809C1224B87BFF7A1979E61223A3785E
:101BCF00847439F27BFF7A1979BC122326121FD63F
:101BDF007885E204F2E2B405187BFF7A1979DA12FC
:101BEF0023267FF47E01121FDA78847430F2E40822
:011BFF00F2F3
:011C000022C1
:101C0100E478A4F20804F2E408F27BFF7A1979F38C
:101C11001223A378847430F2E47886F208F2122455
:101C2100B878A5E2707D7FD07E07121FDA7BFF7A3C
:101C31001A79011223A3900347E060E5E478A6F244
:101C410078A6E2FFC3948050D874472FF582E4341C
:101C510003F583E0FFB42B06E278A4F2803EEFB4F3
:101C6100591A78A4E260152407FFE433FE78A6E24E
:101C7100B50709E4B506051804F280A578A4E2FFCA
:101C8100601A2407FFE433FE78A6E2C39FEE648066
:101C9100F87480984006E478A4F2808578A6E2047E
:101CA100F2809D7884E26442602A12240812212382
:101CB100121E4912217B1207871221CE12222112F4
:101CC10022C3120003121CD6121B1F7FF47E0112C5
:041CD1001FDA80CFC7
:011CD50022EC
:0A1814007899EBF208EAF208E9F215
:10181E00E408F208F208F208F278847437F212241F
:10182E00B87884E2644260201224B8900353743175
:10183E00F01222C3120003121CD6121B1F7884E270
:10184E00B430DE121C0180D97899E2FB08E2FA0866
:10185E00E2F9789EE2FE08E2FFF5828E8312051F02
:10186E00600D789FE22401F218E23400F280D9EF85
:10187E004E7002212A789EE2FF08E208CFF208EFAE
:10188E00F27BFF7A1A7914122326C3789FE2940A08
:06189E0018E29400402E48
:1018A400E2FA08E2FB7C007D0AFFAE02120570EF4B
:1018B400243078A2F27C007D0AAF03AE02120570D8
:0C18C400ED243078A3F218E2FF1224DEBD
:1018D000800B789FE22430F218E23400F208E2FF35
:1018E0001224DE7BFF7A197965122326E47885F2CB
:1018F000900349E0643E601C7BFF7A1A7922122330
:10190000A37F327E00121FDA7885E204F2E2D394DC
:101910000A40DD227899E2FB08E2FA08E2F9122394
:0A192000267BFF7A1A792A1223268B
:01192A00229A
:102434007887E2647F700218E278867004F208F20A
:102444002208E2FD2401F218E2FC3400F274472D64
:0A245400F58274033CF583EFF022DB
:0724E6007B017A0279B322A9
:100046000203FBE86480F8E933E83360110460F0EA
:10005600ED33EC337009E8FCE9FDEAFEEBFF220420
:1000660060DED3EB9FEA9EE99DE8C2E78CF0C2F71B
:1000760095F0400CE8CCF8E9CDF9EACEFAEBCFFBE7
:100086001203C685D0F05804700320D5B3E8047077
:10009600075002B2D502040592D5EC0460F7E4CC11
:1000A600C0E0C398F8603B94186008400DD0E0FBB0
:1000B6000203DDE4FBFAC9FC8028E830E406E4C963
:1000C600FBE4CAFCE830E305E4C9CACBFCE8540704
:1000D6006010F8C3E913F9EA13FAEB13FBEC13FC0F
:1000E600D8F130F52FC3E49CFCEF9BFFEE9AFEEDB2
:1000F60099FDD0E0FBEF4E4D4C701222DB0302045B
:1001060002EC2CFCEF33FFEE33FEED33FDED30E772
:10011600EB0203DDEF2BFFEE3AFEED39FDD0E0FBFF
:1001260050130BBB0003020405ED13FDEE13FEEFA7
:0801360013FFEC13FC0203DDD2
:10013E00EC4D6011E8497017ED33EC3304600DE4BB
:10014E00FCFFFEFD22E933E8330470F80203FB12D4
:10015E0003C658046009E4CC2481500628500902D5
:10016E000405284003020402C0E0EB4A7044B98043
:10017E0006D0E0FB0203F1EF4E701CBD8008EBFFD2
:10018E00EAFEE9FD80EBE98DF0A4FEE5F002022720
:10019E00E9CDF9EAFEEBFFEF89F0A4FCE5F0CE899C
:1001AE00F0A42EFFE435F0CD89F0A42DFEE435F059
:1001BE008067EF4E7005BD80D780C3EF8BF0A4AC87
:1001CE00F0EE8BF0A42CFCE435F0F8EF8AF0A42CC2
:1001DE00E5F038FCE433CB8DF0A42CFCE5F03BF8D5
:1001EE00EE8AF0A42CFCE5F038F8E433CF89F0A4C5
:1001FE002CFCE5F038CF3400CE89F0A42FFFE5F0CB
:10020E003EFEE433C98DF0A42EFEE5F039CD8AF022
:10021E00A42FFFE5F03EFEE43DFD33D0E0FB50079A
:10022E000BBB000F020405EC2CFCEF33FFEE33FE8C
:06023E00ED33FD0203DDBB
:10024400020405EC5D046005E8590470030203FB35
:100254001203C6580460F6EC4860F2EC7004FDFE2C
:10026400FF22C860DB2481C85009C398600250068D
:100274000204029850CAF582E9294B4A7005AB8200
:100284000203F175F0007C1A7880C3EF9BEE9AEDBF
:1002940099400DC3EF9BFFEE9AFEED99FDE842F005
:1002A400DC23ACF0D0E0FFD0E0FED0E0FDAB822058
:1002B400E7101BEB60BAEC2CFCEF33FFEE33FEEDE2
:1002C40033FD0203DDE803F830E705C0F075F00004
:1002D400EF2FFFEE33FEED33FD40B830E7C280AAC6
:1002E40074F8CC6480CCC86480C8F582046043C3CD
:1002F400EB9FF5F0EA9E42F0E99D42F0E89C45F060
:1003040060305018E5825FFFE582F42B5582FB5084
:10031400210ABA001D09B90019088016E5825BFBA1
:10032400E582F42F5582FF50090EBE00050DBD0075
:10033400010CC3EB9FF5F0EA9E42F0E99D42F0E820
:0D0344009C45F06007CC4820E701B3EC2297
:1003510075F020800E75F010800575F0087D007E27
:10036100007F003392D530D503120710EC334010D3
:10037100EF33FFEE33FEED33FDEC33FCD5F0ED2230
:0E038100E5F0247EA2D513CC92E7CDCEFF226C
:10038F00EDD2E7CD33EC3392D524814006E4FFFE66
:10039F00FDFC22FCE4CFCECDCC24E0501174FF80C5
:1003AF00EDC3CC13CCCD13CDCE13CECF13CF047062
:0703BF00F030D5DE0207104B
:1003C600E9D2E7C933E833F892D5EDD2E7CD33EC7D
:0703D60033FC5002B2D522F6
:1003DD00EC30E7100FBF000C0EBE00080DBD000481
:1003ED000BEB6014A2D5EB13FCED92E7FD2274FF2D
:1003FD00FCFDFEFF22E480F8A2D574FF13FC7D8086
:03040D00E480EF99
:03000000021EDFFE
:0C1EDF00787FE4F6D8FD758120021F26F4
:10041000E709F608DFFA8046E709F208DFFA803ECE
:1004200088828C83E709F0A3DFFA8032E309F608BB
:10043000DFFA8078E309F208DFFA807088828C8323
:10044000E309F0A3DFFA806489828A83E0A3F608D7
:10045000DFFA805889828A83E0A3F208DFFA804CB1
:1004600080D280FA80C680D4806980F28033801088
:1004700080A680EA809A80A880DA80E280CA8033F1
:1004800089828A83ECFAE493A3C8C582C8CCC58369
:10049000CCF0A3C8C582C8CCC583CCDFE9DEE78039
:1004A0000D89828A83E493A3F608DFF9ECFAA9F0B8
:1004B000EDFB2289828A83ECFAE0A3C8C582C8CC0E
:1004C000C583CCF0A3C8C582C8CCC583CCDFEADE27
:1004D000E880DB89828A83E493A3F208DFF980CC89
:1004E00088F0EF60010E4E60C388F0ED2402B40482
:1004F0000050B9F582EB2402B4040050AF23234529
:06050000822390046073E9
:10050600BB010689828A83E0225002E722BBFE02F3
:09051600E32289828A83E4932226
:10051F00BB010CE58229F582E5833AF583E0225091
:10052F0006E92582F8E622BBFE06E92582F8E222DB
:0D053F00E58229F582E5833AF583E49322F5
:10054C00BB010689828A83F0225002F722BBFE018E
:02055C00F32288
:10055E00EF8DF0A4A8F0CF8CF0A428CE8DF0A42EB1
:02056E00FE226B
:10057000BC000BBE0029EF8DF084FFADF022E4CC6F
:10058000F875F008EF2FFFEE33FEEC33FCEE9DEC38
:10059000984005FCEE9DFE0FD5F0E9E4CEFD22ED7E
:1005A000F8F5F0EE8420D21CFEADF075F008EF2FC8
:1005B000FFED33FD4007985006D5F0F222C398FDB9
:0505C0000FD5F0EA2256
:1005C500C2D5EC30E709B2D5E4C39DFDE49CFCEE51
:1005D50030E715B2D5E4C39FFFE49EFE120570C354
:1005E500E49DFDE49CFC800312057030D507C3E44F
:0605F5009FFFE49EFE22C0
:1005FB00BB010A89828A83E0F5F0A3E022500687CB
:10060B00F009E71922BBFE07E3F5F009E31922898C
:0B061B00828A83E493F5F074019322BF
:10062600BB0110E58229F582E5833AF583E0F5F012
:10063600A3E0225009E92582F886F008E622BBFEEF
:100646000AE92582F8E2F5F008E222E5832AF58335
:08065600E993F5F0A3E99322FA
:10065E00BB010789828A83020771500B09C5F027F7
:10066E00F7C5F01937F722BBFE0D09F8E325F0F3B5
:10067E00C5F019E338F322F889828A837401932531
:08068E00F0C5F0F8E4933822F6
:10069600BB010DC58229C582C5833AC58302077190
:1006A6005011C58229F808E5F026F618F5F0E5821E
:1006B60036F622BBFE11C58229F808E225F0F5F0D0
:1006C600F218E23582F222F8E58229F582E5832ADC
:0D06D600F58374019325F0F5F0E4933822CC
:1006E300F8BB0111E58229F582E5833AF583E8F049
:1006F300E5F0A3F0225009E92582C8F608A6F02206
:0D070300BBFE09E92582C8F2E5F008F222EC
:0E071000C3E49FFFE49EFEE49DFDE49CFC22FA
:0C071E00ECF0A3EDF0A3EEF0A3EFF0224E
:0C072A00ECF208EDF208EEF208EFF2220B
:10073600D083D082E493F208740193F20874029392
:09074600F208740393F2740473C9
:101F6B007888EBF208EAF208E9F2E47890F208F2EA
:101F7B00788E08E2FF24FFF218E2FE34FFF2EF4EF8
:101F8B00603E788BE2FB08E2FA08E2F9120506FFE5
:101F9B007888E2FB08E2FA08E2F9789008E2FD247F
:101FAB0001F218E2FC3400F28D828C83EF12074FA2
:101FBB00EF60BD788DE22401F218E23400F280B0BC
:0B1FCB007888E2FB08E2FA08E2F92245
:10249000E4FFFE120506600C0FEF70010E09E970F3
:0524A000F20A80EF22AA
:101EEB00020CF2E493A3F8E493A34003F68001F20F
:101EFB0008DFF48029E493A3F85407240CC8C333F8
:101F0B00C4540F4420C8834004F456800146F6DFC6
:101F1B00E4800B01020408102040809016EFE47E51
:101F2B00019360BCA3FF543F30E509541FFEE493BB
:101F3B00A360010ECF54C025E060A840B8E493A382
:101F4B00FAE493A3F8E493A3C8C582C8CAC583CAAD
:101F5B00F0A3C8C582C8CAC583CADFE9DEE780BE65
:0118130000D4
:10074F00F8BB010DE58229F582E5833AF583E8F0E0
:10075F00225006E92582C8F622BBFE05E92582C88C
:02076F00F22274
:10077100C5F0F8A3E028F0C5F0F8E5821582700213
:060781001583E038F022B0
:00000001FF
