:102364006D61696E5F5F5F5F0A006D61696E207306
:1023740074617274206C697374656E6E696E670A39
:1023840000475053204275666665723A000A00475A
:102394006F742047505253204275666665723A0046
:1016EF0081050081030082010000C10181060A818A
:1016FF00040060800133474554202F3F64617461BB
:10170F003D3126636369643D3030303030303030E6
:10171F00303030303030303030303030266C617413
:10172F003D303030302E30303030266C6F6E3D30E3
:10173F00303030302E3030303020485454502F312C
:10174F002E310D0A486F73743A0D0A0D0A0000000E
:10175F00000000000000000000000000000000007A
:10176F00000000000000000000000000000000006A
:10177F00000000000000608000B3474554202F3F59
:10178F00646174613D2D3126636369643D3030308F
:10179F00303030303030303030303030303030303A
:1017AF003020485454502F312E310D0A486F737426
:1017BF003A0D0A0D0A0000000000000000000000B2
:1017CF00000000000000000000000000000000000A
:1017DF0000000000000000000000000000000000FA
:1017EF0000000000000000000000000000000000EA
:1017FF000000000000000000000085075F5F000090
:01180F0000D8
:0824E8007FF47E51DEFEDFFAF5
:0124F00022C9
:1024AD00758920759850758DFD858D8BD28ED2AC2A
:0324BD00D2AF2279
:1000260043A210438E08E59A543F4440F59A439AFA
:0B00360010438E10759CF443AF0122B4
:0B24D2008F9BE59A20E1FB539AFD224E
:0623E1007BFF7A237991D5
:1023E7007899EBF208EAF208E9F27899E2FB08E259
:1023F700FA08E2F9120506FF60101224DD789BE265
:0B2407002401F218E23400F280E02211
:102481007F80900233E4F0A3DFFC9002337430F0DC
:06249100A3F0E47800F264
:012497002222
:100003007F809001B3E4F0A3DFFC9001B37402F0AE
:0B001300A3F0E47805F27801F208F297
:01001E0022BF
:03002300020F3198
:100F3100C0E0C0F0C083C082C0D075D000C000C086
:0D0F410001C002C003C004C005C006C00707
:100F4E00309866C2987892E599F22004028055781E
:100F5E0092E2FEB47B151224819002337431F0A319
:100F6E0014F078007402F2C2038034900233E0B4BD
:100F7E00312DEEB47D0BA37431F090023314F0805A
:100F8E001E7800E2FFC3948050157892E2FE74330F
:100F9E002FF582E43402F583EEF0EF047800F230A0
:090FAE0003077892E2FF12243CD3
:100FB700D007D006D005D004D003D002D001D0008E
:0B0FC700D0D0D082D083D0F0D0E03238
:030043000215465D
:10154600C0E0C0F0C083C082C0D075D000C000C06B
:0D15560001C002C003C004C005C006C007EC
:10156300E59A20E0047F0180027F00EF6002C1D48E
:10157300200402C1D17893E59BF2D2907801E2FE78
:1015830008E2FF4E700F7893E2B424097801E4F285
:101593000804F2C158EF64014E70107893E2B44727
:1015A3000A7801E4F2087402F2C1587802E2640294
:1015B300700218E270107893E2B4500A7801E4F2F2
:1015C300087403F2C1587801E2FE08E2FF64034E97
:1015D30070107893E2B4520A7801E4F2087404F2CA
:1015E3008073EF64044E70107893E2B44D0A78016F
:1015F300E4F2087405F2805D7802E2640570021873
:10160300E270107893E2B4430A7801E4F2087406B6
:10161300F280427801E2FE08E2FF64064E701E7813
:1016230093E2B42C187801E4F2087407F278057495
:1016330002F29001B4F09001B314F08018C3EF9458
:1016430001EE9400400F7802E2940718E2940050F0
:1016530004E4F208F27802E26407700218E2706EA2
:101663009001B4E0640160667893E2640A703878AC
:1016730004E204F27801E4F208F27806E22401FFBE
:10168300E433FE7804E2C39FEE6480F874809840EC
:101693003D9001B37402F0A314F07804E4F27FE800
:1016A3007E0312241680277806E2FF7804E2C39FA4
:1016B300401C9001B3E0B401157893E2FF7805E292
:1016C30024B3F582E43401F583EFF0E204F2539A94
:0116D300FE18
:1016D400D007D006D005D004D003D002D001D0006A
:0B16E400D0D0D082D083D0F0D0E03214
:100CF200E4FF1224F97894EBF208EAF208E9F2E44C
:100D020008F208F27800F27805F2C204C203120077
:100D1200031224811200261224AD7BFF7A23796408
:100D22001223E7121CD67BFF7A23796E1223E7E4A3
:100D3200FF7894E2FB08E2FA08E2F98F82758300F9
:100D420012051FFE74452FF582E43401F583EEF09F
:100D52008F8275830012051FFE74C62FF582E4345C
:100D620000F583EEF00FEFB414C7D2049001B4E0A3
:100D720064016002C14D7BFF7A2379851223E77BF0
:100D8200017A0179B51223E71223E19001C1E064EF
:100D92004160157B017A0079B31223E7D203D200B6
:100DA2007B017A0079B3C1459001C3E090015EF006
:100DB2009001C4E090015FF09001C5E0900160F005
:100DC2009001C6E0900161F09001C8E0900163F0EB
:100DD2009001C9E0900164F09001CAE0900165F0D1
:100DE2009001CBE0900166F09001CFE090016CF0B1
:100DF2009001D0E090016DF09001D1E090016EF091
:100E02009001D2E090016FF09001D3E0900170F078
:100E12009001D5E0900172F09001D6E0900173F05C
:100E22009001D7E0900174F09001D8E0900175F044
:100E32007B017A0179331223E7D203D2007B017A54
:100E4200017933121814C203120003900234E064D1
:100E5200316002C1FB7BFF7A2379931223E77B0186
:100E62007A0279351223E71223E1900235E06432E7
:100E72006002C1F8A3E06430707CA3E06431707654
:100E820078987406F27898E2FFC3948050687433BD
:100E92002FF582E43402F583E0FF605AEFB4531D6C
:100EA2007898E22435F582E43402F583E0FF600DA0
:100EB200B44F04D2018006EFB44302C2017898E233
:100EC200FF2433F582E43402F583E0B4462174351D
:100ED2002FF582E43402F583E0FF6013B452077801
:100EE20006741EF28009EFB448057806740AF27897
:100EF20098E204F2808F122481200102A16E789779
:100F02007464F2B2901224E87897E214F2E2D39475
:100F12000050F078977464F27897E2D3940050020C
:0F0F2200A16EB2901224E81224E8E214F280E9E2
:07080000780DECF208EDF2A7
:10080700781DEBF208EAF208E9F290000512051FDD
:10081700780FF27F02122014781DE2FB08E2FA0833
:10082700E2F98F8275830012051FFF780FE2644398
:10083700600281EEEF6441600281EE7F0412200ABC
:10084700781DE2FB08E2FA08E2F98F82758300124D
:10085700051FFF780DE2FC08E22426F582E43CF54B
:1008670083EFF07F06122014781DE2FB08E2FA08F6
:10087700E2F98F8275830012051FFF780DE2FC08ED
:10088700E22427F582E43CF583EFF07F031220147E
:100897001220CE780DE2FA08E2F5828A8312071E4B
:1008A7007F0512200A1220CE780DE2FA08E2FB2417
:1008B70004F582E43AF58312071E8B828A83E0FCF3
:1008C700A3E0FDA3E0FEA3E0FF12038F7C007D649D
:1008D7001205C5780DE2FC08E2FD2408F582E43C28
:1008E700F583EEF0A3EFF0ED2408F582E43CF58301
:1008F700E0FEA3E0FF7C007D6412055EAC06AD0759
:10090700EC120356C004A905AA06AB07780DE2FE50
:1009170008E2F5828E83E0FCA3E0FDA3E0FEA3E0FE
:10092700FFD000120049781112072A7811E2FC085B
:10093700E2FD08E2FE08E2FF12038F780DE2FC08F1
:10094700E2FD240AF582E43CF583EEF0A3EFF0ED37
:10095700240AF582E43CF583E0FCA3E0FDEC1203F6
:1009670056C004A905AA06AB077811E2FC08E2FD08
:1009770008E2FE08E2FFD000120049E4FBFA7970B2
:10098700784212013E12038F780DE2FC08E2FD2443
:100997000CF582E43CF583EEF0A3EFF0ED2404F5CB
:1009A70082E43CF583E0FCA3E0FDA3E0FEA3E0FFC7
:1009B70012038F7C007D641205C5780DE2FC08E206
:1009C700FD240EF582E43CF583EEF0A3EFF0ED2471
:1009D7000EF582E43CF583E0FEA3E0FF7C007D6436
:1009E70012055EAC06AD07EC120356C004A905AAB2
:1009F70006AB07780DE2FE08E22404F582E43EF533
:100A070083E0FCA3E0FDA3E0FEA3E0FFD00012001B
:100A170049781512072A7815E2FC08E2FD08E2FE7C
:100A270008E2FF12038F780DE2FC08E2FD2410F5BF
:100A370082E43CF583EEF0A3EFF0ED2410F582E4B9
:100A47003CF583E0FCA3E0FDEC120356C004A905C6
:100A5700AA06AB077815E2FC08E2FD08E2FE08E209
:100A6700FFD000120049E4FBFA7970784212013E88
:100A770012038F780DE2FC08E22412F582E43CF5BC
:100A870083EEF0A3EFF0781DE2FB08E2FA08E2F943
:100A97007F0712201412206F781912072A7FCD7E44
:100AA700CC7DEC7C3F7819E2FB08E2F908E2FA0812
:100AB700E2CBF812013E780DE2FA08E22414F5823F
:100AC700E43AF58312071E781DE2FB08E2FA08E212
:100AD700F97F0812201412206F780DE2FA08E22439
:100AE70018F582E43AF58312071E781DE2FB08E247
:100AF700FA08E2F990000712051FFF3395E0FEEFB1
:100B070024D0FFEE34FFFE7C007D0A12055E9000C4
:100B17000812051FFD3395E0FCED24D0FDEC34FFF2
:100B2700CD2FFFED3EFE780DE2FC08E2242EF58284
:100B3700E43CF583EEF0A3EFF090000912051FFFE8
:100B47003395E0FEEF24D0FFEE34FFFE7C007D0AF4
:100B570012055E90000A12051FFD3395E0FCED2497
:100B6700D0FDEC34FFCD2FFFED3EFE780DE2FC0803
:100B7700E22430F582E43CF583EEF0A3EFF0900039
:100B87000B12051FFF3395E0FEEF24D0FFEE34FF75
:100B9700FE7C007D0A12055E90000C12051FFD33D6
:100BA70095E0FCED24D0FDEC34FFCD2FFFED3EFEAC
:100BB700780DE2FC08E22432F582E43CF583EEF09E
:100BC700A3EFF07F091220147810EFF2781DE2FBF3
:100BD70008E2FA08E2F97810E2F582758300120557
:100BE7001FFF3395E0FEEF24D0FFEE34FFFE7C00BD
:100BF7007D0A12055E7810E2F5828C83A312051F29
:100C0700FD3395E0FCED24D0FDEC34FFCD2FFFED57
:100C17003EFE780DE2FC08E2242CF582E43CF583E5
:100C2700EEF0A3EFF07810E2F582758300A3A3122C
:100C3700051FFF3395E0FEEF24D0FFEE34FFFE7C67
:100C4700007D0A12055E7810E2F5828C83A3A3A3C8
:100C570012051FFD3395E0FCED24D0FDEC34FFCDEC
:100C67002FFFED3EFE780DE2FC08E2242AF582E430
:100C77003CF583EEF0A3EFF07810E22404F582E46C
:100C870033F58312051FFF3395E0FEEF24D0FFEE07
:100C970034FFFE7C007D0A12055E7810E22405F51C
:100CA70082E433F58312051FFD3395E0FCED24D074
:100CB700FDEC34FFCD2FFFED3ECF24D0CF3407FE20
:100CC700780DE2FC08E2FD2428F582E43CF583EE8A
:100CD700F0A3EFF0ED2428FFE43CFAA9077B01120B
:0A0CE70010007E007F0122E4FEFFF2
:010CF10022E0
:101C0100E47820F208F27824EBF208EAF208E9F22B
:101C11007824E2FB08E2FA08E2F9120506FF7002F5
:101C210081CE24D0B40A00507D901C3425E05002AE
:101C31000583738148815081598163816D817781E9
:101C410081818B8195819FE47822F208F280577817
:101C510022E4F20804F2804E7822E4F2087402F2DF
:101C610080447822E4F2087403F2803A7822E4F2A4
:101C7100087404F280307822E4F2087405F28026B8
:101C81007822E4F2087406F2801C7822E4F20874E7
:101C910007F280127822E4F2087408F280087822B0
:101CA100E4F2087409F27820E2FE08E2FF7C007D8C
:101CB1000A12055E7823E22F7921F318E23E19F327
:101CC1007826E22401F218E23400F281117820E250
:041CD100FE08E2FF28
:011CD50022EC
:0A227E007827EBF208EAF208E9F213
:102288007F011220147834EFF2E214F27827E2F991
:1022980008E2FA08E2788BC9F208EAF208E9F2786B
:1022A80034E2FF788EE4F208EFF27BFE7A00792AB6
:1022B800121F9F7834E2242AF8E4F27BFE7A007930
:0422C8002A121C01B9
:0122CC0022EF
:1011DE00783512073600000000783DE4F20804F27C
:1011EE0008EBF208EAF208E9F2783FE2FB08E2FACD
:1011FE0008E2F9120506FF7002618424D2B40C00D5
:10120E00400241AB90121C25E0500205837341A2AF
:10121E0041AB4134413F414A41554160416B4176BA
:10122E004181418C419778391207360000000080C9
:10123E006C78391207363F800000806178391207CA
:10124E0036400000008056783912073640400000C4
:10125E00804B783912073640800000804078391272
:10126E00073640A000008035783912073640C0009E
:10127E0000802A783912073640E00000801F783946
:10128E0012073641000000801478391207364110DB
:10129E0000008009783912073642380000E4FFFE5C
:1012AE007D387C427839E2FB08E2F908E2FA08E27E
:1012BE00CBF81202E4700D783DF208F27842F20893
:1012CE0004F26177783EE26401700218E2702FFF3B
:1012DE00FE7D207C417835E2FB08E2F908E2FA084F
:1012EE00E2CBF812013E7839E2FB08E2F908E2FAA5
:1012FE0008E2CBF812004D783512072A806B78354C
:10130E00E2FB08E2F908E2FA08E2CBF8C000C001FD
:10131E00C002C0037842E2FE08E2FF7C007D0A12A2
:10132E00055EAC06AD07EC120356C004A905AA066D
:10133E00AB077839E2FC08E2FD08E2FE08E2FFD0D6
:10134E0000120247D003D002D001D00012004D7817
:10135E003512072A7842E2FE08E2FF7C007D0A126F
:10136E00055E7842EEF208EFF27841E22401F218BF
:10137E00E23400F221F77835E2FC08E2FD08E2FEE5
:03138E0008E2FF73
:011391002239
:10206F007E00781DE2FB08E2FA08E22FF9EE3AFA59
:0A207F007844EBF208EAF208E9F2F7
:102089007F011220147851EFF2E214F27844E2F958
:1020990008E2FA08E2788BC9F208EAF208E9F2786C
:1020A90051E2FF788EE4F208EFF27BFE7A0079477D
:1020B900121F9F7851E22447F8E4F27BFE7A0079F7
:0420C900471211DECB
:0120CD0022F0
:10139200785212073600000000785AE4F20804F28C
:1013A20008EBF208EAF208E9F2785CE2FB08E2FAFA
:1013B20008E2F9120506FF7002A13824D2B40C002B
:1013C2004002815F9013D025E0500205837381565D
:1013D200815F61E861F361FE81098114811F812AC5
:1013E20081358140814B785612073600000000801B
:1013F2006C78561207363F800000806178561207DB
:1014020036400000008056785612073640400000F1
:10141200804B785612073640800000804078561282
:10142200073640A000008035785612073640C000CB
:1014320000802A785612073640E00000801F785656
:101442001207364100000080147856120736411008
:1014520000008009785612073642380000E4FFFE89
:101462007D387C427856E2FB08E2F908E2FA08E2AB
:10147200CBF81202E4700D785AF208F2785FF208A3
:1014820004F2A12B785BE26401700218E2702FFF74
:10149200FE7D207C417852E2FB08E2F908E2FA087C
:1014A200E2CBF812013E7856E2FB08E2F908E2FAD2
:1014B20008E2CBF812004D785212072A806B78525C
:1014C200E2FB08E2F908E2FA08E2CBF8C000C00148
:1014D200C002C003785FE2FE08E2FF7C007D0A12D0
:1014E200055EAC06AD07EC120356C004A905AA06B8
:1014F200AB077856E2FC08E2FD08E2FE08E2FFD004
:1015020000120247D003D002D001D00012004D7861
:101512005212072A785FE2FE08E2FF7C007D0A127F
:10152200055E785FEEF208EFF2785EE22401F218CF
:10153200E23400F261AB7852E2FC08E2FD08E2FE1E
:0315420008E2FFBD
:011545002283
:1020CE007E00781DE2FB08E2FA08E22FF9EE3AFAFA
:0A20DE007861EBF208EAF208E9F27B
:1020E8007F01122014786EEFF2E214F27861E2F9BF
:1020F80008E2FA08E2788BC9F208EAF208E9F2780D
:102108006EE2FF788EE4F208EFF27BFE7A007964E3
:10211800121F9F786EE22464F8E4F27BFE7A00795D
:042128006412139298
:01212C002290
:0A200A00781DE2FB08E2FA08E2F993
:0D201400786FEFF208EBF208EAF208E9F24B
:10202100E47874F2122498E47873F27873E2C39F2F
:10203100EE6480F874809850327870E2FB08E2FA1E
:1020410008E2F908E2F58275830012051FB42C0538
:102051007874E204F2786FE2FD7874E2B505051850
:0D206100E204FF227873E204F280C07F00E9
:01206E00224F
:101000007875EBF208EAF208E9F27875E2FB08E29B
:10101000FA08E2F990000AE475F0011206969000D1
:101020000A120626D3943BE5F064809480404B7806
:1010300075E2FB08E2FA08E2F990000AE4F5F01222
:1010400006E3900008E475F001120696900008127D
:101050000626D3943BE5F064809480401D7875E2C9
:10106000FB08E2FA08E2F9900008E4F5F01206E362
:10107000900006E475F0011206967875E2FB08E22E
:10108000FA08E2F9900006E475F00812069690005E
:1010900006120626D39417E5F0648094805002214E
:1010A000DD7875E2FB08E2FA08E2F990000674FFC9
:1010B00075F0E8120696900004E475F001120696A9
:1010C000900002120626FFAEF064024E6018EF6434
:1010D000044E6012EF64064E600CEF64094E600629
:1010E000EF640B4E701D7875E2FB08E2FA08E2F936
:1010F000900004120626D3941EE5F064809480408C
:1011000031801B7875E2FB08E2FA08E2F9900004EE
:10111000120626D3941FE5F064809480401490005A
:1011200004E475F0011206E3900002E475F0011288
:1011300006967875E2FB08E2FA08E2F91205FBFF71
:10114000AEF07C007D041205C5ED4C70297875E287
:10115000FB08E2FA08E2F9900004120626D3941D77
:10116000E5F06480948040489000021206266402F4
:1011700045F0703C80277875E2FB08E2FA08E2F956
:10118000900004120626D3941CE5F06480948040FD
:101190001F900002120626640245F07013900004AE
:1011A00075F0011206E3900002E475F00112069654
:1011B0007875E2FB08E2FA08E2F9900002120626CE
:1011C000D3940CE5F064809480401290000274FF88
:0E11D00075F0F4120696E475F00112065E2228
:071A39007878EEF208EFF2ED
:101A4000E47882F208F2787AEBF208EAF208E9F236
:101A5000C3EF940AEE648094805033787AE2FB08F6
:101A600008E2F92401F218E2FA3400F274301205A7
:101A70004C787808E22430FF08E2FB0808E2F924F9
:101A800001F218E2FA3400F2EF12054C6111787895
:101A9000E2FE08E2FFD39400EE6480948040657C0F
:101AA000007D0A1205C5AB05AA047878E2FE08E2BB
:101AB000FF7C007D0A1205C57878EEF208EFF2AFE0
:101AC00003EF2430FF788208E2FD2401F218E234AB
:101AD00000F2747D2DF8EFF280B47882E2FE08E225
:101AE000FFC3EE648094804028747D2FF8E2FF7875
:101AF0007AE2FB0808E2F92401F218E2FA3400F273
:101B0000EF12054C7883E224FFF218E234FFF280F2
:0F1B1000C9787AE2FB08E2FA08E2F9E402054C30
:10192B00696E69742041540A0041540D0A004154F8
:10193B002B434349440D0A0041542B435245473F27
:10194B000D0A0041542B434744434F4E543D312C19
:10195B0000495000434D4E4554000D0A0041542B95
:10196B00584953503D300D0A0041542B58494943B7
:10197B003D310D0A0041542B584949433F0D0A0094
:10198B0041542B544350434C4F53453D300D0A00AB
:10199B0041542B54435053455455503D302C313208
:1019AB00302E32372E3132352E33312C38300D0A62
:1019BB000041542B49505354415455533D300D0A5B
:1019CB00006C696E6B20737563636573730A0041FA
:1019DB00542B584949433D300D0A006C696E6B20FE
:1019EB006661696C65640A00677072735F7374611A
:1019FB00727428290A00636865636B2067736D2016
:101A0B00726561647928290A0041542B5443505361
:101A1B00454E443D302C0077616974203E0A000D21
:0E1A2B000A0D0A0D0A00675F733A300A0000C8
:03181000818500CF
:042412007FE87E03DE
:10241600E4FDFCC3ED9FEE6480F8EC6480985015F3
:10242600E4FBFA0BBB00010ABA03F8BBDEF50DBDEF
:0524360000010C80DE36
:01243B00227E
:0824F1008F993099FDC2992278
:10231B007F221224F17F2C1224F17F221224F17BD5
:05232B00FF7A19795F43
:1023300078B0EBF208EAF208E9F278B0E2FB08E2E2
:10234000FA08E2F9120506601A78B0E2FB0808E222
:10235000F92401F218E2FA3400F2120506FF122401
:04236000F180D7220F
:0B24DD008F9BE59A30E1FB539AFD2233
:0923A4001224C07BFF7A1979CCE8
:1023AD0078B0EBF208EAF208E9F278B0E2FB08E265
:1023BD00FA08E2F9120506601A78B0E2FB0808E2A5
:1023CD00F92401F218E2FA3400F2120506FF122484
:0423DD00DD80D722A6
:1024C000E4FF7886F208F27E80900347E4F0A3DE12
:0124D000FC0F
:0124D10022E8
:100FD2007BFF7A19792B1223AD7884E2B4301C128C
:100FE20024C0E47885F27BFF7A19793412233078B1
:0C0FF200847431F27FF47E011224162278
:10212D007884E264317050900349E0B44F21A3E00C
:10213D00B44B1C1224C0E47885F27BFF7A197939EF
:10214D0012233078847432F27FF47E010224161249
:10215D0024C07BFF7A19793412233078847431F2DC
:10216D007FF47E011224167885E204F2E2B40507AD
:08217D00187430F2E408F222AC
:101E7D00E4FF7884E264326002E112900368E0646A
:101E8D004F703FA3E0644B7039FF74502FF582E41F
:101E9D003403F583E0FE74B32FF582E43402F58349
:101EAD00EEF00FEFB414E31224C0E47885F2187449
:101EBD0033F27BFF7A1979431223307FE87E0302D8
:101ECD0024161224C078847435F27BFF7A19794E6A
:101EDD001223307F221224F17BFF7A19795C1223B1
:101EED003012231B7F221224F17BFF7A19796512A0
:101EFD0023301224127885E204F2E2B40507187437
:051F0D0030F2E408F2CF
:011F120022AC
:102185007884E26433704B900357E0B44F20A3E0AA
:10219500B44B1B1224C0E47885F2187434F27BFF2B
:1021A5007A1979681223307FE87E030224161224F7
:1021B500C07BFF7A19793912233078847432F21290
:1021C50024127885E204F2E2B40507187430F2E4CB
:0321D50008F222EB
:100787007884E26434706C900349E0644F7040A34E
:10079700E0644B703A1224C0E47885F2187435F29D
:1007A7007BFF7A19794E1223307F221224F17BFFC7
:1007B7007A19795C12233012231B7F221224F17BD2
:1007C700FF7A1979651223307FE87E030224161217
:1007D70024C078847434F27BFF7A19796812233045
:1007E7001224127885E204F2E2B40507187430F295
:0407F700E408F222FE
:1021D8007884E26435704B900349E0B44F20A3E063
:1021E800B44B1B1224C0E47885F2187436F27BFFD6
:1021F8007A1979741223307FE87E03022416122498
:10220800C078847433F27BFF7A1979431223301231
:1022180024127885E204F2E2B40507187430F2E477
:0322280008F22297
:10222B007884E26436704B900349E0B44F20A3E00E
:10223B00B44B1B1224C0E47885F2187437F27BFF81
:10224B007A1979801223307FE87E03022416122438
:10225B00C078847436F27BFF7A19797412233012AA
:10226B0024127885E204F2E2B40507187430F2E424
:03227B0008F22244
:1022CD007884E264377046900353E0B4311B1224D6
:1022DD00C0E47885F2187438F27BFF7A19798B1285
:1022ED0023307FE87E030224161224C078847437CD
:1022FD00F27BFF7A1979801223301224127885E24D
:0E230D0004F2E2B40507187430F2E408F2227C
:102466007884E2B438141224C078847439F27BFF7D
:0B2476007A19799B12233012241222E5
:101DAB00E478A7F27884E264396002C17C9003493D
:101DBB00E0B44F20A3E0B44B1BE47885F2187441D8
:101DCB00F21224C07BFF7A1979BC1223307FE87E94
:101DDB0003022416E478A7F278A7E2FFC39480509D
:101DEB005B74472FF582E43403F583E0FF604DEF1E
:101DFB00642C704178A7E2FFC39477503874482F56
:101E0B00F582E43403F583E064437029E2FF244E4A
:101E1B00F582E43403F583E0B4541A744F2FF58242
:101E2B00E43403F583E0B42C0C1223A4E47885F29C
:101E3B00187442F22278A7E204F2809C1224C07834
:101E4B00847438F27BFF7A19798B122330122412A7
:101E5B007885E204F2E2B405187BFF7A1979DA127D
:101E6B0023307FF47E0112241678847430F2E40858
:011E7B00F274
:011E7C002243
:101B1F00E478A7F2087C007DFE7BFF7A1A7931FE0C
:101B2F007F081204E07884E278ACF27BFE7A0079C9
:101B3F00A81223AD7884E2644160028100900355BE
:101B4F00E0B44F07A3E0B44B028055E478A7F278D6
:101B5F00A7E2FFC39480505B74472FF582E43403F0
:101B6F00F583E0FF604DEF642C704178A7E2FFC36F
:101B7F009477503874482FF582E43403F583E0648A
:101B8F00437029E2FF244EF582E43403F583E0B479
:101B9F00541A744F2FF582E43403F583E0B42C0C00
:101BAF001223A4E47885F2187442F22278A7E20493
:101BBF00F2809C1224C07BFF7A1979E61223AD784C
:101BCF00847439F27BFF7A1979BC122330122412F4
:101BDF007885E204F2E2B405187BFF7A1979DA12FC
:101BEF0023307FF47E0112241678847430F2E408D7
:011BFF00F2F3
:011C000022C1
:101CD600E478A4F20804F2E408F27BFF7A1979F3B7
:101CE6001223AD78847430F2E47886F208F2122476
:101CF600C078A5E2707D7FD07E071224167BFF7A1E
:101D06001A79011223AD900347E060E5E478A6F264
:101D160078A6E2FFC3948050D874472FF582E43446
:101D260003F583E0FFB42B06E278A4F2803EEFB41D
:101D3600591A78A4E260152407FFE433FE78A6E278
:101D4600B50709E4B506051804F280A578A4E2FFF4
:101D5600601A2407FFE433FE78A6E2C39FEE648090
:101D6600F87480984006E478A4F2808578A6E204A8
:101D7600F2809D7884E26442602A120FD212212DED
:101D8600121E7D1221851207871221D812222B12CC
:101D960022CD122466121DAB121B1F7FF47E011288
:041DA600241680CFB0
:011DAA002216
:0A1814007899EBF208EAF208E9F215
:10181E00E408F208F208F208F278847437F212241F
:10182E00C07884E2644260201224C0900353743165
:10183E00F01222CD122466121DAB121B1F7884E209
:10184E00B430DE121CD680D97899E2FB08E2FA0891
:10185E00E2F9789EE2FE08E2FFF5828E8312051F02
:10186E00600D789FE22401F218E23400F280D9EF85
:10187E004E7002212A789EE2FF08E208CFF208EFAE
:10188E00F27BFF7A1A7914122330C3789FE2940AFE
:06189E0018E29400402E48
:1018A400E2FA08E2FB7C007D0AFFAE02120570EF4B
:1018B400243078A2F27C007D0AAF03AE02120570D8
:0C18C400ED243078A3F218E2FF1224F1AA
:1018D000800B789FE22430F218E23400F208E2FF35
:1018E0001224F17BFF7A197965122330E47885F2AE
:1018F000900349E0643E601C7BFF7A1A7922122330
:10190000AD7F327E001224167885E204F2E2D39491
:101910000A40DD227899E2FB08E2FA08E2F9122394
:0A192000307BFF7A1A792A12233077
:01192A00229A
:10243C007887E2647F700218E278867004F208F202
:10244C002208E2FD2401F218E2FC3400F274472D5C
:0A245C00F58274033CF583EFF022D3
:0724F9007B017A0279B32296
:100046000203FBE86480F8E933E83360110460F0EA
:10005600ED33EC337009E8FCE9FDEAFEEBFF220420
:1000660060DED3EB9FEA9EE99DE8C2E78CF0C2F71B
:1000760095F0400CE8CCF8E9CDF9EACEFAEBCFFBE7
:100086001203C685D0F05804700320D5B3E8047077
:10009600075002B2D502040592D5EC0460F7E4CC11
:1000A600C0E0C398F8603B94186008400DD0E0FBB0
:1000B6000203DDE4FBFAC9FC8028E830E406E4C963
:1000C600FBE4CAFCE830E305E4C9CACBFCE8540704
:1000D6006010F8C3E913F9EA13FAEB13FBEC13FC0F
:1000E600D8F130F52FC3E49CFCEF9BFFEE9AFEEDB2
:1000F60099FDD0E0FBEF4E4D4C701222DB0302045B
:1001060002EC2CFCEF33FFEE33FEED33FDED30E772
:10011600EB0203DDEF2BFFEE3AFEED39FDD0E0FBFF
:1001260050130BBB0003020405ED13FDEE13FEEFA7
:0801360013FFEC13FC0203DDD2
:10013E00EC4D6011E8497017ED33EC3304600DE4BB
:10014E00FCFFFEFD22E933E8330470F80203FB12D4
:10015E0003C658046009E4CC2481500628500902D5
:10016E000405284003020402C0E0EB4A7044B98043
:10017E0006D0E0FB0203F1EF4E701CBD8008EBFFD2
:10018E00EAFEE9FD80EBE98DF0A4FEE5F002022720
:10019E00E9CDF9EAFEEBFFEF89F0A4FCE5F0CE899C
:1001AE00F0A42EFFE435F0CD89F0A42DFEE435F059
:1001BE008067EF4E7005BD80D780C3EF8BF0A4AC87
:1001CE00F0EE8BF0A42CFCE435F0F8EF8AF0A42CC2
:1001DE00E5F038FCE433CB8DF0A42CFCE5F03BF8D5
:1001EE00EE8AF0A42CFCE5F038F8E433CF89F0A4C5
:1001FE002CFCE5F038CF3400CE89F0A42FFFE5F0CB
:10020E003EFEE433C98DF0A42EFEE5F039CD8AF022
:10021E00A42FFFE5F03EFEE43DFD33D0E0FB50079A
:10022E000BBB000F020405EC2CFCEF33FFEE33FE8C
:06023E00ED33FD0203DDBB
:10024400020405EC5D046005E8590470030203FB35
:100254001203C6580460F6EC4860F2EC7004FDFE2C
:10026400FF22C860DB2481C85009C398600250068D
:100274000204029850CAF582E9294B4A7005AB8200
:100284000203F175F0007C1A7880C3EF9BEE9AEDBF
:1002940099400DC3EF9BFFEE9AFEED99FDE842F005
:1002A400DC23ACF0D0E0FFD0E0FED0E0FDAB822058
:1002B400E7101BEB60BAEC2CFCEF33FFEE33FEEDE2
:1002C40033FD0203DDE803F830E705C0F075F00004
:1002D400EF2FFFEE33FEED33FD40B830E7C280AAC6
:1002E40074F8CC6480CCC86480C8F582046043C3CD
:1002F400EB9FF5F0EA9E42F0E99D42F0E89C45F060
:1003040060305018E5825FFFE582F42B5582FB5084
:10031400210ABA001D09B90019088016E5825BFBA1
:10032400E582F42F5582FF50090EBE00050DBD0075
:10033400010CC3EB9FF5F0EA9E42F0E99D42F0E820
:0D0344009C45F06007CC4820E701B3EC2297
:1003510075F020800E75F010800575F0087D007E27
:10036100007F003392D530D503120710EC334010D3
:10037100EF33FFEE33FEED33FDEC33FCD5F0ED2230
:0E038100E5F0247EA2D513CC92E7CDCEFF226C
:10038F00EDD2E7CD33EC3392D524814006E4FFFE66
:10039F00FDFC22FCE4CFCECDCC24E0501174FF80C5
:1003AF00EDC3CC13CCCD13CDCE13CECF13CF047062
:0703BF00F030D5DE0207104B
:1003C600E9D2E7C933E833F892D5EDD2E7CD33EC7D
:0703D60033FC5002B2D522F6
:1003DD00EC30E7100FBF000C0EBE00080DBD000481
:1003ED000BEB6014A2D5EB13FCED92E7FD2274FF2D
:1003FD00FCFDFEFF22E480F8A2D574FF13FC7D8086
:03040D00E480EF99
:03000000021F13C9
:0C1F1300787FE4F6D8FD758120021F5A8B
:10041000E709F608DFFA8046E709F208DFFA803ECE
:1004200088828C83E709F0A3DFFA8032E309F608BB
:10043000DFFA8078E309F208DFFA807088828C8323
:10044000E309F0A3DFFA806489828A83E0A3F608D7
:10045000DFFA805889828A83E0A3F208DFFA804CB1
:1004600080D280FA80C680D4806980F28033801088
:1004700080A680EA809A80A880DA80E280CA8033F1
:1004800089828A83ECFAE493A3C8C582C8CCC58369
:10049000CCF0A3C8C582C8CCC583CCDFE9DEE78039
:1004A0000D89828A83E493A3F608DFF9ECFAA9F0B8
:1004B000EDFB2289828A83ECFAE0A3C8C582C8CC0E
:1004C000C583CCF0A3C8C582C8CCC583CCDFEADE27
:1004D000E880DB89828A83E493A3F208DFF980CC89
:1004E00088F0EF60010E4E60C388F0ED2402B40482
:1004F0000050B9F582EB2402B4040050AF23234529
:06050000822390046073E9
:10050600BB010689828A83E0225002E722BBFE02F3
:09051600E32289828A83E4932226
:10051F00BB010CE58229F582E5833AF583E0225091
:10052F0006E92582F8E622BBFE06E92582F8E222DB
:0D053F00E58229F582E5833AF583E49322F5
:10054C00BB010689828A83F0225002F722BBFE018E
:02055C00F32288
:10055E00EF8DF0A4A8F0CF8CF0A428CE8DF0A42EB1
:02056E00FE226B
:10057000BC000BBE0029EF8DF084FFADF022E4CC6F
:10058000F875F008EF2FFFEE33FEEC33FCEE9DEC38
:10059000984005FCEE9DFE0FD5F0E9E4CEFD22ED7E
:1005A000F8F5F0EE8420D21CFEADF075F008EF2FC8
:1005B000FFED33FD4007985006D5F0F222C398FDB9
:0505C0000FD5F0EA2256
:1005C500C2D5EC30E709B2D5E4C39DFDE49CFCEE51
:1005D50030E715B2D5E4C39FFFE49EFE120570C354
:1005E500E49DFDE49CFC800312057030D507C3E44F
:0605F5009FFFE49EFE22C0
:1005FB00BB010A89828A83E0F5F0A3E022500687CB
:10060B00F009E71922BBFE07E3F5F009E31922898C
:0B061B00828A83E493F5F074019322BF
:10062600BB0110E58229F582E5833AF583E0F5F012
:10063600A3E0225009E92582F886F008E622BBFEEF
:100646000AE92582F8E2F5F008E222E5832AF58335
:08065600E993F5F0A3E99322FA
:10065E00BB010789828A83020771500B09C5F027F7
:10066E00F7C5F01937F722BBFE0D09F8E325F0F3B5
:10067E00C5F019E338F322F889828A837401932531
:08068E00F0C5F0F8E4933822F6
:10069600BB010DC58229C582C5833AC58302077190
:1006A6005011C58229F808E5F026F618F5F0E5821E
:1006B60036F622BBFE11C58229F808E225F0F5F0D0
:1006C600F218E23582F222F8E58229F582E5832ADC
:0D06D600F58374019325F0F5F0E4933822CC
:1006E300F8BB0111E58229F582E5833AF583E8F049
:1006F300E5F0A3F0225009E92582C8F608A6F02206
:0D070300BBFE09E92582C8F2E5F008F222EC
:0E071000C3E49FFFE49EFEE49DFDE49CFC22FA
:0C071E00ECF0A3EDF0A3EEF0A3EFF0224E
:0C072A00ECF208EDF208EEF208EFF2220B
:10073600D083D082E493F208740193F20874029392
:09074600F208740393F2740473C9
:101F9F007888EBF208EAF208E9F2E47890F208F2B6
:101FAF00788E08E2FF24FFF218E2FE34FFF2EF4EC4
:101FBF00603E788BE2FB08E2FA08E2F9120506FFB1
:101FCF007888E2FB08E2FA08E2F9789008E2FD244B
:101FDF0001F218E2FC3400F28D828C83EF12074F6E
:101FEF00EF60BD788DE22401F218E23400F280B088
:0B1FFF007888E2FB08E2FA08E2F92211
:10249800E4FFFE120506600C0FEF70010E09E970EB
:0524A800F20A80EF22A2
:101F1F00020CF2E493A3F8E493A34003F68001F2DA
:101F2F0008DFF48029E493A3F85407240CC8C333C3
:101F3F00C4540F4420C8834004F456800146F6DF92
:101F4F00E4800B01020408102040809016EFE47E1D
:101F5F00019360BCA3FF543F30E509541FFEE49387
:101F6F00A360010ECF54C025E060A840B8E493A34E
:101F7F00FAE493A3F8E493A3C8C582C8CAC583CA79
:101F8F00F0A3C8C582C8CAC583CADFE9DEE780BE31
:0118130000D4
:10074F00F8BB010DE58229F582E5833AF583E8F0E0
:10075F00225006E92582C8F622BBFE05E92582C88C
:02076F00F22274
:10077100C5F0F8A3E028F0C5F0F8E5821582700213
:060781001583E038F022B0
:00000001FF
