:1020B7006D61696E5F5F5F5F0A006D61696E2073B6
:1020C70074617274206C697374656E6E696E670AE9
:1020D7000053656E642047505320427566666572EB
:1020E7003A000A00476F74204750525320427566E2
:1020F700666572323A00476F742047505253204248
:0721070075666665723A007F
:1016EF0081050081030082010000C10081061E8177
:1016FF0004006080012B474554202F3F64617461C3
:10170F003D3126636369643D3030303030303030E6
:10171F00303030303030303030303030266C6F6E0B
:10172F003D303030302E30303030266C61743D30EB
:10173F003030302E3030303020485454502F312E2E
:10174F00310D0A0D0A0D0A00000000000000000014
:10175F00000000000000000000000000000000007A
:10176F00000000000000000000000000000000006A
:10177F00000000000000608000AB474554202F3F61
:10178F00646174613D2D3126636369643D3030308F
:10179F00303030303030303030303030303030303A
:1017AF003020485454502F312E310D0A0D0A0D0A96
:1017BF00000000000000000000000000000000001A
:1017CF00000000000000000000000000000000000A
:1017DF0000000000000000000000000000000000FA
:1017EF0000000000000000000000000000000000EA
:1017FF000000000000000000000085076162630A1E
:01180F0000D8
:08240D007FF47E51DEFEDFFAD0
:0124150022A4
:100FED00758920759850758DFD858D8BD28ED2ACFF
:030FFD00D2AF224E
:101FE50043A210438E08E59A543F4440F59A439A1C
:0B1FF50010438E10759CF443AF0122D6
:0B23F7008F9BE59A20E1FB539AFD222A
:0607CD007BFF7A2079E9B0
:1007D3007899EBF208EAF208E9F27899E2FB08E289
:1007E300FA08E2F9120410FF6010122402789BE267
:0B07F3002401F218E23400F280E02242
:100026007F8090022B7430F0A3DFFCE49002AAF0EC
:0C00360090022B7430F0A3F0E47800F28C
:01004200229B
:1023A0007F809001ABE4F0A3DFFC9001AB7402F0FE
:0B23B000A3F0E47805F27801F208F2D7
:0123BB0022FF
:03002300020F3594
:100F3500C0E0C0F0C083C082C0D075D000C000C082
:0D0F450001C002C003C004C005C006C00703
:100F520030987DC298D2907892E599F2200302806F
:100F62006A7892E2FEB47B1312002690022B74314F
:100F7200F0A314F078007402F2804490022BE0FF98
:100F8200B4310FEEB47D0BA37431F090022B14F048
:100F9200802DEFB4311F7800E2FF6480601E7892EA
:100FA200E2FE742B2FF582E43402F583EEF0EF04B7
:100FB2007800F2800A90022CE0B4300312002690EE
:100FC200022BE0B4300A3002077892E2FF12237655
:100FD200D007D006D005D004D003D002D001D00073
:0B0FE200D0D0D082D083D0F0D0E0321D
:030043000215465D
:10154600C0E0C0F0C083C082C0D075D000C000C06B
:0D15560001C002C003C004C005C006C007EC
:10156300E59A20E0047F0180027F00EF6002C1D48E
:10157300200302C1D17893E59BF2D2907801E2FE79
:1015830008E2FF4E700F7893E2B424097801E4F285
:101593000804F2C158EF64014E70107893E2B44727
:1015A3000A7801E4F2087402F2C1587802E2640294
:1015B300700218E270107893E2B4500A7801E4F2F2
:1015C300087403F2C1587801E2FE08E2FF64034E97
:1015D30070107893E2B4520A7801E4F2087404F2CA
:1015E3008073EF64044E70107893E2B44D0A78016F
:1015F300E4F2087405F2805D7802E2640570021873
:10160300E270107893E2B4430A7801E4F2087406B6
:10161300F280427801E2FE08E2FF64064E701E7813
:1016230093E2B42C187801E4F2087407F278057495
:1016330002F29001ACF09001AB14F08018C3EF9468
:1016430001EE9400400F7802E2940718E2940050F0
:1016530004E4F208F27802E26407700218E2706EA2
:101663009001ACE0640160667893E2640A703878B4
:1016730004E204F27801E4F208F27806E22401FFBE
:10168300E433FE7804E2C39FEE6480F874809840EC
:101693003D9001AB7402F0A314F07804E4F27FE808
:1016A3007E0312235080277806E2FF7804E2C39F6B
:1016B300401C9001ABE0B401157893E2FF7805E29A
:1016C30024ABF582E43401F583EFF0E204F2539A9C
:0116D300FE18
:1016D400D007D006D005D004D003D002D001D0006A
:0B16E400D0D0D082D083D0F0D0E03214
:100CF200E4FF1224167894EBF208EAF208E9F2E42F
:100D020008F208F27800F27805F2C203C202122356
:100D1200A0120026121FE5120FED7BFF7A2079B791
:100D22001207D3121ACE7BFF7A2079C11207D3E4BD
:100D3200FF7894E2FB08E2FA08E2F98F82758300F9
:100D4200120429FE743D2FF582E43401F583EEF09E
:100D52008F82758300120429FE74BE2FF582E4345B
:100D620000F583EEF00FEFB414C7D2039001ACE0AC
:100D720064016002C1387BFF7A2079D81207D37BE5
:100D8200017A0179AD1207D31207CD9001B8E06460
:100D92004160137B017A0079AB1207D3D2027B0147
:100DA2007A0079ABC1309001BAE0900156F090011F
:100DB200BBE0900157F09001BCE0900158F0900127
:100DC200BDE0900159F09001BFE090015BF090010D
:100DD200C0E090015CF09001C1E090015DF09001F3
:100DE200C2E090015EF09001C6E0900164F09001D3
:100DF200C7E0900165F09001C8E0900166F09001B3
:100E0200C9E0900167F09001CBE0900169F0900198
:100E1200CCE090016AF09001CDE090016BF090017E
:100E2200CEE090016CF0D2027B017A01792B12069E
:100E320091C2021223A07BFF7A2079EB1207D37BA7
:100E4200017A02792B1207D31207CD90022CE064AB
:100E5200316002C1FFC2AF7BFF7A2079FD1207D356
:100E62007B017A02792D1207D31207CD90022DE071
:100E720064326002C1FAA3E06430707CA3E06431A2
:100E8200707678987406F27898E2FFC3948050687E
:100E9200742B2FF582E43402F583E0FF605AEFB43D
:100EA200531D7898E2242DF582E43402F583E0FFA5
:100EB200600DB44F04D2008006EFB44302C2007842
:100EC20098E2FF242BF582E43402F583E0B4462154
:100ED200742D2FF582E43402F583E0FF6013B452DF
:100EE200077806741EF28009EFB448057806740A82
:100EF200F27898E204F2808F120026D2AF2000022C
:100F0200A16E78977464F2B29012240D7897E2146D
:100F1200F2E2D3940050F078977464F27897E2D3B7
:100F220094005002A16EB29012240D12240DE2140C
:030F3200F280E961
:07080000780DECF208EDF2A7
:10080700781DEBF208EAF208E9F2900005120429D4
:10081700780FF27F02121F2B781DE2FB08E2FA081D
:10082700E2F98F82758300120429FF780FE264438F
:10083700600281EEEF6441600281EE7F04121F21A6
:10084700781DE2FB08E2FA08E2F98F82758300124D
:100857000429FF780DE2FC08E22426F582E43CF542
:1008670083EFF07F06121F2B781DE2FB08E2FA08E0
:10087700E2F98F82758300120429FF780DE2FC08E4
:10088700E22427F582E43CF583EFF07F03121F2B68
:10089700122000780DE2FA08E2F5828A8312062810
:1008A7007F05121F21122000780DE2FA08E2FB24CF
:1008B70004F582E43AF5831206288B828A83E0FCEA
:1008C700A3E0FDA3E0FEA3E0FF12038F7C007D649D
:1008D7001204CF780DE2FC08E2FD2408F582E43C1F
:1008E700F583EEF0A3EFF0ED2408F582E43CF58301
:1008F700E0FEA3E0FF7C007D64120468AC06AD0750
:10090700EC120356C004A905AA06AB07780DE2FE50
:1009170008E2F5828E83E0FCA3E0FDA3E0FEA3E0FE
:10092700FFD00012004978111206347811E2FC0852
:10093700E2FD08E2FE08E2FF12038F780DE2FC08F1
:10094700E2FD240AF582E43CF583EEF0A3EFF0ED37
:10095700240AF582E43CF583E0FCA3E0FDEC1203F6
:1009670056C004A905AA06AB077811E2FC08E2FD08
:1009770008E2FE08E2FFD000120049E4FBFA7970B2
:10098700784212013E12038F780DE2FC08E2FD2443
:100997000CF582E43CF583EEF0A3EFF0ED2404F5CB
:1009A70082E43CF583E0FCA3E0FDA3E0FEA3E0FFC7
:1009B70012038F7C007D641204CF780DE2FC08E2FD
:1009C700FD240EF582E43CF583EEF0A3EFF0ED2471
:1009D7000EF582E43CF583E0FEA3E0FF7C007D6436
:1009E700120468AC06AD07EC120356C004A905AAA9
:1009F70006AB07780DE2FE08E22404F582E43EF533
:100A070083E0FCA3E0FDA3E0FEA3E0FFD00012001B
:100A17004978151206347815E2FC08E2FD08E2FE73
:100A270008E2FF12038F780DE2FC08E2FD2410F5BF
:100A370082E43CF583EEF0A3EFF0ED2410F582E4B9
:100A47003CF583E0FCA3E0FDEC120356C004A905C6
:100A5700AA06AB077815E2FC08E2FD08E2FE08E209
:100A6700FFD000120049E4FBFA7970784212013E88
:100A770012038F780DE2FC08E22412F582E43CF5BC
:100A870083EEF0A3EFF0781DE2FB08E2FA08E2F943
:100A97007F07121F2B121F8678191206347FCD7E0F
:100AA700CC7DEC7C3F7819E2FB08E2F908E2FA0812
:100AB700E2CBF812013E780DE2FA08E22414F5823F
:100AC700E43AF583120628781DE2FB08E2FA08E209
:100AD700F97F08121F2B121F86780DE2FA08E2240D
:100AE70018F582E43AF583120628781DE2FB08E23E
:100AF700FA08E2F9900007120429FF3395E0FEEFA8
:100B070024D0FFEE34FFFE7C007D0A1204689000BB
:100B170008120429FD3395E0FCED24D0FDEC34FFE9
:100B2700CD2FFFED3EFE780DE2FC08E2242EF58284
:100B3700E43CF583EEF0A3EFF0900009120429FFDF
:100B47003395E0FEEF24D0FFEE34FFFE7C007D0AF4
:100B570012046890000A120429FD3395E0FCED2485
:100B6700D0FDEC34FFCD2FFFED3EFE780DE2FC0803
:100B7700E22430F582E43CF583EEF0A3EFF0900039
:100B87000B120429FF3395E0FEEF24D0FFEE34FF6C
:100B9700FE7C007D0A12046890000C120429FD33C4
:100BA70095E0FCED24D0FDEC34FFCD2FFFED3EFEAC
:100BB700780DE2FC08E22432F582E43CF583EEF09E
:100BC700A3EFF07F09121F2B7810EFF2781DE2FBDD
:100BD70008E2FA08E2F97810E2F582758300120458
:100BE70029FF3395E0FEEF24D0FFEE34FFFE7C00B3
:100BF7007D0A1204687810E2F5828C83A312042917
:100C0700FD3395E0FCED24D0FDEC34FFCD2FFFED57
:100C17003EFE780DE2FC08E2242CF582E43CF583E5
:100C2700EEF0A3EFF07810E2F582758300A3A3122C
:100C37000429FF3395E0FEEF24D0FFEE34FFFE7C5E
:100C4700007D0A1204687810E2F5828C83A3A3A3BF
:100C5700120429FD3395E0FCED24D0FDEC34FFCDE3
:100C67002FFFED3EFE780DE2FC08E2242AF582E430
:100C77003CF583EEF0A3EFF07810E22404F582E46C
:100C870033F583120429FF3395E0FEEF24D0FFEEFE
:100C970034FFFE7C007D0A1204687810E22405F513
:100CA70082E433F583120429FD3395E0FCED24D06B
:100CB700FDEC34FFCD2FFFED3ECF24D0CF3407FE20
:100CC700780DE2FC08E2FD2428F582E43CF583EE8A
:100CD700F0A3EFF0ED2428FFE43CFAA9077B01120B
:0A0CE70010007E007F0122E4FEFFF2
:010CF10022E0
:1019F900E47820F208F27824EBF208EAF208E9F236
:101A09007824E2FB08E2FA08E2F9120410FF7002F6
:101A190041C624D0B40A00507D901A2C25E050020A
:101A2900058373414041484151415B4165416F41E3
:101A3900794183418D4197E47822F208F280577801
:101A490022E4F20804F2804E7822E4F2087402F2E9
:101A590080447822E4F2087403F2803A7822E4F2AE
:101A6900087404F280307822E4F2087405F28026C2
:101A79007822E4F2087406F2801C7822E4F20874F1
:101A890007F280127822E4F2087408F280087822BA
:101A9900E4F2087409F27820E2FE08E2FF7C007D96
:101AA9000A1204687823E22F7921F318E23E19F328
:101AB9007826E22401F218E23400F241097820E2A2
:041AC900FE08E2FF32
:011ACD0022F6
:0A2207007827EBF208EAF208E9F28A
:102211007F01121F2B7834EFF2E214F27827E2F9F2
:1022210008E2FA08E2788BC9F208EAF208E9F278E2
:1022310034E2FF788EE4F208EFF27BFE7A00792A2D
:10224100121EB67834E2242AF8E4F27BFE7A007991
:042251002A1219F93B
:012255002266
:1011DE00783512064000000000783DE4F20804F273
:1011EE0008EBF208EAF208E9F2783FE2FB08E2FACD
:1011FE0008E2F9120410FF7002618424D2B40C00CC
:10120E00400241AB90121C25E0500205837341A2AF
:10121E0041AB4134413F414A41554160416B4176BA
:10122E004181418C419778391206400000000080C0
:10123E006C78391206403F800000806178391206C2
:10124E0040400000008056783912064040400000B1
:10125E00804B783912064040800000804078391269
:10126E00064040A000008035783912064040C0008C
:10127E0000802A783912064040E00000801F78393D
:10128E0012064041000000801478391206404110C9
:10129E0000008009783912064042380000E4FFFE53
:1012AE007D387C427839E2FB08E2F908E2FA08E27E
:1012BE00CBF81202E4700D783DF208F27842F20893
:1012CE0004F26177783EE26401700218E2702FFF3B
:1012DE00FE7D207C417835E2FB08E2F908E2FA084F
:1012EE00E2CBF812013E7839E2FB08E2F908E2FAA5
:1012FE0008E2CBF812004D7835120634806B783543
:10130E00E2FB08E2F908E2FA08E2CBF8C000C001FD
:10131E00C002C0037842E2FE08E2FF7C007D0A12A2
:10132E000468AC06AD07EC120356C004A905AA0664
:10133E00AB077839E2FC08E2FD08E2FE08E2FFD0D6
:10134E0000120247D003D002D001D00012004D7817
:10135E00351206347842E2FE08E2FF7C007D0A1266
:10136E0004687842EEF208EFF27841E22401F218B6
:10137E00E23400F221F77835E2FC08E2FD08E2FEE5
:03138E0008E2FF73
:011391002239
:101F86007E00781DE2FB08E2FA08E22FF9EE3AFA43
:0A1F96007844EBF208EAF208E9F2E1
:101FA0007F01121F2B7851EFF2E214F27844E2F92C
:101FB00008E2FA08E2788BC9F208EAF208E9F27856
:101FC00051E2FF788EE4F208EFF27BFE7A00794767
:101FD000121EB67851E22447F8E4F27BFE7A0079CB
:041FE000471211DEB5
:011FE40022DA
:10139200785212064000000000785AE4F20804F283
:1013A20008EBF208EAF208E9F2785CE2FB08E2FAFA
:1013B20008E2F9120410FF7002A13824D2B40C0022
:1013C2004002815F9013D025E0500205837381565D
:1013D200815F61E861F361FE81098114811F812AC5
:1013E20081358140814B7856120640000000008012
:1013F2006C78561206403F800000806178561206D3
:1014020040400000008056785612064040400000DE
:10141200804B785612064040800000804078561279
:10142200064040A000008035785612064040C000B9
:1014320000802A785612064040E00000801F78564D
:1014420012064041000000801478561206404110F6
:1014520000008009785612064042380000E4FFFE80
:101462007D387C427856E2FB08E2F908E2FA08E2AB
:10147200CBF81202E4700D785AF208F2785FF208A3
:1014820004F2A12B785BE26401700218E2702FFF74
:10149200FE7D207C417852E2FB08E2F908E2FA087C
:1014A200E2CBF812013E7856E2FB08E2F908E2FAD2
:1014B20008E2CBF812004D7852120634806B785253
:1014C200E2FB08E2F908E2FA08E2CBF8C000C00148
:1014D200C002C003785FE2FE08E2FF7C007D0A12D0
:1014E2000468AC06AD07EC120356C004A905AA06AF
:1014F200AB077856E2FC08E2FD08E2FE08E2FFD004
:1015020000120247D003D002D001D00012004D7861
:1015120052120634785FE2FE08E2FF7C007D0A1276
:101522000468785FEEF208EFF2785EE22401F218C6
:10153200E23400F261AB7852E2FC08E2FD08E2FE1E
:0315420008E2FFBD
:011545002283
:102000007E00781DE2FB08E2FA08E22FF9EE3AFAC8
:0A2010007861EBF208EAF208E9F249
:10201A007F01121F2B786EEFF2E214F27861E2F977
:10202A0008E2FA08E2788BC9F208EAF208E9F278DB
:10203A006EE2FF788EE4F208EFF27BFE7A007964B2
:10204A00121EB6786EE22464F8E4F27BFE7A007916
:04205A006412139267
:01205E00225F
:0A1F2100781DE2FB08E2FA08E2F97D
:0D1F2B00786FEFF208EBF208EAF208E9F235
:101F3800E47874F21223BCE47873F27873E2C39FF6
:101F4800EE6480F874809850327870E2FB08E2FA08
:101F580008E2F908E2F582758300120429B42C0519
:101F68007874E204F2786FE2FD7874E2B50505183A
:0D1F7800E204FF227873E204F280C07F00D3
:011F85002239
:101000007875EBF208EAF208E9F27875E2FB08E29B
:10101000FA08E2F990000AE475F0011205A09000C8
:101020000A120530D3943BE5F064809480404B78FD
:1010300075E2FB08E2FA08E2F990000AE4F5F01222
:1010400005ED900008E475F0011205A0900008126B
:101050000530D3943BE5F064809480401D7875E2C0
:10106000FB08E2FA08E2F9900008E4F5F01205ED59
:10107000900006E475F0011205A07875E2FB08E225
:10108000FA08E2F9900006E475F0081205A0900055
:1010900006120530D39417E5F06480948050022145
:1010A000DD7875E2FB08E2FA08E2F990000674FFC9
:1010B00075F0E81205A0900004E475F0011205A097
:1010C000900002120530FFAEF064024E6018EF642B
:1010D000044E6012EF64064E600CEF64094E600629
:1010E000EF640B4E701D7875E2FB08E2FA08E2F936
:1010F000900004120530D3941EE5F0648094804083
:1011000031801B7875E2FB08E2FA08E2F9900004EE
:10111000120530D3941FE5F0648094804014900051
:1011200004E475F0011205ED900002E475F001127F
:1011300005A07875E2FB08E2FA08E2F9120505FF5E
:10114000AEF07C007D041204CFED4C70297875E27E
:10115000FB08E2FA08E2F9900004120530D3941D6E
:10116000E5F06480948040489000021205306402EB
:1011700045F0703C80277875E2FB08E2FA08E2F956
:10118000900004120530D3941CE5F06480948040F4
:101190001F900002120530640245F07013900004A5
:1011A00075F0011205ED900002E475F0011205A042
:1011B0007875E2FB08E2FA08E2F9900002120530C5
:1011C000D3940CE5F064809480401290000274FF88
:0E11D00075F0F41205A0E475F0011205682216
:071913007878EEF208EFF214
:10191A00E47882F208F2787AEBF208EAF208E9F25D
:10192A00C3EF940AEE648094805033787AE2FB081D
:10193A0008E2F92401F218E2FA3400F274301204CF
:10194A0056787808E22430FF08E2FB0808E2F92416
:10195A0001F218E2FA3400F2EF12045621EB787819
:10196A00E2FE08E2FFD39400EE6480948040657C36
:10197A00007D0A1204CFAB05AA047878E2FE08E2D9
:10198A00FF7C007D0A1204CF7878EEF208EFF2AFFE
:10199A0003EF2430FF788208E2FD2401F218E234D2
:1019AA0000F2747D2DF8EFF280B47882E2FE08E24C
:1019BA00FFC3EE648094804028747D2FF8E2FF789C
:1019CA007AE2FB0808E2F92401F218E2FA3400F29A
:1019DA00EF1204567883E224FFF218E234FFF28011
:0F19EA00C9787AE2FB08E2FA08E2F9E40204564F
:10181400696E69742041540A0041540D0A00415410
:101824002B434349440D0A0041542B435245473F3F
:101834000D0A0041542B434744434F4E543D312C31
:1018440000495000434D4E4554000D0A0041542BAD
:10185400584953503D300D0A0041542B58494943CF
:101864003D310D0A0041542B584949433F0D0A00AC
:1018740041542B544350434C4F53453D300D0A00C3
:1018840041542B54435053455455503D302C313220
:10189400302E32372E3132352E33312C38300D0A7A
:1018A4000041542B49505354415455533D300D0A73
:1018B400006C696E6B20737563636573730A004112
:1018C400542B584949433D300D0A006C696E6B2016
:1018D4006661696C65640A00677072735F73746132
:1018E400727428290A00636865636B2067736D202E
:1018F400726561647928290A0041542B544350537A
:0F190400454E443D302C0077616974203E0A0047
:03181000818500CF
:04234C007FE87E03A5
:10235000E4FDFCC3ED9FEE6480F8EC6480985015BA
:10236000E4FBFA0BBB00010ABA03F8BBDEF50DBDB6
:0523700000010C80DEFD
:012375002245
:0C23D1007F221223DD7F2C1223DD7F22EF
:0823DD008F993099FDC299228D
:0B22A4007F221223DD7BFF7A18794EA9
:1022AF0078A8EBF208EAF208E9F278A8E2FB08E274
:1022BF00FA08E2F9120410601A78A8E2FB0808E2A3
:1022CF00F92401F218E2FA3400F2120410FF12237B
:0422DF00DD80D722A5
:0B2402008F9BE59A30E1FB539AFD220E
:0922E3001223E57BFF7A1879B59E
:1022EC0078A8EBF208EAF208E9F278A8E2FB08E237
:1022FC00FA08E2F9120410601A78A8E2FB0808E266
:10230C00F92401F218E2FA3400F2120410FF12243C
:04231C000280D72242
:1023E500E4FF7886F208F27E8090033FE4F0A3DEF6
:0123F500FCEB
:0123F60022C4
:102320007BFF7A1879141222EC7884E2B4301C1204
:1023300023E5E47885F27BFF7A18791D1222AF78C5
:0C234000847431F27FF47E0112235022DD
:10205F007884E264317050900341E0B44F21A3E0E3
:10206F00B44B1C1223E5E47885F27BFF7A187922B2
:10207F001222AF78847432F27FF47E010223501261
:10208F0023E57BFF7A18791D1222AF78847431F221
:10209F007FF47E011223507885E204F2E2B4050743
:0820AF00187430F2E408F2227B
:101D2400E4FF7884E264326002A1B7900360E06467
:101D34004F703FA3E0644B7039FF74482FF582E481
:101D44003403F583E0FE74AB2FF582E43402F583AB
:101D5400EEF00FEFB414E31223E5E47885F218747F
:101D640033F27BFF7A18792C1222AF7FE87E0302CC
:101D740023501223E578847435F27BFF7A1879377F
:101D84001222AF7F221223DD7BFF7A1879451222BB
:101D9400AF1223D17BFF7A1879481222AF1222A402
:101DA40012234C7885E204F2E2B40507187430F289
:031DB400E408F24E
:011DB7002209
:10210E007884E26433704B90034FE0B44F20A3E029
:10211E00B44B1B1223E5E47885F2187434F27BFF7E
:10212E007A1879511222AF7FE87E030223501223D0
:10213E00E57BFF7A1879221222AF78847432F2127C
:10214E00234C7885E204F2E2B40507187430F2E409
:03215E0008F22262
:101E44007884E26434706A900341E0644F703EA386
:101E5400E0644B70381223E5E47885F2187435F2A7
:101E64007BFF7A1879371222AF7F221223DD7BFFA2
:101E74007A1879451222AF1223D17BFF7A18794858
:101E84001222AF1222A47FE87E030223501223E51C
:101E940078847434F27BFF7A1879511222AF1223BA
:101EA4004C7885E204F2E2B40507187430F2E408D1
:021EB400F22218
:102161007884E26435704B900341E0B44F20A3E0E2
:10217100B44B1B1223E5E47885F2187436F27BFF29
:102181007A18795D1222AF7FE87E03022350122371
:10219100E578847433F27BFF7A18792C1222AF121E
:1021A100234C7885E204F2E2B40507187430F2E4B6
:0321B10008F2220F
:1021B4007884E26436704B900341E0B44F20A3E08E
:1021C400B44B1B1223E5E47885F2187437F27BFFD5
:1021D4007A1879691222AF7FE87E03022350122312
:1021E400E578847436F27BFF7A18795D1222AF1297
:1021F400234C7885E204F2E2B40507187430F2E463
:0322040008F222BB
:102256007884E26437704690034BE0B4311B122356
:10226600E5E47885F2187438F27BFF7A18797412EF
:1022760022AF7FE87E030223501223E57884743769
:10228600F27BFF7A1879691222AF12234C7885E225
:0E22960004F2E2B40507187430F2E408F222F4
:100003007884E2B438171223E5E47885F21874395A
:0E001300F27BFF7A1879841222AF12234C225E
:101BA300E478A7F27884E264396002817490034197
:101BB300E0B44F20A3E0B44B1BE47885F2187441E2
:101BC300F21223E57BFF7A1879A51222AF7FE87E14
:101BD30003022350E478A7F278A7E2FFC39480506E
:101BE3005B743F2FF582E43403F583E0FF604DEF30
:101BF300642C704178A7E2FFC39477503874402F68
:101C0300F582E43403F583E064437029E2FF24465C
:101C1300F582E43403F583E0B4541A74472FF58254
:101C2300E43403F583E0B42C0C1222E3E47885F268
:101C3300187442F22278A7E204F2809C1223E5781A
:101C4300847438F27BFF7A1879741222AF12234C12
:101C53007885E204F2E2B405187BFF7A1879C3129F
:101C630022AF7FF47E0112235078847430F2E408AB
:011C7300F27E
:011C7400224D
:101C7500E4FD7884E264416002A12390034DE0B461
:101C85004F07A3E0B44B028046E4FD743F2DF58277
:101C9500E43403F583E0FF6047EF642C703DEDC34A
:101CA5009477503774402DF582E43403F583E0646E
:101CB50043702874462DF582E43403F583E0B4546B
:101CC5001A74472DF582E43403F583E0B42C0C1225
:101CD50022E3E47885F2187442F2220DEDB480AB6C
:101CE5001223E57BFF7A1879CF1222EC78847439B8
:101CF500F27BFF7A1879A51222AF12234C7885E280
:101D050004F2E2B405187BFF7A1879C31222AF7F7B
:0E1D1500F47E0112235078847430F2E408F258
:011D2300229D
:101ACE00E478A4F20804F2E408F27BFF7A1879DCD9
:101ADE001222EC78847430F2E47886F208F2122343
:101AEE00E578A5E2707D7FD07E071223507BFF7ACA
:101AFE001879EA1222EC90033FE060E5E478A6F252
:101B0E0078A6E2FFC3948050D8743F2FF582E43458
:101B1E0003F583E0FFB42B06E278A4F2803EEFB427
:101B2E00591A78A4E260152407FFE433FE78A6E282
:101B3E00B50709E4B506051804F280A578A4E2FFFE
:101B4E00601A2407FFE433FE78A6E2C39FEE64809A
:101B5E00F87480984006E478A4F2808578A6E204B2
:101B6E00F2809D7884E26442602A12232012205F64
:101B7E00121D2412210E121E441221611221B412C2
:101B8E002256120003121BA3121C757FF47E011243
:041B9E00235080CF81
:011BA2002220
:0A0691007899EBF208EAF208E9F2AA
:10069B00E408F208F208F208F278847437F27884EE
:1006AB00E2644260201223E590034B7431F0122276
:1006BB0056120003121BA3121C757884E2B430DEB1
:1006CB00121ACE80D97899E2FB08E2FA08E2F9789F
:1006DB009EE2FE08E2FFF5828E83120429600D78FC
:1006EB009FE22401F218E23400F280D9EF4E70023F
:1006FB00E1CC789EE2FF08E208CFF208EFF27BFF35
:10070B007A1879FD1222AFC3789FE2940A18E2940B
:03071B0000402E6D
:10071E00E2FA08E2FB7C007D0AFFAE0212047AEFD9
:10072E00243078A2F27C007D0AAF03AE0212047A66
:0C073E00ED243078A3F218E2FF1223DD56
:10074A00800B789FE22430F218E23400F208E2FFCC
:10075A001223DD1222A9E47885F2900341E0643E77
:10076A00601D7F327E001223507885E204F2E2D3C4
:10077A00940A504E7BFF7A19790B1222EC80DBC265
:10078A00AFE4789CF208F278A0E2FE08E2FF789CD7
:10079A00E2FC08E2FDC39FEC9E50227899E2FB0836
:1007AA00E2FA08E2F98D828C83120429FF1223DD12
:1007BA00789DE22401F218E23400F280CA1222A9DA
:0207CA00D2AFAC
:0107CC00220A
:102376007887E2647F700218E278867004F208F2C9
:102386002208E2FD2401F218E2FC3400F2743F2D2B
:0A239600F58274033CF583EFF0229A
:072416007B017A0279AB2281
:100046000203FBE86480F8E933E83360110460F0EA
:10005600ED33EC337009E8FCE9FDEAFEEBFF220420
:1000660060DED3EB9FEA9EE99DE8C2E78CF0C2F71B
:1000760095F0400CE8CCF8E9CDF9EACEFAEBCFFBE7
:100086001203C685D0F05804700320D5B3E8047077
:10009600075002B2D502040592D5EC0460F7E4CC11
:1000A600C0E0C398F8603B94186008400DD0E0FBB0
:1000B6000203DDE4FBFAC9FC8028E830E406E4C963
:1000C600FBE4CAFCE830E305E4C9CACBFCE8540704
:1000D6006010F8C3E913F9EA13FAEB13FBEC13FC0F
:1000E600D8F130F52FC3E49CFCEF9BFFEE9AFEEDB2
:1000F60099FDD0E0FBEF4E4D4C701222DB0302045B
:1001060002EC2CFCEF33FFEE33FEED33FDED30E772
:10011600EB0203DDEF2BFFEE3AFEED39FDD0E0FBFF
:1001260050130BBB0003020405ED13FDEE13FEEFA7
:0801360013FFEC13FC0203DDD2
:10013E00EC4D6011E8497017ED33EC3304600DE4BB
:10014E00FCFFFEFD22E933E8330470F80203FB12D4
:10015E0003C658046009E4CC2481500628500902D5
:10016E000405284003020402C0E0EB4A7044B98043
:10017E0006D0E0FB0203F1EF4E701CBD8008EBFFD2
:10018E00EAFEE9FD80EBE98DF0A4FEE5F002022720
:10019E00E9CDF9EAFEEBFFEF89F0A4FCE5F0CE899C
:1001AE00F0A42EFFE435F0CD89F0A42DFEE435F059
:1001BE008067EF4E7005BD80D780C3EF8BF0A4AC87
:1001CE00F0EE8BF0A42CFCE435F0F8EF8AF0A42CC2
:1001DE00E5F038FCE433CB8DF0A42CFCE5F03BF8D5
:1001EE00EE8AF0A42CFCE5F038F8E433CF89F0A4C5
:1001FE002CFCE5F038CF3400CE89F0A42FFFE5F0CB
:10020E003EFEE433C98DF0A42EFEE5F039CD8AF022
:10021E00A42FFFE5F03EFEE43DFD33D0E0FB50079A
:10022E000BBB000F020405EC2CFCEF33FFEE33FE8C
:06023E00ED33FD0203DDBB
:10024400020405EC5D046005E8590470030203FB35
:100254001203C6580460F6EC4860F2EC7004FDFE2C
:10026400FF22C860DB2481C85009C398600250068D
:100274000204029850CAF582E9294B4A7005AB8200
:100284000203F175F0007C1A7880C3EF9BEE9AEDBF
:1002940099400DC3EF9BFFEE9AFEED99FDE842F005
:1002A400DC23ACF0D0E0FFD0E0FED0E0FDAB822058
:1002B400E7101BEB60BAEC2CFCEF33FFEE33FEEDE2
:1002C40033FD0203DDE803F830E705C0F075F00004
:1002D400EF2FFFEE33FEED33FD40B830E7C280AAC6
:1002E40074F8CC6480CCC86480C8F582046043C3CD
:1002F400EB9FF5F0EA9E42F0E99D42F0E89C45F060
:1003040060305018E5825FFFE582F42B5582FB5084
:10031400210ABA001D09B90019088016E5825BFBA1
:10032400E582F42F5582FF50090EBE00050DBD0075
:10033400010CC3EB9FF5F0EA9E42F0E99D42F0E820
:0D0344009C45F06007CC4820E701B3EC2297
:1003510075F020800E75F010800575F0087D007E27
:10036100007F003392D530D50312061AEC334010CA
:10037100EF33FFEE33FEED33FDEC33FCD5F0ED2230
:0E038100E5F0247EA2D513CC92E7CDCEFF226C
:10038F00EDD2E7CD33EC3392D524814006E4FFFE66
:10039F00FDFC22FCE4CFCECDCC24E0501174FF80C5
:1003AF00EDC3CC13CCCD13CDCE13CECF13CF047062
:0703BF00F030D5DE02061A42
:1003C600E9D2E7C933E833F892D5EDD2E7CD33EC7D
:0703D60033FC5002B2D522F6
:1003DD00EC30E7100FBF000C0EBE00080DBD000481
:1003ED000BEB6014A2D5EB13FCED92E7FD2274FF2D
:1003FD00FCFDFEFF22E480F8A2D574FF13FC7D8086
:03040D00E480EF99
:03000000021DB826
:0C1DB800787FE4F6D8FD758120021DFF45
:10041000BB010689828A83E0225002E722BBFE02EA
:09042000E32289828A83E493221D
:10042900BB010CE58229F582E5833AF583E0225088
:1004390006E92582F8E622BBFE06E92582F8E222D2
:0D044900E58229F582E5833AF583E49322EC
:10045600BB010689828A83F0225002F722BBFE0185
:02046600F3227F
:10046800EF8DF0A4A8F0CF8CF0A428CE8DF0A42EA8
:02047800FE2262
:10047A00BC000BBE0029EF8DF084FFADF022E4CC66
:10048A00F875F008EF2FFFEE33FEEC33FCEE9DEC2F
:10049A00984005FCEE9DFE0FD5F0E9E4CEFD22ED75
:1004AA00F8F5F0EE8420D21CFEADF075F008EF2FBF
:1004BA00FFED33FD4007985006D5F0F222C398FDB0
:0504CA000FD5F0EA224D
:1004CF00C2D5EC30E709B2D5E4C39DFDE49CFCEE48
:1004DF0030E715B2D5E4C39FFFE49EFE12047AC342
:1004EF00E49DFDE49CFC800312047A30D507C3E43D
:0604FF009FFFE49EFE22B7
:10050500BB010A89828A83E0F5F0A3E022500687C1
:10051500F009E71922BBFE07E3F5F009E319228983
:0B052500828A83E493F5F074019322B6
:10053000BB0110E58229F582E5833AF583E0F5F009
:10054000A3E0225009E92582F886F008E622BBFEE6
:100550000AE92582F8E2F5F008E222E5832AF5832C
:08056000E993F5F0A3E99322F1
:10056800BB010789828A8302067B500B09C5F027E5
:10057800F7C5F01937F722BBFE0D09F8E325F0F3AC
:10058800C5F019E338F322F889828A837401932528
:08059800F0C5F0F8E4933822ED
:1005A000BB010DC58229C582C5833AC58302067B7E
:1005B0005011C58229F808E5F026F618F5F0E58215
:1005C00036F622BBFE11C58229F808E225F0F5F0C7
:1005D000F218E23582F222F8E58229F582E5832AD3
:0D05E000F58374019325F0F5F0E4933822C3
:1005ED00F8BB0111E58229F582E5833AF583E8F040
:1005FD00E5F0A3F0225009E92582C8F608A6F022FD
:0D060D00BBFE09E92582C8F2E5F008F222E3
:0E061A00C3E49FFFE49EFEE49DFDE49CFC22F1
:0C062800ECF0A3EDF0A3EEF0A3EFF02245
:0C063400ECF208EDF208EEF208EFF22202
:10064000D083D082E493F208740193F20874029389
:09065000F208740393F2740473C0
:101EB6007888EBF208EAF208E9F2E47890F208F2A0
:101EC600788E08E2FF24FFF218E2FE34FFF2EF4EAE
:101ED600603E788BE2FB08E2FA08E2F9120410FF92
:101EE6007888E2FB08E2FA08E2F9789008E2FD2435
:101EF60001F218E2FC3400F28D828C83EF1206594F
:101F0600EF60BD788DE22401F218E23400F280B071
:0B1F16007888E2FB08E2FA08E2F922FA
:1023BC00E4FFFE120410600C0FEF70010E09E970BF
:0523CC00F20A80EF227F
:101DC400020CF2E493A3F8E493A34003F68001F237
:101DD40008DFF48029E493A3F85407240CC8C33320
:101DE400C4540F4420C8834004F456800146F6DFEF
:101DF400E4800B01020408102040809016EFE47E7A
:101E0400019360BCA3FF543F30E509541FFEE493E3
:101E1400A360010ECF54C025E060A840B8E493A3AA
:101E2400FAE493A3F8E493A3C8C582C8CAC583CAD5
:101E3400F0A3C8C582C8CAC583CADFE9DEE780BE8D
:0118130000D4
:10065900F8BB010DE58229F582E5833AF583E8F0D7
:10066900225006E92582C8F622BBFE05E92582C883
:02067900F2226B
:10067B00C5F0F8A3E028F0C5F0F8E582158270020A
:06068B001583E038F022A7
:00000001FF
