:101CA600474F54204120454E440A006D61696E5FDE
:101CB6005F5F5F00006D61696E20737461727420EE
:101CC6006C697374656E6E696E670A0047505320BF
:101CD6004275666665723A000A00474554202F3FF2
:101CE600646174613D2D3120485454502F312E319A
:101CF6000D0A486F73743A7777772E6C756F646F39
:101D06006E677365752E746F700D0A0D0A0D0A00E5
:0F1D16002C0047505253204275666665723A00A2
:101E0B008105008103008201000081040060500005
:101E1B00B8474554202F3F6770733D303030302E1C
:101E2B00303030302C303030302E303030302048A5
:101E3B005454502F312E310D0A486F73743A777703
:101E4B00772E6C756F646F6E677365752E746F701C
:101E5B000D0A0D0A0D0A0000000000000000000032
:081E6B000085076162630A00B3
:1007ED00758920759850758DFD858D8BD28ED2AC07
:0307FD00D2AF2256
:1000260043A210438E08E59A543F4440F59A439AFA
:0B00360010438E10759CF443AF0122B4
:0B23C8008F9BE59A20E1FB539AFD2259
:0622D3007BFF7A1C79DE9E
:1022D90078AAEBF208EAF208E9F278AAE2FB08E246
:1022E900FA08E2F9120410FF60101223D378ACE265
:0B22F9002401F218E23400F280E02221
:10239F007F80900188E4F0A3DFFC9001887402F045
:0623AF00A3F0E47800F247
:0123B5002205
:100003007F80900108E4F0A3DFFC9001087402F004
:0B001300A3F0E47805F27801F208F297
:01001E0022BF
:03002300021A536B
:101A5300C0E0C0F0C083C082C0D075D000C000C059
:0D1A630001C002C003C004C005C006C007DA
:101A7000309864C29878A5E599F27806E26401602E
:101A80000978A5E2FF12235A804D78A5E2FFB47BC6
:101A90000F9001887401F0A304F07800E4F280371D
:101AA000900188E0FEB4010AEFB47D06A37401F052
:101AB0008025EEB4011E7800E204F2C3947F501436
:101AC00078A5E2FF7800E22488F582E43401F5830A
:071AD000EFF0800312239FD9
:101AD700D007D006D005D004D003D002D001D00063
:0B1AE700D0D0D082D083D0F0D0E0320D
:030043000213F2B3
:1013F200C0E0C0F0C083C082C0D075D000C000C0C1
:0D14020001C002C003C004C005C006C00741
:10140F00E59A20E0047F0180027F00EF6002A17661
:10141F007806E264016002A17378A6E59BF2780179
:10142F00E2FE08E2FF4E700F78A6E2B424097801BD
:10143F00E4F20804F2A106EF64014E701078A6E200
:10144F00B4470A7801E4F2087402F2A1067802E2C6
:10145F006402700218E2701078A6E2B4500A7801A4
:10146F00E4F2087403F2A1067801E2FE08E2FF64D9
:10147F00034E701078A6E2B4520A7801E4F20874B1
:10148F0004F28073EF64044E701078A6E2B44D0A34
:10149F007801E4F2087405F2805D7802E264057069
:1014AF000218E2701078A6E2B4430A7801E4F20859
:1014BF007406F280427801E2FE08E2FF64064E7085
:1014CF001E78A6E2B42C187801E4F2087407F278BB
:1014DF00057402F2900109F090010814F08018C30E
:1014EF00EF9401EE9400400F7802E2940718E29413
:1014FF00005004E4F208F27802E26407700218E286
:10150F007062900109E06401605A78A6E2640A7083
:10151F00317804E204F27801E4F208F27804E2642C
:10152F000B70417BFF7A1C79A61222D990010874A7
:10153F0002F0A314F07804E4F27FE87E0312233460
:10154F0080227804E2B40A1C900108E0B4011578F7
:10155F00A6E2FF7805E22408F582E43401F583EF73
:07156F00F0E204F2539AFEC2
:10157600D007D006D005D004D003D002D001D000C9
:0B158600D0D0D082D083D0F0D0E03273
:10069100E47800F27805F208F212000312239F12A7
:1006A10000261207ED7BFF7A1C79B11222D91221A3
:1006B100307BFF7A1C79BB1222D978067401F29043
:1006C1000109E064016002E18F7BFF7A1C79D2129B
:1006D10022D97B017A01790A1222D91222D39001FF
:1006E10015E0644160087BFF7A1C79E0E1899001A3
:1006F10017E09000C2F0900118E09000C3F0900163
:1007010019E09000C4F090011AE09000C5F090014A
:100711001BE09000C6F090011CE09000C7F0900132
:100721001DE09000C8F090011EE09000C9F090011A
:100731001FE09000CAF0A37416F0900123E090002E
:10074100CCF0900124E09000CDF0900125E09000E4
:10075100CEF0900126E09000CFF0900127E09000CC
:10076100D0F0900128E09000D1F0900129E09000B4
:10077100D2F090012AE09000D3F090012BE090009C
:10078100D4F07B017A0079B812159112000390011F
:1007910089E064016002C1C07BFF7A1D79181222D1
:1007A100D97B017A01798A1222D91222D312239F8D
:0207B100C1C0C5
:07080000780DECF208EDF2A7
:10080700781DEBF208EAF208E9F2900005120429D4
:10081700780FF27F02122072781DE2FB08E2FA08D5
:10082700E2F98F82758300120429FF780FE264438F
:10083700600281EEEF6441600281EE7F041220685E
:10084700781DE2FB08E2FA08E2F98F82758300124D
:100857000429FF780DE2FC08E22426F582E43CF542
:1008670083EFF07F06122072781DE2FB08E2FA0898
:10087700E2F98F82758300120429FF780DE2FC08E4
:10088700E22427F582E43CF583EFF07F0312207220
:100897001221F1780DE2FA08E2F5828A831206281E
:1008A7007F051220681221F1780DE2FA08E2FB2495
:1008B70004F582E43AF5831206288B828A83E0FCEA
:1008C700A3E0FDA3E0FEA3E0FF12038F7C007D649D
:1008D7001204CF780DE2FC08E2FD2408F582E43C1F
:1008E700F583EEF0A3EFF0ED2408F582E43CF58301
:1008F700E0FEA3E0FF7C007D64120468AC06AD0750
:10090700EC120356C004A905AA06AB07780DE2FE50
:1009170008E2F5828E83E0FCA3E0FDA3E0FEA3E0FE
:10092700FFD00012004978111206347811E2FC0852
:10093700E2FD08E2FE08E2FF12038F780DE2FC08F1
:10094700E2FD240AF582E43CF583EEF0A3EFF0ED37
:10095700240AF582E43CF583E0FCA3E0FDEC1203F6
:1009670056C004A905AA06AB077811E2FC08E2FD08
:1009770008E2FE08E2FFD000120049E4FBFA7970B2
:10098700784212013E12038F780DE2FC08E2FD2443
:100997000CF582E43CF583EEF0A3EFF0ED2404F5CB
:1009A70082E43CF583E0FCA3E0FDA3E0FEA3E0FFC7
:1009B70012038F7C007D641204CF780DE2FC08E2FD
:1009C700FD240EF582E43CF583EEF0A3EFF0ED2471
:1009D7000EF582E43CF583E0FEA3E0FF7C007D6436
:1009E700120468AC06AD07EC120356C004A905AAA9
:1009F70006AB07780DE2FE08E22404F582E43EF533
:100A070083E0FCA3E0FDA3E0FEA3E0FFD00012001B
:100A17004978151206347815E2FC08E2FD08E2FE73
:100A270008E2FF12038F780DE2FC08E2FD2410F5BF
:100A370082E43CF583EEF0A3EFF0ED2410F582E4B9
:100A47003CF583E0FCA3E0FDEC120356C004A905C6
:100A5700AA06AB077815E2FC08E2FD08E2FE08E209
:100A6700FFD000120049E4FBFA7970784212013E88
:100A770012038F780DE2FC08E22412F582E43CF5BC
:100A870083EEF0A3EFF0781DE2FB08E2FA08E2F943
:100A97007F0712207212219278191206347FCD7EB9
:100AA700CC7DEC7C3F7819E2FB08E2F908E2FA0812
:100AB700E2CBF812013E780DE2FA08E22414F5823F
:100AC700E43AF583120628781DE2FB08E2FA08E209
:100AD700F97F08122072122192780DE2FA08E224B7
:100AE70018F582E43AF583120628781DE2FB08E23E
:100AF700FA08E2F9900007120429FF3395E0FEEFA8
:100B070024D0FFEE34FFFE7C007D0A1204689000BB
:100B170008120429FD3395E0FCED24D0FDEC34FFE9
:100B2700CD2FFFED3EFE780DE2FC08E2242EF58284
:100B3700E43CF583EEF0A3EFF0900009120429FFDF
:100B47003395E0FEEF24D0FFEE34FFFE7C007D0AF4
:100B570012046890000A120429FD3395E0FCED2485
:100B6700D0FDEC34FFCD2FFFED3EFE780DE2FC0803
:100B7700E22430F582E43CF583EEF0A3EFF0900039
:100B87000B120429FF3395E0FEEF24D0FFEE34FF6C
:100B9700FE7C007D0A12046890000C120429FD33C4
:100BA70095E0FCED24D0FDEC34FFCD2FFFED3EFEAC
:100BB700780DE2FC08E22432F582E43CF583EEF09E
:100BC700A3EFF07F091220727810EFF2781DE2FB95
:100BD70008E2FA08E2F97810E2F582758300120458
:100BE70029FF3395E0FEEF24D0FFEE34FFFE7C00B3
:100BF7007D0A1204687810E2F5828C83A312042917
:100C0700FD3395E0FCED24D0FDEC34FFCD2FFFED57
:100C17003EFE780DE2FC08E2242CF582E43CF583E5
:100C2700EEF0A3EFF07810E2F582758300A3A3122C
:100C37000429FF3395E0FEEF24D0FFEE34FFFE7C5E
:100C4700007D0A1204687810E2F5828C83A3A3A3BF
:100C5700120429FD3395E0FCED24D0FDEC34FFCDE3
:100C67002FFFED3EFE780DE2FC08E2242AF582E430
:100C77003CF583EEF0A3EFF07810E22404F582E46C
:100C870033F583120429FF3395E0FEEF24D0FFEEFE
:100C970034FFFE7C007D0A1204687810E22405F513
:100CA70082E433F583120429FD3395E0FCED24D06B
:100CB700FDEC34FFCD2FFFED3ECF24D0CF3407FE20
:100CC700780DE2FC08E2FD2428F582E43CF583EE8A
:100CD700F0A3EFF0ED2428FFE43CFAA9077B01120B
:0A0CE7000CF27E007F0122E4FEFF04
:010CF10022E0
:10180000E47820F208F27824EBF208EAF208E9F230
:101810007824E2FB08E2FA08E2F9120410FF7002F1
:1018200001CD24D0B40A00507D90183325E0500239
:101830000583730147014F01580162016C01760174
:1018400080018A0194019EE47822F208F2805778A0
:1018500022E4F20804F2804E7822E4F2087402F2E4
:1018600080447822E4F2087403F2803A7822E4F2A9
:10187000087404F280307822E4F2087405F28026BD
:101880007822E4F2087406F2801C7822E4F20874EC
:1018900007F280127822E4F2087408F280087822B5
:1018A000E4F2087409F27820E2FE08E2FF7C007D91
:1018B0000A1204687823E22F7921F318E23E19F323
:1018C0007826E22401F218E23400F201107820E2D6
:0418D000FE08E2FF2D
:0118D40022F1
:0A2250007827EBF208EAF208E9F241
:10225A007F011220727834EFF2E214F27827E2F961
:10226A0008E2FA08E27892C9F208EAF208E9F27892
:10227A0034E2FF7895E4F208EFF27BFE7A00792ADD
:10228A00121E777834E2242AF8E4F27BFE7A007987
:04229A002A121800EC
:01229E00221D
:10108A00783512064000000000783DE4F20804F2C8
:10109A0008EBF208EAF208E9F2783FE2FB08E2FA22
:1010AA0008E2F9120410FF7002413024D2B40C0095
:1010BA00400221579010C825E05002058373214E43
:1010CA00215701E001EB01F62101210C2117212210
:1010DA00212D213821437839120640000000008072
:1010EA006C78391206403F80000080617839120618
:1010FA004040000000805678391206404040000007
:10110A00804B7839120640408000008040783912BE
:10111A00064040A000008035783912064040C000E1
:10112A0000802A783912064040E00000801F783992
:10113A00120640410000008014783912064041101E
:10114A0000008009783912064042380000E4FFFEA8
:10115A007D387C427839E2FB08E2F908E2FA08E2D3
:10116A00CBF81202E4700D783DF208F27842F208E8
:10117A0004F24123783EE26401700218E2702FFF04
:10118A00FE7D207C417835E2FB08E2F908E2FA08A4
:10119A00E2CBF812013E7839E2FB08E2F908E2FAFA
:1011AA0008E2CBF812004D7835120634806B783598
:1011BA00E2FB08E2F908E2FA08E2CBF8C000C00153
:1011CA00C002C0037842E2FE08E2FF7C007D0A12F8
:1011DA000468AC06AD07EC120356C004A905AA06BA
:1011EA00AB077839E2FC08E2FD08E2FE08E2FFD02C
:1011FA0000120247D003D002D001D00012004D786D
:10120A00351206347842E2FE08E2FF7C007D0A12BB
:10121A0004687842EEF208EFF27841E22401F2180B
:10122A00E23400F201A37835E2FC08E2FD08E2FEAE
:03123A0008E2FFC8
:01123D00228E
:102192007E00781DE2FB08E2FA08E22FF9EE3AFA35
:0A21A2007844EBF208EAF208E9F2D3
:1021AC007F011220727851EFF2E214F27844E2F9D6
:1021BC0008E2FA08E27892C9F208EAF208E9F27841
:1021CC0051E2FF7895E4F208EFF27BFE7A00794752
:1021DC00121E777851E22447F8E4F27BFE7A0079FC
:0421EC004712108AFC
:0121F00022CC
:10123E00785212064000000000785AE4F20804F2D8
:10124E0008EBF208EAF208E9F2785CE2FB08E2FA4F
:10125E0008E2F9120410FF700261E424D2B40C000B
:10126E004002610B90127C25E050020583736102EF
:10127E00610B4194419F41AA41B541C041CB41D63A
:10128E0041E141EC41F77856120640000000008023
:10129E006C78561206403F80000080617856120628
:1012AE004040000000805678561206404040000034
:1012BE00804B7856120640408000008040785612CF
:1012CE00064040A000008035785612064040C0000F
:1012DE0000802A785612064040E00000801F7856A3
:1012EE00120640410000008014785612064041104C
:1012FE0000008009785612064042380000E4FFFED6
:10130E007D387C427856E2FB08E2F908E2FA08E200
:10131E00CBF81202E4700D785AF208F2785FF208F8
:10132E0004F261D7785BE26401700218E2702FFF5D
:10133E00FE7D207C417852E2FB08E2F908E2FA08D1
:10134E00E2CBF812013E7856E2FB08E2F908E2FA27
:10135E0008E2CBF812004D7852120634806B7852A8
:10136E00E2FB08E2F908E2FA08E2CBF8C000C0019D
:10137E00C002C003785FE2FE08E2FF7C007D0A1225
:10138E000468AC06AD07EC120356C004A905AA0604
:10139E00AB077856E2FC08E2FD08E2FE08E2FFD059
:1013AE0000120247D003D002D001D00012004D78B7
:1013BE0052120634785FE2FE08E2FF7C007D0A12CC
:1013CE000468785FEEF208EFF2785EE22401F2181C
:1013DE00E23400F241577852E2FC08E2FD08E2FEE8
:0313EE0008E2FF13
:0113F10022D9
:1021F1007E00781DE2FB08E2FA08E22FF9EE3AFAD6
:0A2201007861EBF208EAF208E9F256
:10220B007F01122072786EEFF2E214F27861E2F93C
:10221B0008E2FA08E27892C9F208EAF208E9F278E1
:10222B006EE2FF7895E4F208EFF27BFE7A007964B8
:10223B00121E77786EE22464F8E4F27BFE7A007962
:04224B006412123EC9
:01224F00226C
:0A206800781DE2FB08E2FA08E2F935
:0D207200786FEFF208EBF208EAF208E9F2ED
:10207F00E47874F2121FEAE47873F27873E2C39F84
:10208F00EE6480F874809850327870E2FB08E2FAC0
:10209F0008E2F908E2F582758300120429B42C05D1
:1020AF007874E204F2786FE2FD7874E2B5050518F2
:0D20BF00E204FF227873E204F280C07F008B
:0120CC0022F1
:100CF2007875EBF208EAF208E9F27875E2FB08E2AD
:100D0200FA08E2F990000AE475F0011205A09000D9
:100D12000A120530D3943BE5F064809480404B780E
:100D220075E2FB08E2FA08E2F990000AE4F5F01233
:100D320005ED900008E475F0011205A0900008127C
:100D42000530D3943BE5F064809480401D7875E2D1
:100D5200FB08E2FA08E2F9900008E4F5F01205ED6A
:100D6200900006E475F0011205A07875E2FB08E236
:100D7200FA08E2F9900006E475F0081205A0900066
:100D820006120530D39417E5F0648094805002C1B6
:100D9200CF7875E2FB08E2FA08E2F990000674FFE8
:100DA20075F0E81205A0900004E475F0011205A0A8
:100DB200900002120530FFAEF064024E6018EF643C
:100DC200044E6012EF64064E600CEF64094E60063A
:100DD200EF640B4E701D7875E2FB08E2FA08E2F947
:100DE200900004120530D3941EE5F0648094804094
:100DF20031801B7875E2FB08E2FA08E2F990000400
:100E0200120530D3941FE5F0648094804014900062
:100E120004E475F0011205ED900002E475F0011290
:100E220005A07875E2FB08E2FA08E2F9120505FF6F
:100E3200AEF07C007D041204CFED4C70297875E28F
:100E4200FB08E2FA08E2F9900004120530D3941D7F
:100E5200E5F06480948040489000021205306402FC
:100E620045F0703C80277875E2FB08E2FA08E2F967
:100E7200900004120530D3941CE5F0648094804005
:100E82001F900002120530640245F07013900004B6
:100E920075F0011205ED900002E475F0011205A053
:100EA2007875E2FB08E2FA08E2F9900002120530D6
:100EB200D3940CE5F064809480401290000274FF99
:0E0EC20075F0F41205A0E475F0011205682227
:07169D007878EEF208EFF28D
:1016A400E47882F208F2787AEBF208EAF208E9F2D6
:1016B400C3EF940AEE648094805033787AE2FB0896
:1016C40008E2F92401F218E2FA3400F27430120448
:1016D40056787808E22430FF08E2FB0808E2F9248F
:1016E40001F218E2FA3400F2EF120456E175787848
:1016F400E2FE08E2FFD39400EE6480948040657CAF
:10170400007D0A1204CFAB05AA047878E2FE08E251
:10171400FF7C007D0A1204CF7878EEF208EFF2AF76
:1017240003EF2430FF788208E2FD2401F218E2344A
:1017340000F2747D2DF8EFF280B47882E2FE08E2C4
:10174400FFC3EE648094804028747D2FF8E2FF7814
:101754007AE2FB0808E2F92401F218E2FA3400F212
:10176400EF1204567883E224FFF218E234FFF28089
:0F177400C9787AE2FB08E2FA08E2F9E4020456C7
:100ED000323A677072735F617428290A000A004110
:100EE000540D0A00333A677072735F636865636B11
:100EF0005F6363696428290A0041542B43434944D2
:100F00000D0A00343A677072735F636865636B5FE4
:100F10006E657428290A0041542B435245473F0D02
:100F20000A0041542B434744434F4E543D312C005B
:100F3000495000434D4E4554000D0A00353A677044
:100F400072735F737461636B28290A0041542B58D4
:100F50004953503D300D0A00363A677072735F6135
:100F6000706E28290A00373A677072735F696E697C
:100F7000745F70707028290A0041542B5849494306
:100F80003D310D0A00383A677072735F63686563BC
:100F90006B5F70707028290A0041542B58494943EF
:100FA0003F0D0A00393A677072735F636C6F736547
:100FB0005F723028290A0041542B544350434C4F50
:100FC00053453D300D0A0031303A677072735F73DC
:100FD000657475705F6C696E6B28290A0041542B2B
:100FE00054435053455455503D302C3132302E32FD
:100FF000372E3132352E33312C38300D0A00313155
:101000003A677072735F636865636B5F723028293B
:101010000A0041542B49505354415455533D300D0F
:101020000A0041542B584949433D300D0A003132E2
:101030003A677072735F6C696E6B5F66696E697335
:101040006828290A006C696E6B2073756363657389
:1010500073006C696E6B206661696C656400677013
:1010600072735F7328290A0073746174653A000A09
:101070000A0054435052454356002C0041542B540F
:0A108000435053454E443D302C0010
:031E7300818C005F
:042330007FE87E03C1
:10233400E4FDFCC3ED9FEE6480F8EC6480985015D6
:10234400E4FBFA0BBB00010ABA03F8BBDEF50DBDD2
:0523540000010C80DE19
:012359002261
:10238400E2FB0808E2F92401F218E2FA3400F2123E
:032394000410FF33
:082397008F993099FDC29922D3
:0B2304007F221223977BFF7A0F7939AC
:10230F0078B5EBF208EAF208E9F278B5E2FB08E2F9
:10231F00FA08E2F9120410600778B512238480EAF4
:01232F00228B
:0B23D3008F9BE59A30E1FB539AFD223E
:0607B3007B017A0279A629
:1007B90078B5EBF208EAF208E9F278B5E2FB08E26B
:1007C900FA08E2F9120410601A78B5E2FB0808E2A7
:1007D900F92401F218E2FA3400F2120410FF12238C
:0407E900D380D722C0
:1023B600E4FF788DF208F27E809002A6E4F0A3DEB8
:0123C600FC1A
:0123C70022F3
:101FB2007BFF7A0E79D01207B91207B37BFF7A0E34
:101FC20079DD1207B9788BE2B4311C1223B6E478BA
:101FD2008CF27BFF7A0E79DF12230F788B7432F248
:081FE2007FF47E01122334227A
:101D9E007BFF7A0E79E41207B9788BE26432705CBD
:101DAE001207B37BFF7A0E79DD1207B99002A8E015
:101DBE00B44F21A3E0B44B1C1223B6E4788CF27B13
:101DCE00FF7A0E79F912230F788B7433F27FF47E3B
:101DDE00010223341223B67BFF7A0E79DF12230F12
:101DEE00788B7432F27FF47E01122334788CE20405
:0D1DFE00F2E2B40507187431F2E408F22295
:101B87007BFF7A0F79031207B9788BE2643360021F
:101B970081191207B37BFF7A0E79DD1207B990021C
:101BA700C7E0B44F20A3E0B44B1B1223B6E4788CF4
:101BB700F2187434F27BFF7A0F791712230F7FE83C
:101BC7007E030223341223B6788B7436F27BFF7AB6
:101BD7000F792212230F7F221223977BFF7A0F7927
:101BE7003012230F7F221223977F2C1223977F22F5
:101BF7001223977BFF7A0F793312230F12230412D4
:101C07002330788CE204F2E2B40507187431F2E469
:031C170008F222AE
:101EE2007BFF7A0F793C1207B9788BE26434705722
:101EF2001207B37BFF7A0E79DD1207B99002B6E0C2
:101F0200B44F20A3E0B44B1B1223B6E4788CF21832
:101F12007435F27BFF7A0F794C12230F7FE87E0330
:101F22000223341223B67BFF7A0E79F912230F783B
:101F32008B7433F2122330788CE204F2E2B4050798
:081F4200187431F2E408F222E8
:101AF2007BFF7A0F79581207B9788BE2643560025E
:101B020061861207B37BFF7A0E79DD1207B9900264
:101B1200A8E0644F704AA3E0644B70441223B6E419
:101B2200788CF2187436F27BFF7A0F792212230F27
:101B32007F221223977BFF7A0F793012230F7F22A5
:101B42001223977F2C1223977F221223977BFF7AEF
:101B52000F793312230F1223047FE87E030223340A
:101B62001223B6788B7435F27BFF7A0F794C1223ED
:101B72000F122330788CE204F2E2B40507187431B4
:051B8200F2E408F2226C
:101F4A007BFF7A0F79661207B9788BE2643670578D
:101F5A001207B37BFF7A0E79DD1207B99002A8E067
:101F6A00B44F20A3E0B44B1B1223B6E4788CF218CA
:101F7A007437F27BFF7A0F797912230F7FE87E0399
:101F8A000223341223B6788B7434F27BFF7A0F79EA
:101F9A001712230F122330788CE204F2E2B40507F9
:081FAA00187431F2E408F22280
:102000007BFF7A0F79851207B9788BE264377057B6
:102010001207B37BFF7A0E79DD1207B99002A8E0B0
:10202000B44F20A3E0B44B1B1223B6E4788CF21813
:102030007438F27BFF7A0F799912230F7FE87E03C1
:102040000223341223B6788B7437F27BFF7A0F7930
:102050007912230F122330788CE204F2E2B40507E0
:08206000187431F2E408F222C9
:1020CD007BFF7A0F79A41207B9788BE264387052CE
:1020DD001207B37BFF7A0E79DD1207B99002B2E0D9
:1020ED00B4311B1223B6E4788CF2187439F27BFFED
:1020FD007A0F79B712230F7FE87E03022334122360
:10210D00B6788B7438F27BFF7A0F799912230F1200
:10211D002330788CE204F2E2B40507187431F2E44E
:03212D0008F22293
:10229F007BFF7A0F79C71207B9788BE26439702305
:1022AF001207B37BFF7A0E79DD1207B91223B6E45A
:1022BF00788CF218743AF27BFF7A0F79DD12230FC4
:0422CF001223302284
:101D25007BFF7A0F79FE1207B9788BE2643A706807
:101D35001207B37BFF7A0E79DD1207B99002A8E08E
:101D4500B44F20A3E0B44B1BE4788CF218743BF23B
:101D55001223B67BFF7A10791212230F7FE87E03D8
:101D65000223341223B6788B7439F27BFF7A0F790C
:101D7500B712230F122330788CE204F2E2B405186F
:101D85007BFF7A10792212230F7FF47E0112233410
:091D9500788B7431F2E408F222AB
:101783007BFF7A10792E1207B9788BE2643B706B7A
:101793001207B37BFF7A0E79DD1207B99002B4E02A
:1017A300B44F1AA3E0B44B151223B67BFF7A10791A
:1017B300451207B9E4788CF218743CF2221223B66E
:1017C3007BFF7A1079521207B9788B743AF27BFF58
:1017D3007A10791212230F122330788CE204F2E28A
:1017E300B405187BFF7A10792212230F7FF47E0150
:0C17F300122334788B7431F2E408F222E7
:102130007BFF7A10795E1207B9788B7431F2122323
:10214000B6E4788DF208F2788BE2643C6043121FAB
:10215000B2121D9E121B87121EE2121AF2121F4AA1
:102160001220001220CD12229F121D251217837FEC
:10217000D07E071223347BFF7A1079681207B97872
:102180008BE2FF1223D37BFF7A10796F1207B9809D
:02219000B62275
:1018D500E47887F208F208F208F212041070022187
:1018E50099789C74FFF2087410F2087472F2121958
:1018F5009A7884EBF208EAF208E9F27884E2FB08C8
:10190500E2FA08E24A4B70022199789C74FFF208CA
:101915007410F208747AF27884E2FB08E2FA08E2BD
:10192500F912199A7884EBF208EAF208E9F2788458
:10193500E2FB08E2FA08E24A4B6059E22401F21898
:10194500E23400F2789C74FFF2087410F208747A9D
:10195500F27884E2FB08E2FA08E2F912199A78842F
:10196500EBF208EAF208E9F27884E2FB08E2FA0809
:10197500E24A4B601FE22401F218E23400F2788457
:10198500E2FB08E2FA08E2F9120410600778841213
:04199500238480EA3D
:01199900222B
:0A15910078AAEBF208EAF208E9F28A
:10159B00E408F208F208F208F2788BE2643C601B74
:1015AB0012229F121D25121783788BE2B43103127E
:1015BB0021307FD07E0712233480DE78AAE2FB082D
:1015CB00E2FA08E2F978AFE2FE08E2FFF5828E83D9
:1015DB00120429600D78B0E22401F218E23400F213
:1015EB0080D9EF4E7002C19C78AFE2FF08E208CFC2
:1015FB00F208EFF27BFF7A10797C12230FC378B0DD
:09160B00E2940A18E29400402E5A
:10161400E2FA08E2FB7C007D0AFFAE0212047AEFD4
:10162400243078B3F27C007D0AAF03AE0212047A50
:0C163400ED243078B4F218E2FF12239786
:10164000800B78B0E22430F218E23400F208E2FFB6
:101650001223971223097F327E00122334E478ADDF
:10166000F208F278B1E2FE08E2FF78ADE2FC08E2AF
:10167000FDC39FEC9E502278AAE2FB08E2FA08E242
:10168000F98D828C83120429FF12239778AEE2240D
:0C16900001F218E23400F280CA122309B3
:01169C00222B
:10235A00788EE2647F700218E2788D7004F208F2D7
:10236A002208E2FD2401F218E2FC3400F274A62DE0
:0A237A00F58274023CF583EFF022B7
:100046000203FBE86480F8E933E83360110460F0EA
:10005600ED33EC337009E8FCE9FDEAFEEBFF220420
:1000660060DED3EB9FEA9EE99DE8C2E78CF0C2F71B
:1000760095F0400CE8CCF8E9CDF9EACEFAEBCFFBE7
:100086001203C685D0F05804700320D5B3E8047077
:10009600075002B2D502040592D5EC0460F7E4CC11
:1000A600C0E0C398F8603B94186008400DD0E0FBB0
:1000B6000203DDE4FBFAC9FC8028E830E406E4C963
:1000C600FBE4CAFCE830E305E4C9CACBFCE8540704
:1000D6006010F8C3E913F9EA13FAEB13FBEC13FC0F
:1000E600D8F130F52FC3E49CFCEF9BFFEE9AFEEDB2
:1000F60099FDD0E0FBEF4E4D4C701222DB0302045B
:1001060002EC2CFCEF33FFEE33FEED33FDED30E772
:10011600EB0203DDEF2BFFEE3AFEED39FDD0E0FBFF
:1001260050130BBB0003020405ED13FDEE13FEEFA7
:0801360013FFEC13FC0203DDD2
:10013E00EC4D6011E8497017ED33EC3304600DE4BB
:10014E00FCFFFEFD22E933E8330470F80203FB12D4
:10015E0003C658046009E4CC2481500628500902D5
:10016E000405284003020402C0E0EB4A7044B98043
:10017E0006D0E0FB0203F1EF4E701CBD8008EBFFD2
:10018E00EAFEE9FD80EBE98DF0A4FEE5F002022720
:10019E00E9CDF9EAFEEBFFEF89F0A4FCE5F0CE899C
:1001AE00F0A42EFFE435F0CD89F0A42DFEE435F059
:1001BE008067EF4E7005BD80D780C3EF8BF0A4AC87
:1001CE00F0EE8BF0A42CFCE435F0F8EF8AF0A42CC2
:1001DE00E5F038FCE433CB8DF0A42CFCE5F03BF8D5
:1001EE00EE8AF0A42CFCE5F038F8E433CF89F0A4C5
:1001FE002CFCE5F038CF3400CE89F0A42FFFE5F0CB
:10020E003EFEE433C98DF0A42EFEE5F039CD8AF022
:10021E00A42FFFE5F03EFEE43DFD33D0E0FB50079A
:10022E000BBB000F020405EC2CFCEF33FFEE33FE8C
:06023E00ED33FD0203DDBB
:10024400020405EC5D046005E8590470030203FB35
:100254001203C6580460F6EC4860F2EC7004FDFE2C
:10026400FF22C860DB2481C85009C398600250068D
:100274000204029850CAF582E9294B4A7005AB8200
:100284000203F175F0007C1A7880C3EF9BEE9AEDBF
:1002940099400DC3EF9BFFEE9AFEED99FDE842F005
:1002A400DC23ACF0D0E0FFD0E0FED0E0FDAB822058
:1002B400E7101BEB60BAEC2CFCEF33FFEE33FEEDE2
:1002C40033FD0203DDE803F830E705C0F075F00004
:1002D400EF2FFFEE33FEED33FD40B830E7C280AAC6
:1002E40074F8CC6480CCC86480C8F582046043C3CD
:1002F400EB9FF5F0EA9E42F0E99D42F0E89C45F060
:1003040060305018E5825FFFE582F42B5582FB5084
:10031400210ABA001D09B90019088016E5825BFBA1
:10032400E582F42F5582FF50090EBE00050DBD0075
:10033400010CC3EB9FF5F0EA9E42F0E99D42F0E820
:0D0344009C45F06007CC4820E701B3EC2297
:1003510075F020800E75F010800575F0087D007E27
:10036100007F003392D530D50312061AEC334010CA
:10037100EF33FFEE33FEED33FDEC33FCD5F0ED2230
:0E038100E5F0247EA2D513CC92E7CDCEFF226C
:10038F00EDD2E7CD33EC3392D524814006E4FFFE66
:10039F00FDFC22FCE4CFCECDCC24E0501174FF80C5
:1003AF00EDC3CC13CCCD13CDCE13CECF13CF047062
:0703BF00F030D5DE02061A42
:1003C600E9D2E7C933E833F892D5EDD2E7CD33EC7D
:0703D60033FC5002B2D522F6
:1003DD00EC30E7100FBF000C0EBE00080DBD000481
:1003ED000BEB6014A2D5EB13FCED92E7FD2274FF2D
:1003FD00FCFDFEFF22E480F8A2D574FF13FC7D8086
:03040D00E480EF99
:03000000021C1AC5
:0C1C1A00787FE4F6D8FD758120021C6183
:10041000BB010689828A83E0225002E722BBFE02EA
:09042000E32289828A83E493221D
:10042900BB010CE58229F582E5833AF583E0225088
:1004390006E92582F8E622BBFE06E92582F8E222D2
:0D044900E58229F582E5833AF583E49322EC
:10045600BB010689828A83F0225002F722BBFE0185
:02046600F3227F
:10046800EF8DF0A4A8F0CF8CF0A428CE8DF0A42EA8
:02047800FE2262
:10047A00BC000BBE0029EF8DF084FFADF022E4CC66
:10048A00F875F008EF2FFFEE33FEEC33FCEE9DEC2F
:10049A00984005FCEE9DFE0FD5F0E9E4CEFD22ED75
:1004AA00F8F5F0EE8420D21CFEADF075F008EF2FBF
:1004BA00FFED33FD4007985006D5F0F222C398FDB0
:0504CA000FD5F0EA224D
:1004CF00C2D5EC30E709B2D5E4C39DFDE49CFCEE48
:1004DF0030E715B2D5E4C39FFFE49EFE12047AC342
:1004EF00E49DFDE49CFC800312047A30D507C3E43D
:0604FF009FFFE49EFE22B7
:10050500BB010A89828A83E0F5F0A3E022500687C1
:10051500F009E71922BBFE07E3F5F009E319228983
:0B052500828A83E493F5F074019322B6
:10053000BB0110E58229F582E5833AF583E0F5F009
:10054000A3E0225009E92582F886F008E622BBFEE6
:100550000AE92582F8E2F5F008E222E5832AF5832C
:08056000E993F5F0A3E99322F1
:10056800BB010789828A8302067B500B09C5F027E5
:10057800F7C5F01937F722BBFE0D09F8E325F0F3AC
:10058800C5F019E338F322F889828A837401932528
:08059800F0C5F0F8E4933822ED
:1005A000BB010DC58229C582C5833AC58302067B7E
:1005B0005011C58229F808E5F026F618F5F0E58215
:1005C00036F622BBFE11C58229F808E225F0F5F0C7
:1005D000F218E23582F222F8E58229F582E5832AD3
:0D05E000F58374019325F0F5F0E4933822C3
:1005ED00F8BB0111E58229F582E5833AF583E8F040
:1005FD00E5F0A3F0225009E92582C8F608A6F022FD
:0D060D00BBFE09E92582C8F2E5F008F222E3
:0E061A00C3E49FFFE49EFEE49DFDE49CFC22F1
:0C062800ECF0A3EDF0A3EEF0A3EFF02245
:0C063400ECF208EDF208EEF208EFF22202
:10064000D083D082E493F208740193F20874029389
:09065000F208740393F2740473C0
:101E7700788FEBF208EAF208E9F2E47897F208F2D1
:101E8700789508E2FF24FFF218E2FE34FFF2EF4EE6
:101E9700603E7892E2FB08E2FA08E2F9120410FFCA
:101EA700788FE2FB08E2FA08E2F9789708E2FD2466
:101EB70001F218E2FC3400F28D828C83EF1206598E
:101EC700EF60BD7894E22401F218E23400F280B0AA
:0B1ED700788FE2FB08E2FA08E2F92233
:101FEA00E4FFFE120410600C0FEF70010E09E97095
:051FFA00F20A80EF2255
:10199A007899EBF208EAF208E9F208E2FB08E2FABF
:1019AA0008E2F91204107003021A417899E2FB085E
:1019BA00E2FA08E2F91204107003021A4C08E2F97A
:1019CA0008E2FA08E208C9F208EAF208E9F27899A4
:1019DA00E2F908E2FA08E278A2C9F208EAF208E9AA
:1019EA00F2789FE2FB08E2FA08E2F9120410FF60BB
:1019FA002708E2FB08E2FA08E2F91204106F7018ED
:101A0A0078A1E22401F218E23400F278A4E2240177
:101A1A00F218E23400F280C9789FE2FB08E2FA0881
:101A2A00E2F91204107002800E789BE22401F21887
:101A3A00E23400F20219B57899E2FB08E2FA08E208
:091A4A00F9227B007A00790022E8
:101C2600020691E493A3F8E493A34003F68001F23D
:101C360008DFF48029E493A3F85407240CC8C333BF
:101C4600C4540F4420C8834004F456800146F6DF8E
:101C5600E4800B0102040810204080901E0BE47EF5
:101C6600019360BCA3FF543F30E509541FFEE49383
:101C7600A360010ECF54C025E060A840B8E493A34A
:101C8600FAE493A3F8E493A3C8C582C8CAC583CA75
:101C9600F0A3C8C582C8CAC583CADFE9DEE780BE2D
:011E7600006B
:10065900F8BB010DE58229F582E5833AF583E8F0D7
:10066900225006E92582C8F622BBFE05E92582C883
:02067900F2226B
:10067B00C5F0F8A3E028F0C5F0F8E582158270020A
:06068B001583E038F022A7
:00000001FF
