:1017B9006D61696E5F5F5F5F0A006D61696E2073BD
:1017C90074617274206C697374656E6E696E670AF0
:1017D9000053656E642047505320427566666572F2
:1017E9003A000A00476F74204750525320427566E9
:0517F9006665723A0074
:100ED000810500810300820100008104006080011F
:100EE0003B474554202F3F646174613D3126636365
:100EF00069643D3030303030303030303030303078
:100F000030303030303030266C6F6E3D3030303025
:100F10002E30303030266C61743D303030302E3021
:100F200030303020485454502F312E310D0A486F44
:100F300073743A7777772E6C756F646F6E6773652D
:100F4000752E746F700D0A0D0A0D0A000000000066
:100F50000000000000000000000000000000000091
:100F600000608000BB474554202F3F646174613DA1
:100F70002D315F636369643D303030303030303064
:100F80003030303030303030303030302048545411
:100F9000502F312E310D0A486F73743A7777772EC0
:100FA0006C756F646F6E677365752E746F700D0A64
:100FB0000D0A0D0A00000000000000000000000003
:100FC0000000000000000000000000000000000021
:100FD0000000000000000000000000000000000011
:0C0FE000000000000085076162630A0049
:1024DA00758920759850758DFD858D8BD28ED2ACFD
:0324EA00D2AF224C
:1000260043A210438E08E59A543F4440F59A439AFA
:0B00360010438E10759CF443AF0122B4
:0B0FF0008F9BE59A20E1FB539AFD2245
:0623F9007BFF7A1779EB6F
:1023FF0078AAEBF208EAF208E9F278AAE2FB08E21F
:10240F00FA08E2F9120410FF60101224FF78ACE210
:0B241F002401F218E23400F280E022F9
:1007E9007F8090023BE4F0A3DFFC90023B7402F0AF
:0607F900A3F0E47800F219
:0107FF0022D7
:100003007F809001BBE4F0A3DFFC9001BB7402F09E
:0B001300A3F0E47805F27801F208F297
:01001E0022BF
:03002300021CB408
:101CB400C0E0C0F0C083C082C0D075D000C000C0F6
:0D1CC40001C002C003C004C005C006C00777
:101CD100309869C29878A5E599F27806E2640160C6
:101CE1000978A5E2FF122480805278A5E2FFB47B37
:101CF1000F90023B7401F0A304F0780014F2803CD1
:101D010090023BE0FEB4010FEFB47D0BA37401F030
:101D110090023B04F08025EEB4011E7800E204F24B
:101D2100C3947F501478A5E2FF7800E2243BF5824A
:0C1D3100E43402F583EFF080031207E9B0
:101D3D00D007D006D005D004D003D002D001D000FA
:0B1D4D00D0D0D082D083D0F0D0E032A4
:0300430002151A89
:10151A00C0E0C0F0C083C082C0D075D000C000C097
:0D152A0001C002C003C004C005C006C00718
:10153700E59A20E0047F0180027F00EF6002C192FC
:101547007806E264016002C18F78A6E59BF2780114
:10155700E2FE08E2FF4E700F78A6E2B42409780194
:10156700E4F20804F2C12EEF64014E701078A6E28F
:10157700B4470A7801E4F2087402F2C12E7802E255
:101587006402700218E2701078A6E2B4500A78017B
:10159700E4F2087403F2C12E7801E2FE08E2FF6468
:1015A700034E701078A6E2B4520A7801E4F2087488
:1015B70004F28073EF64044E701078A6E2B44D0A0B
:1015C7007801E4F2087405F2805D7802E264057040
:1015D7000218E2701078A6E2B4430A7801E4F20830
:1015E7007406F280427801E2FE08E2FF64064E705C
:1015F7001E78A6E2B42C187801E4F2087407F27892
:10160700057402F29001BCF09001BB14F08018C37E
:10161700EF9401EE9400400F7802E2940718E294E9
:10162700005004E4F208F27802E26407700218E25C
:1016370070569001BCE06401604E78A6E2B40A26B9
:101647007804E204F27801E4F208F27804E2640B29
:1016570070369001BB7402F0A314F0E4F27FE87EC9
:101667000312245A80227804E2B40A1C9001BBE0DA
:10167700B4011578A6E2FF7805E224BBF582E434CD
:0B16870001F583EFF0E204F2539AFE3D
:10169200D007D006D005D004D003D002D001D000AC
:0B16A200D0D0D082D083D0F0D0E03256
:10069100E4FF12250A78A7EBF208EAF208E9F2E48E
:1006A1007800F27805F208F21200031207E912004D
:1006B100261224DA7BFF7A1779B91223FF1219BBAC
:1006C1007BFF7A1779C31223FFE4FF78A7E2FB08C7
:1006D100E2FA08E2F98F82758300120429FE744D53
:1006E1002FF582E43401F583EEF08F8275830012D9
:1006F1000429FE74CE2FF582E43400F583EEF00F69
:10070100EFB414C778067401F29001BCE064016093
:1007110002E1C57BFF7A1779DA1223FF7B017A01A7
:1007210079BD1223FF1223F99001C8E064416008EA
:100731007B017A0079BBE1BF9001CAE0900166F0CC
:100741009001CBE0900167F09001CCE0900168F05E
:100751009001CDE0900169F09001CFE090016BF044
:100761009001D0E090016CF09001D1E090016DF02A
:100771009001D2E090016EF09001D6E0900174F00A
:100781009001D7E0900175F09001D8E0900176F0EA
:100791009001D9E0900177F09001DBE0900179F0D0
:1007A1009001DCE090017AF09001DDE090017BF0B6
:1007B1009001DEE090017CF07B017A01793B121619
:1007C100AD12000390023CE064016002E10A7BFF8C
:1007D1007A1779ED1223FF7B017A02793D1223FF0B
:0807E1001223F91207E9E10AF5
:07080000780DECF208EDF2A7
:10080700781DEBF208EAF208E9F2900005120429D4
:10081700780FF27F02122188781DE2FB08E2FA08BE
:10082700E2F98F82758300120429FF780FE264438F
:10083700600281EEEF6441600281EE7F0412217E47
:10084700781DE2FB08E2FA08E2F98F82758300124D
:100857000429FF780DE2FC08E22426F582E43CF542
:1008670083EFF07F06122188781DE2FB08E2FA0881
:10087700E2F98F82758300120429FF780DE2FC08E4
:10088700E22427F582E43CF583EFF07F0312218809
:100897001222A5780DE2FA08E2F5828A8312062869
:1008A7007F0512217E1222A5780DE2FA08E2FB24C9
:1008B70004F582E43AF5831206288B828A83E0FCEA
:1008C700A3E0FDA3E0FEA3E0FF12038F7C007D649D
:1008D7001204CF780DE2FC08E2FD2408F582E43C1F
:1008E700F583EEF0A3EFF0ED2408F582E43CF58301
:1008F700E0FEA3E0FF7C007D64120468AC06AD0750
:10090700EC120356C004A905AA06AB07780DE2FE50
:1009170008E2F5828E83E0FCA3E0FDA3E0FEA3E0FE
:10092700FFD00012004978111206347811E2FC0852
:10093700E2FD08E2FE08E2FF12038F780DE2FC08F1
:10094700E2FD240AF582E43CF583EEF0A3EFF0ED37
:10095700240AF582E43CF583E0FCA3E0FDEC1203F6
:1009670056C004A905AA06AB077811E2FC08E2FD08
:1009770008E2FE08E2FFD000120049E4FBFA7970B2
:10098700784212013E12038F780DE2FC08E2FD2443
:100997000CF582E43CF583EEF0A3EFF0ED2404F5CB
:1009A70082E43CF583E0FCA3E0FDA3E0FEA3E0FFC7
:1009B70012038F7C007D641204CF780DE2FC08E2FD
:1009C700FD240EF582E43CF583EEF0A3EFF0ED2471
:1009D7000EF582E43CF583E0FEA3E0FF7C007D6436
:1009E700120468AC06AD07EC120356C004A905AAA9
:1009F70006AB07780DE2FE08E22404F582E43EF533
:100A070083E0FCA3E0FDA3E0FEA3E0FFD00012001B
:100A17004978151206347815E2FC08E2FD08E2FE73
:100A270008E2FF12038F780DE2FC08E2FD2410F5BF
:100A370082E43CF583EEF0A3EFF0ED2410F582E4B9
:100A47003CF583E0FCA3E0FDEC120356C004A905C6
:100A5700AA06AB077815E2FC08E2FD08E2FE08E209
:100A6700FFD000120049E4FBFA7970784212013E88
:100A770012038F780DE2FC08E22412F582E43CF5BC
:100A870083EEF0A3EFF0781DE2FB08E2FA08E2F943
:100A97007F0712218812224678191206347FCD7EED
:100AA700CC7DEC7C3F7819E2FB08E2F908E2FA0812
:100AB700E2CBF812013E780DE2FA08E22414F5823F
:100AC700E43AF583120628781DE2FB08E2FA08E209
:100AD700F97F08122188122246780DE2FA08E224EB
:100AE70018F582E43AF583120628781DE2FB08E23E
:100AF700FA08E2F9900007120429FF3395E0FEEFA8
:100B070024D0FFEE34FFFE7C007D0A1204689000BB
:100B170008120429FD3395E0FCED24D0FDEC34FFE9
:100B2700CD2FFFED3EFE780DE2FC08E2242EF58284
:100B3700E43CF583EEF0A3EFF0900009120429FFDF
:100B47003395E0FEEF24D0FFEE34FFFE7C007D0AF4
:100B570012046890000A120429FD3395E0FCED2485
:100B6700D0FDEC34FFCD2FFFED3EFE780DE2FC0803
:100B7700E22430F582E43CF583EEF0A3EFF0900039
:100B87000B120429FF3395E0FEEF24D0FFEE34FF6C
:100B9700FE7C007D0A12046890000C120429FD33C4
:100BA70095E0FCED24D0FDEC34FFCD2FFFED3EFEAC
:100BB700780DE2FC08E22432F582E43CF583EEF09E
:100BC700A3EFF07F091221887810EFF2781DE2FB7E
:100BD70008E2FA08E2F97810E2F582758300120458
:100BE70029FF3395E0FEEF24D0FFEE34FFFE7C00B3
:100BF7007D0A1204687810E2F5828C83A312042917
:100C0700FD3395E0FCED24D0FDEC34FFCD2FFFED57
:100C17003EFE780DE2FC08E2242CF582E43CF583E5
:100C2700EEF0A3EFF07810E2F582758300A3A3122C
:100C37000429FF3395E0FEEF24D0FFEE34FFFE7C5E
:100C4700007D0A1204687810E2F5828C83A3A3A3BF
:100C5700120429FD3395E0FCED24D0FDEC34FFCDE3
:100C67002FFFED3EFE780DE2FC08E2242AF582E430
:100C77003CF583EEF0A3EFF07810E22404F582E46C
:100C870033F583120429FF3395E0FEEF24D0FFEEFE
:100C970034FFFE7C007D0A1204687810E22405F513
:100CA70082E433F583120429FD3395E0FCED24D06B
:100CB700FDEC34FFCD2FFFED3ECF24D0CF3407FE20
:100CC700780DE2FC08E2FD2428F582E43CF583EE8A
:100CD700F0A3EFF0ED2428FFE43CFAA9077B01120B
:0A0CE7000CF27E007F0122E4FEFF04
:010CF10022E0
:1018E600E47820F208F27824EBF208EAF208E9F24A
:1018F6007824E2FB08E2FA08E2F9120410FF70020B
:1019060021B324D0B40A00507D90191925E0500265
:10191600058373212D2135213E21482152215C2149
:10192600662170217A2184E47822F208F2805778C1
:1019360022E4F20804F2804E7822E4F2087402F2FD
:1019460080447822E4F2087403F2803A7822E4F2C2
:10195600087404F280307822E4F2087405F28026D6
:101966007822E4F2087406F2801C7822E4F2087405
:1019760007F280127822E4F2087408F280087822CE
:10198600E4F2087409F27820E2FE08E2FF7C007DAA
:101996000A1204687823E22F7921F318E23E19F33C
:1019A6007826E22401F218E23400F201F67820E209
:0419B600FE08E2FF46
:0119BA00220A
:0A2304007827EBF208EAF208E9F28C
:10230E007F011221887834EFF2E214F27827E2F995
:10231E0008E2FA08E27892C9F208EAF208E9F278DD
:10232E0034E2FF7895E4F208EFF27BFE7A00792A28
:10233E00121FDB7834E2242AF8E4F27BFE7A00796D
:04234E002A1218E651
:012352002268
:10100000783512064000000000783DE4F20804F252
:1010100008EBF208EAF208E9F2783FE2FB08E2FAAC
:1010200008E2F9120410FF700221A624D2B40C00C9
:10103000400201CD90103E25E0500205837301C4AB
:1010400001CD01560161016C01770182018D01988A
:1010500001A301AE01B978391206400000000080FA
:101060006C78391206403F800000806178391206A2
:101070004040000000805678391206404040000091
:10108000804B783912064040800000804078391249
:10109000064040A000008035783912064040C0006C
:1010A00000802A783912064040E00000801F78391D
:1010B00012064041000000801478391206404110A9
:1010C00000008009783912064042380000E4FFFE33
:1010D0007D387C427839E2FB08E2F908E2FA08E25E
:1010E000CBF81202E4700D783DF208F27842F20873
:1010F00004F22199783EE26401700218E2702FFF39
:10110000FE7D207C417835E2FB08E2F908E2FA082E
:10111000E2CBF812013E7839E2FB08E2F908E2FA84
:1011200008E2CBF812004D7835120634806B783522
:10113000E2FB08E2F908E2FA08E2CBF8C000C001DD
:10114000C002C0037842E2FE08E2FF7C007D0A1282
:101150000468AC06AD07EC120356C004A905AA0644
:10116000AB077839E2FC08E2FD08E2FE08E2FFD0B6
:1011700000120247D003D002D001D00012004D78F7
:10118000351206347842E2FE08E2FF7C007D0A1246
:1011900004687842EEF208EFF27841E22401F21896
:1011A000E23400F201197835E2FC08E2FD08E2FEC3
:0311B00008E2FF53
:0111B3002219
:102246007E00781DE2FB08E2FA08E22FF9EE3AFA80
:0A2256007844EBF208EAF208E9F21E
:102260007F011221887851EFF2E214F27844E2F90A
:1022700008E2FA08E27892C9F208EAF208E9F2788C
:1022800051E2FF7895E4F208EFF27BFE7A0079479D
:10229000121FDB7851E22447F8E4F27BFE7A0079E2
:0422A00047121000D1
:0122A4002217
:1011B400785212064000000000785AE4F20804F263
:1011C40008EBF208EAF208E9F2785CE2FB08E2FADA
:1011D40008E2F9120410FF7002615A24D2B40C0020
:1011E400400241819011F225E05002058373417859
:1011F4004181410A41154120412B41364141414C35
:1012040041574162416D785612064000000000804B
:101214006C78561206403F800000806178561206B2
:1012240040400000008056785612064040400000BE
:10123400804B785612064040800000804078561259
:10124400064040A000008035785612064040C00099
:1012540000802A785612064040E00000801F78562D
:1012640012064041000000801478561206404110D6
:1012740000008009785612064042380000E4FFFE60
:101284007D387C427856E2FB08E2F908E2FA08E28B
:10129400CBF81202E4700D785AF208F2785FF20883
:1012A40004F2614D785BE26401700218E2702FFF72
:1012B400FE7D207C417852E2FB08E2F908E2FA085C
:1012C400E2CBF812013E7856E2FB08E2F908E2FAB2
:1012D40008E2CBF812004D7852120634806B785233
:1012E400E2FB08E2F908E2FA08E2CBF8C000C00128
:1012F400C002C003785FE2FE08E2FF7C007D0A12B0
:101304000468AC06AD07EC120356C004A905AA068E
:10131400AB077856E2FC08E2FD08E2FE08E2FFD0E3
:1013240000120247D003D002D001D00012004D7841
:1013340052120634785FE2FE08E2FF7C007D0A1256
:101344000468785FEEF208EFF2785EE22401F218A6
:10135400E23400F221CD7852E2FC08E2FD08E2FE1C
:0313640008E2FF9D
:011367002263
:1022A5007E00781DE2FB08E2FA08E22FF9EE3AFA21
:0A22B5007861EBF208EAF208E9F2A2
:1022BF007F01122188786EEFF2E214F27861E2F971
:1022CF0008E2FA08E27892C9F208EAF208E9F2782D
:1022DF006EE2FF7895E4F208EFF27BFE7A00796404
:1022EF00121FDB786EE22464F8E4F27BFE7A007949
:0422FF00641211B4A0
:0123030022B7
:0A217E00781DE2FB08E2FA08E2F91E
:0D218800786FEFF208EBF208EAF208E9F2D6
:10219500E47874F21224C5E47873F27873E2C39F8D
:1021A500EE6480F874809850327870E2FB08E2FAA9
:1021B50008E2F908E2F582758300120429B42C05BA
:1021C5007874E204F2786FE2FD7874E2B5050518DB
:0D21D500E204FF227873E204F280C07F0074
:0121E20022DA
:100CF2007875EBF208EAF208E9F27875E2FB08E2AD
:100D0200FA08E2F990000AE475F0011205A09000D9
:100D12000A120530D3943BE5F064809480404B780E
:100D220075E2FB08E2FA08E2F990000AE4F5F01233
:100D320005ED900008E475F0011205A0900008127C
:100D42000530D3943BE5F064809480401D7875E2D1
:100D5200FB08E2FA08E2F9900008E4F5F01205ED6A
:100D6200900006E475F0011205A07875E2FB08E236
:100D7200FA08E2F9900006E475F0081205A0900066
:100D820006120530D39417E5F0648094805002C1B6
:100D9200CF7875E2FB08E2FA08E2F990000674FFE8
:100DA20075F0E81205A0900004E475F0011205A0A8
:100DB200900002120530FFAEF064024E6018EF643C
:100DC200044E6012EF64064E600CEF64094E60063A
:100DD200EF640B4E701D7875E2FB08E2FA08E2F947
:100DE200900004120530D3941EE5F0648094804094
:100DF20031801B7875E2FB08E2FA08E2F990000400
:100E0200120530D3941FE5F0648094804014900062
:100E120004E475F0011205ED900002E475F0011290
:100E220005A07875E2FB08E2FA08E2F9120505FF6F
:100E3200AEF07C007D041204CFED4C70297875E28F
:100E4200FB08E2FA08E2F9900004120530D3941D7F
:100E5200E5F06480948040489000021205306402FC
:100E620045F0703C80277875E2FB08E2FA08E2F967
:100E7200900004120530D3941CE5F0648094804005
:100E82001F900002120530640245F07013900004B6
:100E920075F0011205ED900002E475F0011205A053
:100EA2007875E2FB08E2FA08E2F9900002120530D6
:100EB200D3940CE5F064809480401290000274FF99
:0E0EC20075F0F41205A0E475F0011205682227
:071800007878EEF208EFF228
:10180700E47882F208F2787AEBF208EAF208E9F271
:10181700C3EF940AEE648094805033787AE2FB0831
:1018270008E2F92401F218E2FA3400F274301204E3
:1018370056787808E22430FF08E2FB0808E2F9242A
:1018470001F218E2FA3400F2EF12045601D8787860
:10185700E2FE08E2FFD39400EE6480948040657C4A
:10186700007D0A1204CFAB05AA047878E2FE08E2ED
:10187700FF7C007D0A1204CF7878EEF208EFF2AF12
:1018870003EF2430FF788208E2FD2401F218E234E6
:1018970000F2747D2DF8EFF280B47882E2FE08E260
:1018A700FFC3EE648094804028747D2FF8E2FF78B0
:1018B7007AE2FB0808E2F92401F218E2FA3400F2AE
:1018C700EF1204567883E224FFF218E234FFF28025
:0F18D700C9787AE2FB08E2FA08E2F9E402045663
:10136800323A677072735F617428290A000A004173
:10137800540D0A00333A677072735F636865636B74
:101388005F6363696428290A0041542B4343494435
:101398000D0A00343A677072735F636865636B5F48
:1013A8006E657428290A0041542B435245473F0D66
:1013B8000A0041542B434744434F4E543D312C00BF
:1013C800495000434D4E4554000D0A00353A6770A8
:1013D80072735F737461636B28290A0041542B5838
:1013E8004953503D300D0A00363A677072735F6199
:1013F800706E28290A00373A677072735F696E69E0
:10140800745F70707028290A0041542B5849494369
:101418003D310D0A00383A677072735F636865631F
:101428006B5F70707028290A0041542B5849494352
:101438003F0D0A00393A677072735F636C6F7365AA
:101448005F723028290A0041542B544350434C4FB3
:1014580053453D300D0A0031303A677072735F733F
:10146800657475705F6C696E6B28290A0041542B8E
:1014780054435053455455503D302C3132302E3260
:10148800372E3132352E33312C38300D0A003131B8
:101498003A677072735F636865636B5F723028299F
:1014A8000A0041542B49505354415455533D300D73
:1014B8000A0041542B584949433D300D0A00313246
:1014C8003A677072735F6C696E6B5F66696E697399
:1014D8006828290A006C696E6B20737563636573ED
:1014E800730A006C696E6B206661696C65640A003A
:1014F800677072735F7328290A005443505245433A
:1015080056002C0041542B54435053454E443D3013
:021518002C00A5
:030FEC00818C00F5
:042456007FE87E039A
:10245A00E4FDFCC3ED9FEE6480F8EC6480985015AF
:10246A00E4FBFA0BBB00010ABA03F8BBDEF50DBDAB
:05247A0000010C80DEF2
:01247F00223A
:1024AA00E2FB0808E2F92401F218E2FA3400F21217
:0324BA000410FF0C
:0824BD008F993099FDC29922AC
:0B242A007F221224BD7BFF7A1379D1C2
:1024350078B8EBF208EAF208E9F278B8E2FB08E2CC
:10244500FA08E2F9120410600778B81224AA80EAA3
:012455002264
:0B24FF008F9BE59A30E1FB539AFD2211
:062353007B017A03794FC3
:1023590078B8EBF208EAF208E9F278B8E2FB08E2A9
:10236900FA08E2F9120410601A78B8E2FB0808E2E8
:10237900F92401F218E2FA3400F2120410FF1224CF
:04238900FF80D722D8
:1024ED00E4FF788DF208F27E8090034FE4F0A3DED6
:0124FD00FCE2
:0124FE0022BB
:10238D007BFF7A1379681223591223537BFF7A133B
:10239D007975122359788BE2B4311C1224EDE4784F
:1023AD008CF27BFF7A137977122435788B7432F2A5
:0823BD007FF47E0112245A2274
:101F6E007BFF7A13797C122359788BE26432705C92
:101F7E001223537BFF7A137975122359900351E084
:101F8E00B44F21A3E0B44B1C1224EDE4788CF27B09
:101F9E00FF7A137991122435788B7433F27FF47EA5
:101FAE000102245A1224ED7BFF7A1379771224351D
:101FBE00788B7432F27FF47E0112245A788CE2040C
:0D1FCE00F2E2B40507187431F2E408F222C3
:101BFF00E4FE7BFF7A13799B122359788BE26433CF
:101C0F00600281B31223537BFF7A13797512235924
:101C1F00900370E0644F703FA3E0644B7039FE7423
:101C2F00582EF582E43403F583E0FF74BB2EF58262
:101C3F00E43402F583EFF00EEEB414E31224EDE476
:101C4F00788CF2187434F27BFF7A1379AF12243543
:101C5F007FE87E0302245A1224ED788B7436F27BD0
:101C6F00FF7A1379BA1224357F221224BD7BFF7AB3
:101C7F001379C81224357F221224BD7F2C1224BD64
:101C8F007F221224BD7BFF7A1379CB1224351224C5
:101C9F002A122456788CE204F2E2B4050718743144
:041CAF00F2E408F261
:011CB300220E
:102046007BFF7A1379D4122359788BE26434705764
:102056001223537BFF7A13797512235990035FE09D
:10206600B44F20A3E0B44B1B1224EDE4788CF21895
:102076007435F27BFF7A1379E41224357FE87E0308
:1020860002245A1224ED7BFF7A13799112243578B3
:102096008B7433F2122456788CE204F2E2B405070C
:0820A600187431F2E408F22283
:101D58007BFF7A1379F0122359788BE2643560029D
:101D6800A1EC1223537BFF7A137975122359900340
:101D780051E0644F704AA3E0644B70441224EDE4D0
:101D8800788CF2187436F27BFF7A1379BA122435FC
:101D98007F221224BD7BFF7A1379C81224357F2253
:101DA8001224BD7F2C1224BD7F221224BD7BFF7A12
:101DB8001379CB12243512242A7FE87E0302245A91
:101DC8001224ED788B7435F27BFF7A1379E41224B0
:101DD80035122456788CE204F2E2B40507187431FF
:051DE800F2E408F22204
:1020AE007BFF7A1379FE122359788BE264367057D0
:1020BE001223537BFF7A137975122359900351E043
:1020CE00B44F20A3E0B44B1B1224EDE4788CF2182D
:1020DE007437F27BFF7A1479111224357FE87E0370
:1020EE0002245A1224ED788B7434F27BFF7A137922
:1020FE00AF122435122456788CE204F2E2B40507AE
:08210E00187431F2E408F2221A
:102116007BFF7A14791D122359788BE26437705746
:102126001223537BFF7A137975122359900351E0DA
:10213600B44F20A3E0B44B1B1224EDE4788CF218C4
:102146007438F27BFF7A1479311224357FE87E03E6
:1021560002245A1224ED788B7437F27BFF7A1479B5
:1021660011122435122456788CE204F2E2B40507E3
:08217600187431F2E408F222B2
:1021E3007BFF7A14793C122359788BE2643870525E
:1021F3001223537BFF7A13797512235990035BE003
:10220300B4311B1224EDE4788CF2187439F27BFF9D
:102213007A14794F1224357FE87E0302245A12245C
:10222300ED788B7438F27BFF7A14793112243512EE
:102233002456788CE204F2E2B40507187431F2E410
:0322430008F2227C
:1023C5007BFF7A14795F122359788BE26439702385
:1023D5001223537BFF7A1379751223591224EDE4E6
:1023E500788CF218743AF27BFF7A147975122435D9
:0423F5001224562236
:101EF5007BFF7A147996122359788BE2643A7068DD
:101F05001223537BFF7A137975122359900351E0FD
:101F1500B44F20A3E0B44B1BE4788CF218743BF269
:101F25001224ED7BFF7A1479AA1224357FE87E030B
:101F350002245A1224ED788B7439F27BFF7A1479D6
:101F45004F122435122456788CE204F2E2B40518B7
:101F55007BFF7A1479BA1224357FF47E0112245A54
:091F6500788B7431F2E408F222D9
:101E79007BFF7A1479C6122359788BE2643B706B25
:101E89001223537BFF7A13797512235990035DE06E
:101E9900B44F1AA3E0B44B151224ED7BFF7A1479E1
:101EA900DD122359E4788CF218743CF2221224EDE5
:101EB9007BFF7A1479EB122359788B743AF27BFF02
:101EC9007A1479AA122435122456788CE204F2E2A3
:101ED900B405187BFF7A1479BA1224357FF47E0190
:0C1EE90012245A788B7431F2E408F222C3
:1019BB00E478B5F208F208F27BFF7A1479F8122377
:1019CB0059788B7431F2E4788DF208F21224ED78A9
:1019DB00B6E2707012245690034FE060F2E478B7D1
:1019EB00F278B7E2FFC3948050E5744F2FF582E491
:1019FB003403F583E0FFB42B06E278B5F2803EEFBB
:101A0B00B4591A78B5E260152407FFE433FE78B7B2
:101A1B00E2B50709E4B506051804F280B278B5E221
:101A2B00FF601A2407FFE433FE78B7E2C39FEE642E
:101A3B0080F87480984006E478B5F2809278B7E22B
:101A4B0004F2809D788BE2643C602A12238D121F76
:101A5B006E121BFF122046121D581220AE122116B9
:101A6B001221E31223C5121EF5121E797FF47E019B
:051A7B0012245A80CF87
:011A80002243
:101A8100E47887F208F208F208F212041070026199
:101A910045789C74FFF2087415F2087402F2121B67
:101AA100467884EBF208EAF208E9F27884E2FB086E
:101AB100E2FA08E24A4B70026145789C74FFF20831
:101AC1007415F208740AF27884E2FB08E2FA08E27B
:101AD100F9121B467884EBF208EAF208E9F27884FD
:101AE100E2FB08E2FA08E24A4B6059E22401F218EB
:101AF100E23400F2789C74FFF2087415F208740A5B
:101B0100F27884E2FB08E2FA08E2F9121B467884D3
:101B1100EBF208EAF208E9F27884E2FB08E2FA085B
:101B2100E24A4B601FE22401F218E23400F27884A9
:101B3100E2FB08E2FA08E2F9120410600778841265
:041B410024AA80EA68
:011B4500227D
:0A16AD0078AAEBF208EAF208E9F26D
:1016B700E408F208F208F208F2788BE2643C601B57
:1016C7001223C5121EF5121E79788BE2B43103126C
:1016D70019BB7FD07E0712245A80DE78AAE2FB0866
:1016E700E2FA08E2F978AFE2FE08E2FFF5828E83BC
:1016F700120429600D78B0E22401F218E23400F2F6
:1017070080D9EF4E7002E1B878AFE2FF08E208CF68
:10171700F208EFF27BFF7A15790C122435C378B003
:09172700E2940A18E29400402E3D
:10173000E2FA08E2FB7C007D0AFFAE0212047AEFB7
:10174000243078B3F27C007D0AAF03AE0212047A33
:0C175000ED243078B4F218E2FF1224BD42
:10175C00800B78B0E22430F218E23400F208E2FF99
:10176C001224BD12242F7F327E0012245AE478AD4D
:10177C00F208F278B1E2FE08E2FF78ADE2FC08E292
:10178C00FDC39FEC9E502278AAE2FB08E2FA08E225
:10179C00F98D828C83120429FF1224BD78AEE224C9
:0C17AC0001F218E23400F280CA12242F6F
:0117B800220E
:10248000788EE2647F700218E2788D7004F208F2B0
:102490002208E2FD2401F218E2FC3400F2744F2D10
:0A24A000F58274033CF583EFF0228F
:07250A007B017A0279BB227C
:100046000203FBE86480F8E933E83360110460F0EA
:10005600ED33EC337009E8FCE9FDEAFEEBFF220420
:1000660060DED3EB9FEA9EE99DE8C2E78CF0C2F71B
:1000760095F0400CE8CCF8E9CDF9EACEFAEBCFFBE7
:100086001203C685D0F05804700320D5B3E8047077
:10009600075002B2D502040592D5EC0460F7E4CC11
:1000A600C0E0C398F8603B94186008400DD0E0FBB0
:1000B6000203DDE4FBFAC9FC8028E830E406E4C963
:1000C600FBE4CAFCE830E305E4C9CACBFCE8540704
:1000D6006010F8C3E913F9EA13FAEB13FBEC13FC0F
:1000E600D8F130F52FC3E49CFCEF9BFFEE9AFEEDB2
:1000F60099FDD0E0FBEF4E4D4C701222DB0302045B
:1001060002EC2CFCEF33FFEE33FEED33FDED30E772
:10011600EB0203DDEF2BFFEE3AFEED39FDD0E0FBFF
:1001260050130BBB0003020405ED13FDEE13FEEFA7
:0801360013FFEC13FC0203DDD2
:10013E00EC4D6011E8497017ED33EC3304600DE4BB
:10014E00FCFFFEFD22E933E8330470F80203FB12D4
:10015E0003C658046009E4CC2481500628500902D5
:10016E000405284003020402C0E0EB4A7044B98043
:10017E0006D0E0FB0203F1EF4E701CBD8008EBFFD2
:10018E00EAFEE9FD80EBE98DF0A4FEE5F002022720
:10019E00E9CDF9EAFEEBFFEF89F0A4FCE5F0CE899C
:1001AE00F0A42EFFE435F0CD89F0A42DFEE435F059
:1001BE008067EF4E7005BD80D780C3EF8BF0A4AC87
:1001CE00F0EE8BF0A42CFCE435F0F8EF8AF0A42CC2
:1001DE00E5F038FCE433CB8DF0A42CFCE5F03BF8D5
:1001EE00EE8AF0A42CFCE5F038F8E433CF89F0A4C5
:1001FE002CFCE5F038CF3400CE89F0A42FFFE5F0CB
:10020E003EFEE433C98DF0A42EFEE5F039CD8AF022
:10021E00A42FFFE5F03EFEE43DFD33D0E0FB50079A
:10022E000BBB000F020405EC2CFCEF33FFEE33FE8C
:06023E00ED33FD0203DDBB
:10024400020405EC5D046005E8590470030203FB35
:100254001203C6580460F6EC4860F2EC7004FDFE2C
:10026400FF22C860DB2481C85009C398600250068D
:100274000204029850CAF582E9294B4A7005AB8200
:100284000203F175F0007C1A7880C3EF9BEE9AEDBF
:1002940099400DC3EF9BFFEE9AFEED99FDE842F005
:1002A400DC23ACF0D0E0FFD0E0FED0E0FDAB822058
:1002B400E7101BEB60BAEC2CFCEF33FFEE33FEEDE2
:1002C40033FD0203DDE803F830E705C0F075F00004
:1002D400EF2FFFEE33FEED33FD40B830E7C280AAC6
:1002E40074F8CC6480CCC86480C8F582046043C3CD
:1002F400EB9FF5F0EA9E42F0E99D42F0E89C45F060
:1003040060305018E5825FFFE582F42B5582FB5084
:10031400210ABA001D09B90019088016E5825BFBA1
:10032400E582F42F5582FF50090EBE00050DBD0075
:10033400010CC3EB9FF5F0EA9E42F0E99D42F0E820
:0D0344009C45F06007CC4820E701B3EC2297
:1003510075F020800E75F010800575F0087D007E27
:10036100007F003392D530D50312061AEC334010CA
:10037100EF33FFEE33FEED33FDEC33FCD5F0ED2230
:0E038100E5F0247EA2D513CC92E7CDCEFF226C
:10038F00EDD2E7CD33EC3392D524814006E4FFFE66
:10039F00FDFC22FCE4CFCECDCC24E0501174FF80C5
:1003AF00EDC3CC13CCCD13CDCE13CECF13CF047062
:0703BF00F030D5DE02061A42
:1003C600E9D2E7C933E833F892D5EDD2E7CD33EC7D
:0703D60033FC5002B2D522F6
:1003DD00EC30E7100FBF000C0EBE00080DBD000481
:1003ED000BEB6014A2D5EB13FCED92E7FD2274FF2D
:1003FD00FCFDFEFF22E480F8A2D574FF13FC7D8086
:03040D00E480EF99
:03000000021DEDF1
:0C1DED00787FE4F6D8FD758120021E34DA
:10041000BB010689828A83E0225002E722BBFE02EA
:09042000E32289828A83E493221D
:10042900BB010CE58229F582E5833AF583E0225088
:1004390006E92582F8E622BBFE06E92582F8E222D2
:0D044900E58229F582E5833AF583E49322EC
:10045600BB010689828A83F0225002F722BBFE0185
:02046600F3227F
:10046800EF8DF0A4A8F0CF8CF0A428CE8DF0A42EA8
:02047800FE2262
:10047A00BC000BBE0029EF8DF084FFADF022E4CC66
:10048A00F875F008EF2FFFEE33FEEC33FCEE9DEC2F
:10049A00984005FCEE9DFE0FD5F0E9E4CEFD22ED75
:1004AA00F8F5F0EE8420D21CFEADF075F008EF2FBF
:1004BA00FFED33FD4007985006D5F0F222C398FDB0
:0504CA000FD5F0EA224D
:1004CF00C2D5EC30E709B2D5E4C39DFDE49CFCEE48
:1004DF0030E715B2D5E4C39FFFE49EFE12047AC342
:1004EF00E49DFDE49CFC800312047A30D507C3E43D
:0604FF009FFFE49EFE22B7
:10050500BB010A89828A83E0F5F0A3E022500687C1
:10051500F009E71922BBFE07E3F5F009E319228983
:0B052500828A83E493F5F074019322B6
:10053000BB0110E58229F582E5833AF583E0F5F009
:10054000A3E0225009E92582F886F008E622BBFEE6
:100550000AE92582F8E2F5F008E222E5832AF5832C
:08056000E993F5F0A3E99322F1
:10056800BB010789828A8302067B500B09C5F027E5
:10057800F7C5F01937F722BBFE0D09F8E325F0F3AC
:10058800C5F019E338F322F889828A837401932528
:08059800F0C5F0F8E4933822ED
:1005A000BB010DC58229C582C5833AC58302067B7E
:1005B0005011C58229F808E5F026F618F5F0E58215
:1005C00036F622BBFE11C58229F808E225F0F5F0C7
:1005D000F218E23582F222F8E58229F582E5832AD3
:0D05E000F58374019325F0F5F0E4933822C3
:1005ED00F8BB0111E58229F582E5833AF583E8F040
:1005FD00E5F0A3F0225009E92582C8F608A6F022FD
:0D060D00BBFE09E92582C8F2E5F008F222E3
:0E061A00C3E49FFFE49EFEE49DFDE49CFC22F1
:0C062800ECF0A3EDF0A3EEF0A3EFF02245
:0C063400ECF208EDF208EEF208EFF22202
:10064000D083D082E493F208740193F20874029389
:09065000F208740393F2740473C0
:101FDB00788FEBF208EAF208E9F2E47897F208F26C
:101FEB00789508E2FF24FFF218E2FE34FFF2EF4E81
:101FFB00603E7892E2FB08E2FA08E2F9120410FF65
:10200B00788FE2FB08E2FA08E2F9789708E2FD2400
:10201B0001F218E2FC3400F28D828C83EF12065928
:10202B00EF60BD7894E22401F218E23400F280B044
:0B203B00788FE2FB08E2FA08E2F922CD
:1024C500E4FFFE120410600C0FEF70010E09E970B5
:0524D500F20A80EF2275
:101B46007899EBF208EAF208E9F208E2FB08E2FA11
:101B560008E2F91204107003021BED7899E2FB0803
:101B6600E2FA08E2F91204107003021BF808E2F91F
:101B760008E2FA08E208C9F208EAF208E9F27899F6
:101B8600E2F908E2FA08E278A2C9F208EAF208E9FC
:101B9600F2789FE2FB08E2FA08E2F9120410FF600D
:101BA6002708E2FB08E2FA08E2F91204106F70183F
:101BB60078A1E22401F218E23400F278A4E22401CA
:101BC600F218E23400F280C9789FE2FB08E2FA08D4
:101BD600E2F91204107002800E789BE22401F218DA
:101BE600E23400F2021B617899E2FB08E2FA08E2AD
:091BF600F9227B007A007900223B
:101DF900020691E493A3F8E493A34003F68001F269
:101E090008DFF48029E493A3F85407240CC8C333EA
:101E1900C4540F4420C8834004F456800146F6DFB9
:101E2900E4800B0102040810204080900ED0E47E6B
:101E3900019360BCA3FF543F30E509541FFEE493AE
:101E4900A360010ECF54C025E060A840B8E493A375
:101E5900FAE493A3F8E493A3C8C582C8CAC583CAA0
:101E6900F0A3C8C582C8CAC583CADFE9DEE780BE58
:010FEF000001
:10065900F8BB010DE58229F582E5833AF583E8F0D7
:10066900225006E92582C8F622BBFE05E92582C883
:02067900F2226B
:10067B00C5F0F8A3E028F0C5F0F8E582158270020A
:06068B001583E038F022A7
:00000001FF
