:0C157400B4AEBFDA312D2D4750525300A9
:100003004387807598505389BFE58954CF4420F5C1
:0B00130089758DF4D28ED2ACD2AF22E2
:1007E20043A210438E08759A50438E10759CFA43AB
:0307F200AF012232
:03001E008F992295
:101564008F828E83E493FF600612001EA380F5220F
:03002300020FA524
:100FA500C0E0C083C082C0D075D000C00030983486
:100FB500C2987803E22405F582E43401F583E599C6
:100FC500F0E204F2C394804002E4F27802E2248560
:100FD500F582E43400F583E599F0E204F2C39480E8
:100FE5004002E4F2309904C299D200D000D0D0D0AA
:060FF50082D083D0E0323F
:0300430002152182
:10152100C0E0C083C082C0D075D000C000E59A3051
:10153100E01C539AFE7802E22485F582E43400F53A
:1015410083E59BF0E204F2C394804002E4F2E59A61
:1015510030E105539AFDD201D000D0D0D082D083A2
:03156100D0E032A5
:1014DA00E47800F27802F218F27803F212000312AA
:1014EA0007E27E157F741215647802E2FF7800E243
:1014FA00FE6F601974852EF582E43400F583E0FFEF
:10150A0012001EE204F2C394804002E4F27803E27D
:07151A00FF7801E26F80D2AF
:070800007804ECF208EDF2B0
:100807007814EBF208EAF208E9F2900005120429DD
:100817007806F27F021213727814E2FB08E2FA08F4
:10082700E2F98F82758300120429FF7806E2644398
:10083700600281EEEF6441600281EE7F041213686B
:100847007814E2FB08E2FA08E2F98F827583001256
:100857000429FF7804E2FC08E22426F582E43CF54B
:1008670083EFF07F061213727814E2FB08E2FA08AE
:10087700E2F98F82758300120429FF7804E2FC08ED
:10088700E22427F582E43CF583EFF07F031213722D
:1008970012142C7804E2FA08E2F5828A831205D34F
:1008A7007F0512136812142C7804E2FA08E2FB247D
:1008B70004F582E43AF5831205D38B828A83E0FC40
:1008C700A3E0FDA3E0FEA3E0FF12038F7C007D649D
:1008D70012047A7804E2FC08E2FD2408F582E43C7D
:1008E700F583EEF0A3EFF0ED2408F582E43CF58301
:1008F700E0FEA3E0FF7C007D64120468AC06AD0750
:10090700EC120356C004A905AA06AB077804E2FE59
:1009170008E2F5828E83E0FCA3E0FDA3E0FEA3E0FE
:10092700FFD00012004978081205DF7808E2FC08BA
:10093700E2FD08E2FE08E2FF12038F7804E2FC08FA
:10094700E2FD240AF582E43CF583EEF0A3EFF0ED37
:10095700240AF582E43CF583E0FCA3E0FDEC1203F6
:1009670056C004A905AA06AB077808E2FC08E2FD11
:1009770008E2FE08E2FFD000120049E4FBFA7970B2
:10098700784212013E12038F7804E2FC08E2FD244C
:100997000CF582E43CF583EEF0A3EFF0ED2404F5CB
:1009A70082E43CF583E0FCA3E0FDA3E0FEA3E0FFC7
:1009B70012038F7C007D6412047A7804E2FC08E25B
:1009C700FD240EF582E43CF583EEF0A3EFF0ED2471
:1009D7000EF582E43CF583E0FEA3E0FF7C007D6436
:1009E700120468AC06AD07EC120356C004A905AAA9
:1009F70006AB077804E2FE08E22404F582E43EF53C
:100A070083E0FCA3E0FDA3E0FEA3E0FFD00012001B
:100A170049780C1205DF780CE2FC08E2FD08E2FEDB
:100A270008E2FF12038F7804E2FC08E2FD2410F5C8
:100A370082E43CF583EEF0A3EFF0ED2410F582E4B9
:100A47003CF583E0FCA3E0FDEC120356C004A905C6
:100A5700AA06AB07780CE2FC08E2FD08E2FE08E212
:100A6700FFD000120049E4FBFA7970784212013E88
:100A770012038F7804E2FC08E22412F582E43CF5C5
:100A870083EEF0A3EFF07814E2FB08E2FA08E2F94C
:100A97007F071213721213CD78101205DF7FCD7EF8
:100AA700CC7DEC7C3F7810E2FB08E2F908E2FA081B
:100AB700E2CBF812013E7804E2FA08E22414F58248
:100AC700E43AF5831205D37814E2FB08E2FA08E268
:100AD700F97F081213721213CD7804E2FA08E224A0
:100AE70018F582E43AF5831205D37814E2FB08E29D
:100AF700FA08E2F9900007120429FF3395E0FEEFA8
:100B070024D0FFEE34FFFE7C007D0A1204689000BB
:100B170008120429FD3395E0FCED24D0FDEC34FFE9
:100B2700CD2FFFED3EFE7804E2FC08E2242EF5828D
:100B3700E43CF583EEF0A3EFF0900009120429FFDF
:100B47003395E0FEEF24D0FFEE34FFFE7C007D0AF4
:100B570012046890000A120429FD3395E0FCED2485
:100B6700D0FDEC34FFCD2FFFED3EFE7804E2FC080C
:100B7700E22430F582E43CF583EEF0A3EFF0900039
:100B87000B120429FF3395E0FEEF24D0FFEE34FF6C
:100B9700FE7C007D0A12046890000C120429FD33C4
:100BA70095E0FCED24D0FDEC34FFCD2FFFED3EFEAC
:100BB7007804E2FC08E22432F582E43CF583EEF0A7
:100BC700A3EFF07F091213727807EFF27814E2FBB4
:100BD70008E2FA08E2F97807E2F582758300120461
:100BE70029FF3395E0FEEF24D0FFEE34FFFE7C00B3
:100BF7007D0A1204687807E2F5828C83A312042920
:100C0700FD3395E0FCED24D0FDEC34FFCD2FFFED57
:100C17003EFE7804E2FC08E2242CF582E43CF583EE
:100C2700EEF0A3EFF07807E2F582758300A3A31235
:100C37000429FF3395E0FEEF24D0FFEE34FFFE7C5E
:100C4700007D0A1204687807E2F5828C83A3A3A3C8
:100C5700120429FD3395E0FCED24D0FDEC34FFCDE3
:100C67002FFFED3EFE7804E2FC08E2242AF582E439
:100C77003CF583EEF0A3EFF07807E22404F582E475
:100C870033F583120429FF3395E0FEEF24D0FFEEFE
:100C970034FFFE7C007D0A1204687807E22405F51C
:100CA70082E433F583120429FD3395E0FCED24D06B
:100CB700FDEC34FFCD2FFFED3ECF24D0CF3407FE20
:100CC7007804E2FC08E2FD2428F582E43CF583EE93
:100CD700F0A3EFF0ED2428FFE43CFAA9077B01120B
:0A0CE7000CF27E007F0122E4FEFF04
:010CF10022E0
:100ED000E47817F208F2781BEBF208EAF208E9F27C
:100EE000781BE2FB08E2FA08E2F9120410FF700234
:100EF000E19D24D0B40A00507D900F0325E05002FC
:100F0000058373E117E11FE128E132E13CE146E1AD
:100F100050E15AE164E16EE47819F208F280577802
:100F200019E4F20804F2804E7819E4F2087402F22F
:100F300080447819E4F2087403F2803A7819E4F2F4
:100F4000087404F280307819E4F2087405F28026FF
:100F50007819E4F2087406F2801C7819E4F2087437
:100F600007F280127819E4F2087408F28008781900
:100F7000E4F2087409F27817E2FE08E2FF7C007DD3
:100F80000A120468781AE22F7918F318E23E19F36E
:100F9000781DE22401F218E23400F2C1E07817E291
:040FA000FE08E2FF66
:010FA400222A
:0A148B00781EEBF208EAF208E9F21D
:101495007F01121372782BEFF2E214F2781EE2F953
:1014A50008E2FA08E2787EC9F208EAF208E9F27879
:1014B5002BE2FF7881E4F208EFF27BFE7A007921D6
:1014C500120777782BE22421F8E4F27BFE7A007983
:0414D50021120ED002
:0114D90022F0
:10100000782C1205EB000000007834E4F20804F2BA
:1010100008EBF208EAF208E9F27836E2FB08E2FAB5
:1010200008E2F9120410FF700221A624D2B40C00C9
:10103000400201CD90103E25E0500205837301C4AB
:1010400001CD01560161016C01770182018D01988A
:1010500001A301AE01B978301205EB000000008059
:101060006C78301205EB3F8000008061783012050B
:10107000EB40000000805678301205EB4040000045
:10108000804B78301205EB408000008040783012B1
:1010900005EB40A00000803578301205EB40C00021
:1010A00000802A78301205EB40E00000801F783085
:1010B0001205EB41000000801478301205EB41105E
:1010C0000000800978301205EB42380000E4FFFE92
:1010D0007D387C427830E2FB08E2F908E2FA08E267
:1010E000CBF81202E4700D7834F208F27839F20885
:1010F00004F221997835E26401700218E2702FFF42
:10110000FE7D207C41782CE2FB08E2F908E2FA0837
:10111000E2CBF812013E7830E2FB08E2F908E2FA8D
:1011200008E2CBF812004D782C1205DF806B782C8A
:10113000E2FB08E2F908E2FA08E2CBF8C000C001DD
:10114000C002C0037839E2FE08E2FF7C007D0A128B
:101150000468AC06AD07EC120356C004A905AA0644
:10116000AB077830E2FC08E2FD08E2FE08E2FFD0BF
:1011700000120247D003D002D001D00012004D78F7
:101180002C1205DF7839E2FE08E2FF7C007D0A12AE
:1011900004687839EEF208EFF27838E22401F218A8
:1011A000E23400F20119782CE2FC08E2FD08E2FECC
:0311B00008E2FF53
:0111B3002219
:1013CD007E007814E2FB08E2FA08E22FF9EE3AFA11
:0A13DD00783BEBF208EAF208E9F2AF
:1013E7007F011213727848EFF2E214F2783BE2F9C8
:1013F70008E2FA08E2787EC9F208EAF208E9F27828
:1014070048E2FF7881E4F208EFF27BFE7A00793E4A
:101417001207777848E2243EF8E4F27BFE7A0079F7
:041427003E12100061
:01142B00229E
:1011B40078491205EB000000007851E4F20804F2CB
:1011C40008EBF208EAF208E9F27853E2FB08E2FAE3
:1011D40008E2F9120410FF7002615A24D2B40C0020
:1011E400400241819011F225E05002058373417859
:1011F4004181410A41154120412B41364141414C35
:1012040041574162416D784D1205EB0000000080AA
:101214006C784D1205EB3F8000008061784D12051B
:10122400EB400000008056784D1205EB4040000072
:10123400804B784D1205EB408000008040784D12C1
:1012440005EB40A000008035784D1205EB40C0004E
:1012540000802A784D1205EB40E00000801F784D95
:101264001205EB410000008014784D1205EB41108B
:1012740000008009784D1205EB42380000E4FFFEBF
:101284007D387C42784DE2FB08E2F908E2FA08E294
:10129400CBF81202E4700D7851F208F27856F20895
:1012A40004F2614D7852E26401700218E2702FFF7B
:1012B400FE7D207C417849E2FB08E2F908E2FA0865
:1012C400E2CBF812013E784DE2FB08E2F908E2FABB
:1012D40008E2CBF812004D78491205DF806B78499B
:1012E400E2FB08E2F908E2FA08E2CBF8C000C00128
:1012F400C002C0037856E2FE08E2FF7C007D0A12B9
:101304000468AC06AD07EC120356C004A905AA068E
:10131400AB07784DE2FC08E2FD08E2FE08E2FFD0EC
:1013240000120247D003D002D001D00012004D7841
:10133400491205DF7856E2FE08E2FF7C007D0A12BE
:1013440004687856EEF208EFF27855E22401F218B8
:10135400E23400F221CD7849E2FC08E2FD08E2FE25
:0313640008E2FF9D
:011367002263
:10142C007E007814E2FB08E2FA08E22FF9EE3AFAB1
:0A143C007858EBF208EAF208E9F232
:101446007F011213727865EFF2E214F27858E2F92E
:1014560008E2FA08E2787EC9F208EAF208E9F278C8
:1014660065E2FF7881E4F208EFF27BFE7A00795BB1
:101476001207777865E2245BF8E4F27BFE7A00795E
:041486005B1211B430
:01148A00223F
:0A1368007814E2FB08E2FA08E2F94B
:0D1372007866EFF208EBF208EAF208E9F203
:10137F00E4786BF2120026E4786AF2786AE2C39F8F
:10138F00EE6480F874809850327867E2FB08E2FAD6
:10139F0008E2F908E2F582758300120429B42C05DE
:1013AF00786BE204F27866E2FD786BE2B50505181A
:0D13BF00E204FF22786AE204F280C07F00A1
:0113CC0022FE
:100CF200786CEBF208EAF208E9F2786CE2FB08E2BF
:100D0200FA08E2F990000AE475F00112054B90002E
:100D12000A1204DBD3943BE5F064809480404B7864
:100D22006CE2FB08E2FA08E2F990000AE4F5F0123C
:100D32000598900008E475F00112054B9000081226
:100D420004DBD3943BE5F064809480401D786CE230
:100D5200FB08E2FA08E2F9900008E4F5F0120598BF
:100D6200900006E475F00112054B786CE2FB08E294
:100D7200FA08E2F9900006E475F00812054B9000BB
:100D8200061204DBD39417E5F0648094805002C10C
:100D9200CF786CE2FB08E2FA08E2F990000674FFF1
:100DA20075F0E812054B900004E475F00112054B52
:100DB2009000021204DBFFAEF064024E6018EF6492
:100DC200044E6012EF64064E600CEF64094E60063A
:100DD200EF640B4E701D786CE2FB08E2FA08E2F950
:100DE2009000041204DBD3941EE5F06480948040EA
:100DF20031801B786CE2FB08E2FA08E2F990000409
:100E02001204DBD3941FE5F06480948040149000B8
:100E120004E475F001120598900002E475F00112E5
:100E2200054B786CE2FB08E2FA08E2F91204B0FF23
:100E3200AEF07C007D0412047AED4C7029786CE2ED
:100E4200FB08E2FA08E2F99000041204DBD3941DD5
:100E5200E5F06480948040489000021204DB640252
:100E620045F0703C8027786CE2FB08E2FA08E2F970
:100E72009000041204DBD3941CE5F064809480405B
:100E82001F9000021204DB640245F070139000040C
:100E920075F001120598900002E475F00112054BFD
:100EA200786CE2FB08E2FA08E2F99000021204DB35
:100EB200D3940CE5F064809480401290000274FF99
:0E0EC20075F0F412054BE475F00112051322D1
:07069100786FEEF208EFF2B2
:10069800E47879F208F27871EBF208EAF208E9F204
:1006A800C3EF940AEE6480948050337871E2FB08BB
:1006B80008E2F92401F218E2FA3400F27430120464
:1006C80056786F08E22430FF08E2FB0808E2F924B4
:1006D80001F218E2FA3400F2EF120456E169786F79
:1006E800E2FE08E2FFD39400EE6480948040657CCB
:1006F800007D0A12047AAB05AA04786FE2FE08E2CC
:10070800FF7C007D0A12047A786FEEF208EFF2AFF0
:1007180003EF2430FF787908E2FD2401F218E2346F
:1007280000F274742DF8EFF280B47879E2FE08E2F2
:10073800FFC3EE64809480402874742FF8E2FF7839
:1007480071E2FB0808E2F92401F218E2FA3400F237
:10075800EF120456787AE224FFF218E234FFF280AE
:0F076800C97871E2FB08E2FA08E2F9E4020456EC
:100046000203FBE86480F8E933E83360110460F0EA
:10005600ED33EC337009E8FCE9FDEAFEEBFF220420
:1000660060DED3EB9FEA9EE99DE8C2E78CF0C2F71B
:1000760095F0400CE8CCF8E9CDF9EACEFAEBCFFBE7
:100086001203C685D0F05804700320D5B3E8047077
:10009600075002B2D502040592D5EC0460F7E4CC11
:1000A600C0E0C398F8603B94186008400DD0E0FBB0
:1000B6000203DDE4FBFAC9FC8028E830E406E4C963
:1000C600FBE4CAFCE830E305E4C9CACBFCE8540704
:1000D6006010F8C3E913F9EA13FAEB13FBEC13FC0F
:1000E600D8F130F52FC3E49CFCEF9BFFEE9AFEEDB2
:1000F60099FDD0E0FBEF4E4D4C701222DB0302045B
:1001060002EC2CFCEF33FFEE33FEED33FDED30E772
:10011600EB0203DDEF2BFFEE3AFEED39FDD0E0FBFF
:1001260050130BBB0003020405ED13FDEE13FEEFA7
:0801360013FFEC13FC0203DDD2
:10013E00EC4D6011E8497017ED33EC3304600DE4BB
:10014E00FCFFFEFD22E933E8330470F80203FB12D4
:10015E0003C658046009E4CC2481500628500902D5
:10016E000405284003020402C0E0EB4A7044B98043
:10017E0006D0E0FB0203F1EF4E701CBD8008EBFFD2
:10018E00EAFEE9FD80EBE98DF0A4FEE5F002022720
:10019E00E9CDF9EAFEEBFFEF89F0A4FCE5F0CE899C
:1001AE00F0A42EFFE435F0CD89F0A42DFEE435F059
:1001BE008067EF4E7005BD80D780C3EF8BF0A4AC87
:1001CE00F0EE8BF0A42CFCE435F0F8EF8AF0A42CC2
:1001DE00E5F038FCE433CB8DF0A42CFCE5F03BF8D5
:1001EE00EE8AF0A42CFCE5F038F8E433CF89F0A4C5
:1001FE002CFCE5F038CF3400CE89F0A42FFFE5F0CB
:10020E003EFEE433C98DF0A42EFEE5F039CD8AF022
:10021E00A42FFFE5F03EFEE43DFD33D0E0FB50079A
:10022E000BBB000F020405EC2CFCEF33FFEE33FE8C
:06023E00ED33FD0203DDBB
:10024400020405EC5D046005E8590470030203FB35
:100254001203C6580460F6EC4860F2EC7004FDFE2C
:10026400FF22C860DB2481C85009C398600250068D
:100274000204029850CAF582E9294B4A7005AB8200
:100284000203F175F0007C1A7880C3EF9BEE9AEDBF
:1002940099400DC3EF9BFFEE9AFEED99FDE842F005
:1002A400DC23ACF0D0E0FFD0E0FED0E0FDAB822058
:1002B400E7101BEB60BAEC2CFCEF33FFEE33FEEDE2
:1002C40033FD0203DDE803F830E705C0F075F00004
:1002D400EF2FFFEE33FEED33FD40B830E7C280AAC6
:1002E40074F8CC6480CCC86480C8F582046043C3CD
:1002F400EB9FF5F0EA9E42F0E99D42F0E89C45F060
:1003040060305018E5825FFFE582F42B5582FB5084
:10031400210ABA001D09B90019088016E5825BFBA1
:10032400E582F42F5582FF50090EBE00050DBD0075
:10033400010CC3EB9FF5F0EA9E42F0E99D42F0E820
:0D0344009C45F06007CC4820E701B3EC2297
:1003510075F020800E75F010800575F0087D007E27
:10036100007F003392D530D5031205C5EC33401020
:10037100EF33FFEE33FEED33FDEC33FCD5F0ED2230
:0E038100E5F0247EA2D513CC92E7CDCEFF226C
:10038F00EDD2E7CD33EC3392D524814006E4FFFE66
:10039F00FDFC22FCE4CFCECDCC24E0501174FF80C5
:1003AF00EDC3CC13CCCD13CDCE13CECF13CF047062
:0703BF00F030D5DE0205C598
:1003C600E9D2E7C933E833F892D5EDD2E7CD33EC7D
:0703D60033FC5002B2D522F6
:1003DD00EC30E7100FBF000C0EBE00080DBD000481
:1003ED000BEB6014A2D5EB13FCED92E7FD2274FF2D
:1003FD00FCFDFEFF22E480F8A2D574FF13FC7D8086
:03040D00E480EF99
:0300000002158066
:0C158000787FE4F6D8FD7581200214DAB3
:10041000BB010689828A83E0225002E722BBFE02EA
:09042000E32289828A83E493221D
:10042900BB010CE58229F582E5833AF583E0225088
:1004390006E92582F8E622BBFE06E92582F8E222D2
:0D044900E58229F582E5833AF583E49322EC
:10045600BB010689828A83F0225002F722BBFE0185
:02046600F3227F
:10046800EF8DF0A4A8F0CF8CF0A428CE8DF0A42EA8
:02047800FE2262
:10047A00C2D5EC30E709B2D5E4C39DFDE49CFCEE9D
:10048A0030E715B2D5E4C39FFFE49EFE120626C3E9
:10049A00E49DFDE49CFC800312062630D507C3E4E4
:0604AA009FFFE49EFE220C
:1004B000BB010A89828A83E0F5F0A3E02250068717
:1004C000F009E71922BBFE07E3F5F009E3192289D9
:0B04D000828A83E493F5F0740193220C
:1004DB00BB0110E58229F582E5833AF583E0F5F05F
:1004EB00A3E0225009E92582F886F008E622BBFE3C
:1004FB000AE92582F8E2F5F008E222E5832AF58382
:08050B00E993F5F0A3E9932246
:10051300BB010789828A8302067B500B09C5F0273A
:10052300F7C5F01937F722BBFE0D09F8E325F0F301
:10053300C5F019E338F322F889828A83740193257D
:08054300F0C5F0F8E493382242
:10054B00BB010DC58229C582C5833AC58302067BD3
:10055B005011C58229F808E5F026F618F5F0E5826A
:10056B0036F622BBFE11C58229F808E225F0F5F01C
:10057B00F218E23582F222F8E58229F582E5832A28
:0D058B00F58374019325F0F5F0E493382218
:10059800F8BB0111E58229F582E5833AF583E8F095
:1005A800E5F0A3F0225009E92582C8F608A6F02252
:0D05B800BBFE09E92582C8F2E5F008F22239
:0E05C500C3E49FFFE49EFEE49DFDE49CFC2247
:0C05D300ECF0A3EDF0A3EEF0A3EFF0229B
:0C05DF00ECF208EDF208EEF208EFF22258
:1005EB00D083D082E493F208740193F208740293DF
:0905FB00F208740393F274047316
:10077700787BEBF208EAF208E9F2E47883F208F210
:10078700788108E2FF24FFF218E2FE34FFF2EF4E11
:10079700603E787EE2FB08E2FA08E2F9120410FFF5
:1007A700787BE2FB08E2FA08E2F9788308E2FD24A5
:1007B70001F218E2FC3400F28D828C83EF120604FA
:1007C700EF60BD7880E22401F218E23400F280B0D5
:0B07D700787BE2FB08E2FA08E2F9225E
:10002600E4FFFE120410600C0FEF70010E09E97078
:05003600F20A80EF2238
:10060400F8BB010DE58229F582E5833AF583E8F02C
:10061400225006E92582C8F622BBFE05E92582C8D8
:02062400F222C0
:10062600BC000BBE0029EF8DF084FFADF022E4CCB8
:10063600F875F008EF2FFFEE33FEEC33FCEE9DEC81
:10064600984005FCEE9DFE0FD5F0E9E4CEFD22EDC7
:10065600F8F5F0EE8420D21CFEADF075F008EF2F11
:10066600FFED33FD4007985006D5F0F222C398FD02
:050676000FD5F0EA229F
:10067B00C5F0F8A3E028F0C5F0F8E582158270020A
:06068B001583E038F022A7
:00000001FF
