:1018C80067707320726576006D61696E5F5F5F5F38
:1018D80000006D61696E207374617274206C6973A5
:1018E80074656E6E696E670A006D61696E20737447
:1018F800617274206C697374656E6E696E67320A02
:1019080000474554202F20485454502F312E310D74
:101918000A0D0A646174613D0000000000000000C7
:1019280000000000000000000000000000000000AF
:10193800000000000000000000000000000000009F
:10194800000000000000000000000000000000008F
:10195800000000000000000000000000000000007F
:10196800000000000000000000000000000000006F
:10197800000000000000000000000000000000005F
:01198800005E
:1021B400758920759850758DFD858D8BD28ED2AC26
:0321C400D2AF2275
:1021C70043A210438E08759A50438E10759CF443B2
:0321D700AF012233
:100026007F80900333E4F0A3DFFCE4900333F0A376
:04003600F07800F26C
:01003A0022A3
:0300230002175B66
:10175B00C0E0C0F0C083C082C0D075D000C000C054
:0D176B0001C002C003C004C005C006C007D5
:10177800309866C2AFC2987800E599F27804E264BE
:101788000160097800E2FF120FD5804B7800E2FF74
:10179800B47B0A9003337401F0A3E4800F90033301
:1017A800E0FEB4010DEFB47D09A37401F07800F2F6
:1017B8008025EEB4011E7800E204F2C3947F501431
:1017C8007800E2FF7800E22433F582E43403F583FD
:0917D800EFF08003120026D2AFED
:1017E100D007D006D005D004D003D002D001D0005C
:0B17F100D0D0D082D083D0F0D0E03206
:03004300020ED0DA
:100ED000C0E0C0F0C083C082C0D075D000C000C0E8
:0D0EE00001C002C003C004C005C006C00769
:100EED007801E59BF27804E264016002E1B77E18B7
:100EFD007FC81221107801E2FFB424077801740134
:100F0D00F280747801E2FEB40109EFB44705740272
:100F1D00F28064EEB4020D7801E2B45007780174EA
:100F2D0003F280537801E2B4030D7801E2B4520765
:100F3D0078017404F280407801E2FFB4040D780169
:100F4D00E2B44D0778017405F2802CEFB4050D78ED
:100F5D0001E2B4430778017406F2801B7801E2B414
:100F6D0006157801E2B42C0F78017407F27803743A
:100F7D0001F29002B4E4F07801E2B4072D7801E2B9
:100F8D00FF7803E204F224B3F582E43402F583EF33
:100F9D00F0EFB40D15E204F224B3F582E43402F55A
:0D0FAD0083E4F09002B304F0A3F0539AFE29
:100FBA00D007D006D005D004D003D002D001D0008B
:0B0FCA00D0D0D082D083D0F0D0E03235
:101A4200E47800F27805F218F21221C71221B47E6E
:101A5200187FD012211012205F7E187FDA12211017
:101A62007F207E4E121FD67E187FF112211078043D
:0B1A72007401F29002B4E06401705CAB
:101A7D0078057C017DFE7BFF7A197909FE7F801246
:101A8D0004E0E47885F2741CF27885E2FFC394805B
:021A9D005031C6
:101A9F00EF24E608F2D3947F500EE224B3F582E4EC
:101AAF003402F583E0FF700A7885E22405F8E4F24A
:0A1ABF00800F7885E22405F8EFF2AD
:101AC9007885E204F280C67BFE7A0179051214B6A4
:101AD900900334E0B401957E037F35122110808C88
:070800007806ECF208EDF2AE
:100807007816EBF208EAF208E9F290000512051FE4
:100817007808F27F02121E4A7816E2FB08E2FA080D
:10082700E2F98F8275830012051FFF7808E264439F
:10083700600281EEEF6441600281EE7F04121E4088
:100847007816E2FB08E2FA08E2F98F827583001254
:10085700051FFF7806E2FC08E22426F582E43CF552
:1008670083EFF07F06121E4A7816E2FB08E2FA08C9
:10087700E2F98F8275830012051FFF7806E2FC08F4
:10088700E22427F582E43CF583EFF07F03121E4A4A
:100897001220007806E2FA08E2F5828A8312071E20
:1008A7007F05121E401220007806E2FA08E2FB24B8
:1008B70004F582E43AF58312071E8B828A83E0FCF3
:1008C700A3E0FDA3E0FEA3E0FF12038F7C007D649D
:1008D7001205C57806E2FC08E2FD2408F582E43C2F
:1008E700F583EEF0A3EFF0ED2408F582E43CF58301
:1008F700E0FEA3E0FF7C007D6412055EAC06AD0759
:10090700EC120356C004A905AA06AB077806E2FE57
:1009170008E2F5828E83E0FCA3E0FDA3E0FEA3E0FE
:10092700FFD000120049780A12072A780AE2FC0869
:10093700E2FD08E2FE08E2FF12038F7806E2FC08F8
:10094700E2FD240AF582E43CF583EEF0A3EFF0ED37
:10095700240AF582E43CF583E0FCA3E0FDEC1203F6
:1009670056C004A905AA06AB07780AE2FC08E2FD0F
:1009770008E2FE08E2FFD000120049E4FBFA7970B2
:10098700784212013E12038F7806E2FC08E2FD244A
:100997000CF582E43CF583EEF0A3EFF0ED2404F5CB
:1009A70082E43CF583E0FCA3E0FDA3E0FEA3E0FFC7
:1009B70012038F7C007D641205C57806E2FC08E20D
:1009C700FD240EF582E43CF583EEF0A3EFF0ED2471
:1009D7000EF582E43CF583E0FEA3E0FF7C007D6436
:1009E70012055EAC06AD07EC120356C004A905AAB2
:1009F70006AB077806E2FE08E22404F582E43EF53A
:100A070083E0FCA3E0FDA3E0FEA3E0FFD00012001B
:100A170049780E12072A780EE2FC08E2FD08E2FE8A
:100A270008E2FF12038F7806E2FC08E2FD2410F5C6
:100A370082E43CF583EEF0A3EFF0ED2410F582E4B9
:100A47003CF583E0FCA3E0FDEC120356C004A905C6
:100A5700AA06AB07780EE2FC08E2FD08E2FE08E210
:100A6700FFD000120049E4FBFA7970784212013E88
:100A770012038F7806E2FC08E22412F582E43CF5C3
:100A870083EEF0A3EFF07816E2FB08E2FA08E2F94A
:100A97007F07121E4A121F6E781212072A7FCD7E19
:100AA700CC7DEC7C3F7812E2FB08E2F908E2FA0819
:100AB700E2CBF812013E7806E2FA08E22414F58246
:100AC700E43AF58312071E7816E2FB08E2FA08E219
:100AD700F97F08121E4A121F6E7806E2FA08E2240E
:100AE70018F582E43AF58312071E7816E2FB08E24E
:100AF700FA08E2F990000712051FFF3395E0FEEFB1
:100B070024D0FFEE34FFFE7C007D0A12055E9000C4
:100B17000812051FFD3395E0FCED24D0FDEC34FFF2
:100B2700CD2FFFED3EFE7806E2FC08E2242EF5828B
:100B3700E43CF583EEF0A3EFF090000912051FFFE8
:100B47003395E0FEEF24D0FFEE34FFFE7C007D0AF4
:100B570012055E90000A12051FFD3395E0FCED2497
:100B6700D0FDEC34FFCD2FFFED3EFE7806E2FC080A
:100B7700E22430F582E43CF583EEF0A3EFF0900039
:100B87000B12051FFF3395E0FEEF24D0FFEE34FF75
:100B9700FE7C007D0A12055E90000C12051FFD33D6
:100BA70095E0FCED24D0FDEC34FFCD2FFFED3EFEAC
:100BB7007806E2FC08E22432F582E43CF583EEF0A5
:100BC700A3EFF07F09121E4A7809EFF27816E2FBCD
:100BD70008E2FA08E2F97809E2F58275830012055E
:100BE7001FFF3395E0FEEF24D0FFEE34FFFE7C00BD
:100BF7007D0A12055E7809E2F5828C83A312051F30
:100C0700FD3395E0FCED24D0FDEC34FFCD2FFFED57
:100C17003EFE7806E2FC08E2242CF582E43CF583EC
:100C2700EEF0A3EFF07809E2F582758300A3A31233
:100C3700051FFF3395E0FEEF24D0FFEE34FFFE7C67
:100C4700007D0A12055E7809E2F5828C83A3A3A3CF
:100C570012051FFD3395E0FCED24D0FDEC34FFCDEC
:100C67002FFFED3EFE7806E2FC08E2242AF582E437
:100C77003CF583EEF0A3EFF07809E22404F582E473
:100C870033F58312051FFF3395E0FEEF24D0FFEE07
:100C970034FFFE7C007D0A12055E7809E22405F523
:100CA70082E433F58312051FFD3395E0FCED24D074
:100CB700FDEC34FFCD2FFFED3ECF24D0CF3407FE20
:100CC7007806E2FC08E2FD2428F582E43CF583EE91
:100CD700F0A3EFF0ED2428FFE43CFAA9077B01120B
:0A0CE7000CF27E007F0122E4FEFF04
:010CF10022E0
:10168600E47819F208F2781DEBF208EAF208E9F2BA
:10169600781DE2FB08E2FA08E2F9120506FF70027D
:1016A600E15324D0B40A00507D9016B925E05002CB
:1016B600058373C1CDC1D5C1DEC1E8C1F2C1FCE16C
:1016C60006E110E11AE124E4781BF208F28057786B
:1016D6001BE4F20804F2804E781BE4F2087402F26E
:1016E6008044781BE4F2087403F2803A781BE4F233
:1016F600087404F28030781BE4F2087405F2802640
:10170600781BE4F2087406F2801C781BE4F2087475
:1017160007F28012781BE4F2087408F28008781B3E
:10172600E4F2087409F27819E2FE08E2FF7C007D13
:101736000A12055E781CE22F791AF318E23E19F3B5
:10174600781FE22401F218E23400F2C1967819E219
:04175600FE08E2FFA8
:01175A00226C
:0A20BB007820EBF208EAF208E9F2DF
:1020C5007F01121E4A782DEFF2E214F27820E2F930
:1020D50008E2FA08E2788BC9F208EAF208E9F27830
:1020E5002DE2FF788EE4F208EFF27BFE7A00792389
:1020F500120787782DE22423F8E4F27BFE7A007933
:042105002312168605
:0121090022B3
:10100000782E120736000000007836E4F20804F269
:1010100008EBF208EAF208E9F27838E2FB08E2FAB3
:1010200008E2F9120506FF700221A624D2B40C00D2
:10103000400201CD90103E25E0500205837301C4AB
:1010400001CD01560161016C01770182018D01988A
:1010500001A301AE01B9783212073600000000800A
:101060006C78321207363F800000806178321207B8
:1010700036400000008056783212073640400000AB
:10108000804B783212073640800000804078321260
:10109000073640A000008035783212073640C00085
:1010A00000802A783212073640E00000801F783234
:1010B00012073641000000801478321207364110C2
:1010C00000008009783212073642380000E4FFFE43
:1010D0007D387C427832E2FB08E2F908E2FA08E265
:1010E000CBF81202E4700D7836F208F2783BF20881
:1010F00004F221997837E26401700218E2702FFF40
:10110000FE7D207C41782EE2FB08E2F908E2FA0835
:10111000E2CBF812013E7832E2FB08E2F908E2FA8B
:1011200008E2CBF812004D782E12072A806B782E39
:10113000E2FB08E2F908E2FA08E2CBF8C000C001DD
:10114000C002C003783BE2FE08E2FF7C007D0A1289
:10115000055EAC06AD07EC120356C004A905AA064D
:10116000AB077832E2FC08E2FD08E2FE08E2FFD0BD
:1011700000120247D003D002D001D00012004D78F7
:101180002E12072A783BE2FE08E2FF7C007D0A125D
:10119000055E783BEEF208EFF2783AE22401F218AD
:1011A000E23400F20119782EE2FC08E2FD08E2FECA
:0311B00008E2FF53
:0111B3002219
:101F6E007E007816E2FB08E2FA08E22FF9EE3AFA62
:0A1F7E00783DEBF208EAF208E9F200
:101F88007F01121E4A784AEFF2E214F2783DE2F934
:101F980008E2FA08E2788BC9F208EAF208E9F2786E
:101FA8004AE2FF788EE4F208EFF27BFE7A0079408D
:101FB800120787784AE22440F8E4F27BFE7A007937
:041FC80040121000B3
:011FCC0022F2
:1011B400784B120736000000007853E4F20804F27A
:1011C40008EBF208EAF208E9F27855E2FB08E2FAE1
:1011D40008E2F9120506FF7002615A24D2B40C0029
:1011E400400241819011F225E05002058373417859
:1011F4004181410A41154120412B41364141414C35
:1012040041574162416D784F12073600000000805B
:101214006C784F1207363F8000008061784F1207C8
:1012240036400000008056784F12073640400000D8
:10123400804B784F120736408000008040784F1270
:10124400073640A000008035784F12073640C000B2
:1012540000802A784F12073640E00000801F784F44
:10126400120736410000008014784F1207364110EF
:1012740000008009784F12073642380000E4FFFE70
:101284007D387C42784FE2FB08E2F908E2FA08E292
:10129400CBF81202E4700D7853F208F27858F20891
:1012A40004F2614D7854E26401700218E2702FFF79
:1012B400FE7D207C41784BE2FB08E2F908E2FA0863
:1012C400E2CBF812013E784FE2FB08E2F908E2FAB9
:1012D40008E2CBF812004D784B12072A806B784B4A
:1012E400E2FB08E2F908E2FA08E2CBF8C000C00128
:1012F400C002C0037858E2FE08E2FF7C007D0A12B7
:10130400055EAC06AD07EC120356C004A905AA0697
:10131400AB07784FE2FC08E2FD08E2FE08E2FFD0EA
:1013240000120247D003D002D001D00012004D7841
:101334004B12072A7858E2FE08E2FF7C007D0A126D
:10134400055E7858EEF208EFF27857E22401F218BD
:10135400E23400F221CD784BE2FC08E2FD08E2FE23
:0313640008E2FF9D
:011367002263
:102000007E007816E2FB08E2FA08E22FF9EE3AFACF
:0A201000785AEBF208EAF208E9F250
:10201A007F01121E4A7867EFF2E214F2785AE2F967
:10202A0008E2FA08E2788BC9F208EAF208E9F278DB
:10203A0067E2FF788EE4F208EFF27BFE7A00795DC0
:10204A001207877867E2245DF8E4F27BFE7A00796A
:04205A005D1211B44E
:01205E00225F
:0A1E40007816E2FB08E2FA08E2F966
:0D1E4A007868EFF208EBF208EAF208E9F21E
:101E5700E4786DF212219FE4786CF2786CE2C39F0C
:101E6700EE6480F874809850327869E2FB08E2FAF1
:101E770008E2F908E2F58275830012051FB42C0504
:101E8700786DE204F27868E2FD786DE2B505051831
:0D1E9700E204FF22786CE204F280C07F00BC
:011EA400221B
:100CF200786EEBF208EAF208E9F2786EE2FB08E2BB
:100D0200FA08E2F990000AE475F0011206969000E2
:100D12000A120626D3943BE5F064809480404B7817
:100D22006EE2FB08E2FA08E2F990000AE4F5F0123A
:100D320006E3900008E475F001120696900008128E
:100D42000626D3943BE5F064809480401D786EE2E1
:100D5200FB08E2FA08E2F9900008E4F5F01206E373
:100D6200900006E475F001120696786EE2FB08E246
:100D7200FA08E2F9900006E475F00812069690006F
:100D820006120626D39417E5F0648094805002C1BF
:100D9200CF786EE2FB08E2FA08E2F990000674FFEF
:100DA20075F0E8120696900004E475F001120696BA
:100DB200900002120626FFAEF064024E6018EF6445
:100DC200044E6012EF64064E600CEF64094E60063A
:100DD200EF640B4E701D786EE2FB08E2FA08E2F94E
:100DE200900004120626D3941EE5F064809480409D
:100DF20031801B786EE2FB08E2FA08E2F990000407
:100E0200120626D3941FE5F064809480401490006B
:100E120004E475F0011206E3900002E475F0011299
:100E22000696786EE2FB08E2FA08E2F91205FBFF89
:100E3200AEF07C007D041205C5ED4C7029786EE29F
:100E4200FB08E2FA08E2F9900004120626D3941D88
:100E5200E5F0648094804048900002120626640205
:100E620045F0703C8027786EE2FB08E2FA08E2F96E
:100E7200900004120626D3941CE5F064809480400E
:100E82001F900002120626640245F07013900004BF
:100E920075F0011206E3900002E475F00112069665
:100EA200786EE2FB08E2FA08E2F9900002120626E6
:100EB200D3940CE5F064809480401290000274FF99
:0E0EC20075F0F4120696E475F00112065E2239
:0715A0007871EEF208EFF292
:1015A700E4787BF208F27873EBF208EAF208E9F2E2
:1015B700C3EF940AEE6480948050337873E2FB089B
:1015C70008E2F92401F218E2FA3400F27430120545
:1015D7004C787108E22430FF08E2FB0808E2F9249E
:1015E70001F218E2FA3400F2EF12054CC178787173
:1015F700E2FE08E2FFD39400EE6480948040657CAD
:10160700007D0A1205C5AB05AA047871E2FE08E25F
:10161700FF7C007D0A1205C57871EEF208EFF2AF84
:1016270003EF2430FF787B08E2FD2401F218E2344F
:1016370000F274762DF8EFF280B4787BE2FE08E2D0
:10164700FFC3EE64809480402874762FF8E2FF7819
:1016570073E2FB0808E2F92401F218E2FA3400F217
:10166700EF12054C787CE224FFF218E234FFF28097
:0F167700C97873E2FB08E2FA08E2F9E402054CD5
:10136800677072735F617428290A000A0041540D7E
:101378000A00677072735F636865636B5F636369B4
:101388006428290A0041542B434349440D0A006745
:101398007072735F737461636B28290A0041542B60
:1013A800584953503D300D0A00677072735F617081
:1013B8006E28290A0041542B434744434F4E543D5D
:1013C800312C00495000434D4E4554000D0A00672A
:1013D8007072735F636865636B5F6E657428290A52
:1013E8000041542B435245473F0D0A006770727302
:1013F8005F696E69745F70707028290A0041542B08
:10140800584949433D310D0A00677072735F63683C
:1014180065636B5F70707028290A0041542B584926
:1014280049433F0D0A00677072735F736574757086
:101438005F6C696E6B28290A0041542B5443505342
:10144800455455503D302C3132302E32372E313202
:10145800352E33312C38300D0A0041542B58494968
:10146800433F200D0A00677072735F6C696E6B5F93
:1014780066696E69736828290A0041542B584949DE
:10148800433D300D0A00677072735F7328290A00A4
:10149800616761696E0054435052454356002C0001
:0E14A80041542B54435053454E443D302C00CC
:03001E00818500D9
:091FCD0074327884F27FF47E0185
:101FD600E4FDFCC3ED9FEE6480F8EC648098501538
:101FE600E4FBFA0BBB00010ABA03F8BBDEF50DBD34
:051FF60000010C80DE7B
:011FFB0022C3
:10000300E2FB0808E2F92401F218E2FA3400F212E2
:030013000506FFE0
:080016008F993099FDC2992277
:0B2173007F221200167BFF7A1379D444
:10217E007892EBF208EAF208E9F27892E2FB08E2D2
:10218E00FA08E2F91205066007789212000380EA57
:01219E00221E
:0B07F2008F9BE59A30E1FB539AFD223B
:06210A007B017A0279332B
:102110007887EBF208EAF208E9F27887E2FB08E256
:10212000FA08E2F9120506601A7887E2FB0808E26D
:10213000F92401F218E2FA3400F2120506FF120740
:04214000F280D72230
:1021DA00E4FF7886F208F27E80900233E4F0A3DE10
:0121EA00FCF8
:0121EB0022D1
:102144007BFF7A13796812211012210A7BFF7A131C
:1021540079731221107884E2B431131221DAE4780D
:0F21640085F27BFF7A13797512217E121FCD222F
:101F0A007BFF7A13797A1221107884E26432705353
:101F1A0012210A7BFF7A137973122110900235E09D
:101F2A00B44F21A3E0B44B1C1221DAE47885F27B8A
:101F3A00FF7A13798D12217E78847433F27FF47ECE
:101F4A0001021FD61221DA7BFF7A13797512217EDC
:101F5A00121FCD7885E204F2E2B40507187431F253
:041F6A00E408F22273
:101EA5007BFF7A1379971221107884E2643370549A
:101EB50012210A7BFF7A137973122110900235E003
:101EC500B42B20A3E0B4431B1221DAE47885F21881
:101ED5007434F27BFF7A1379A512217E7FF47E019B
:101EE500021FD61221DA7BFF7A13798D12217E74B7
:101EF50033121FCF7885E204F2E2B4050718743176
:051F0500F2E408F222E5
:101B80007BFF7A1379B11221107884E26434600209
:101B9000811412210A7BFF7A1379731221109002AB
:101BA00035E0644F704AA3E0644B70441221DAE4DC
:101BB0007885F2187435F27BFF7A1379BD12217E95
:101BC0007F221200167BFF7A1379CB12217E7F22AF
:101BD0001200167F2C1200167F221200167BFF7A4D
:101BE0001379CE12217E1221737FF47E01021FD65B
:101BF0001221DA78847434F27BFF7A1379A51221EA
:101C00007E121FD27885E204F2E2B405071874311F
:051C1000F2E408F222DD
:101AE9007BFF7A1379D71221107884E2643560027A
:101AF900617F12210A7BFF7A1379731221109002F8
:101B090035E0B44F20A3E0B44B1B1221DAE4788509
:101B1900F2187439F27BFF7A1379E912217E7FF486
:101B29007E01021FD61221DA78847435F27BFF7A9E
:101B39001379BD12217E7F221200167BFF7A137959
:101B4900CB12217E7F221200167F2C1200167F22D3
:101B59001200167BFF7A1379CE12217E1221737F30
:101B6900E87E03121FD67885E204F2E2B40507186D
:071B79007431F2E408F222CE
:101CA1007BFF7A1379F41221107884E2643970573A
:101CB10012210A7BFF7A137973122110900243E0FB
:101CC100B44F20A3E0B44B1B1221DAE47885F2185B
:101CD1007436F27BFF7A14790512217E7FF47E013E
:101CE100021FD61221DA78847439F27BFF7A1379D4
:101CF100E912217E121FD27885E204F2E2B40507CF
:081D0100187431F2E408F2222B
:101D09007BFF7A1479111221107884E264367057B6
:101D190012210A7BFF7A137973122110900235E0A0
:101D2900B44F20A3E0B44B1B1221DAE47885F218F2
:101D39007437F27BFF7A14792312217E7FF47E01B6
:101D4900021FD61221DA78847436F27BFF7A14796D
:101D59000512217E121FD27885E204F2E2B405074A
:081D6900187431F2E408F222C3
:101DD9007BFF7A14792E1221107884E264377056C9
:101DE90012210A7BFF7A13797312211090023FE0C6
:101DF900B4311B1221DAE47885F2187438F27BFFCA
:101E09007A14794112217E7FE87E03021FD61221BE
:101E1900DA78847437F27BFF7A14796212217E7F33
:101E2900E87E03121FD67885E204F2E2B4050718AA
:071E39007431F2E408F2220B
:101D71007BFF7A14796E1221107884E264387057EF
:101D810012210A7BFF7A137973122110900247E026
:101D9100B44F0FA3E0B44B0AE47885F218743AF219
:101DA100803278847438F27BFF7A14794112217E73
:101DB1007FE87E03121FD67885E204F2E2B40514AF
:101DC1007BFF7A14798212217E121FD278847431BA
:081DD100F2E408F21221DA220B
:10205F007BFF7A14798E12211078847431F2122159
:10206F00DAE47886F208F27FD07E07121FD61221AB
:10207F0044121F0A121EA5121B80121AE9121CA16C
:10208F00121D09121DD9121D717FD07E07121FD686
:10209F007884E2FF1207F27FD0121FD67BFF7A14EB
:0C20AF0079981221107884E2B43ABC2227
:10180000E47880F208F208F208F21205067002018C
:10181000C7789574FFF2087414F208749EF21219D6
:1018200089787DEBF208EAF208E9F2787DE2FB08BC
:10183000E2FA08E24A4B700201C4789574FFF2089C
:101840007414F20874A6F2787DE2FB08E2FA08E26A
:10185000F9121989787DEBF208EAF208E9F2787D4D
:10186000E2FB08E2FA08E24A4B6059E22401F2186E
:10187000E23400F2789574FFF2087414F20874A64A
:10188000F2787DE2FB08E2FA08E2F9121989787D24
:10189000EBF208EAF208E9F2787DE2FB08E2FA08E6
:1018A000E24A4B601FE22401F218E23400F2787D34
:1018B000E2FB08E2FA08E2F91205066007787D12F9
:0718C000000380EA1221DAA7
:0118C70022FE
:0A14B6007887EBF208EAF208E9F289
:1014C000E408F208F208F208F27887E2FB08E2FA90
:1014D00008E2F9788CE2FE08E2FFF5828E831205BD
:1014E0001F600D788DE22401F218E23400F280D9F9
:1014F000EF4E7002A19F788CE2FF08E208CFF2085D
:10150000EFF27BFF7A1479A812217EC3788DE294E2
:071510000A18E29400402ECE
:10151700E2FA08E2FB7C007D0AFFAE02120570EFDB
:1015270024307890F27C007D0AAF03AE021205707A
:0C153700ED24307891F218E2FF1200164B
:10154300800B788DE22430F218E23400F208E2FFD7
:101553001200161221787F327E00121FD6E4788A99
:10156300F208F2788EE2FE08E2FF788AE2FC08E2F3
:10157300FDC39FEC9E50227887E2FB08E2FA08E263
:10158300F98D828C8312051FFF120016788BE224DB
:0C15930001F218E23400F280CA12217844
:01159F002229
:100FD5007887E2647F700218E278867004F208F27E
:100FE5002208E2FD2401F218E2FC3400F274332DEC
:0A0FF500F58274023CF583EFF02250
:100046000203FBE86480F8E933E83360110460F0EA
:10005600ED33EC337009E8FCE9FDEAFEEBFF220420
:1000660060DED3EB9FEA9EE99DE8C2E78CF0C2F71B
:1000760095F0400CE8CCF8E9CDF9EACEFAEBCFFBE7
:100086001203C685D0F05804700320D5B3E8047077
:10009600075002B2D502040592D5EC0460F7E4CC11
:1000A600C0E0C398F8603B94186008400DD0E0FBB0
:1000B6000203DDE4FBFAC9FC8028E830E406E4C963
:1000C600FBE4CAFCE830E305E4C9CACBFCE8540704
:1000D6006010F8C3E913F9EA13FAEB13FBEC13FC0F
:1000E600D8F130F52FC3E49CFCEF9BFFEE9AFEEDB2
:1000F60099FDD0E0FBEF4E4D4C701222DB0302045B
:1001060002EC2CFCEF33FFEE33FEED33FDED30E772
:10011600EB0203DDEF2BFFEE3AFEED39FDD0E0FBFF
:1001260050130BBB0003020405ED13FDEE13FEEFA7
:0801360013FFEC13FC0203DDD2
:10013E00EC4D6011E8497017ED33EC3304600DE4BB
:10014E00FCFFFEFD22E933E8330470F80203FB12D4
:10015E0003C658046009E4CC2481500628500902D5
:10016E000405284003020402C0E0EB4A7044B98043
:10017E0006D0E0FB0203F1EF4E701CBD8008EBFFD2
:10018E00EAFEE9FD80EBE98DF0A4FEE5F002022720
:10019E00E9CDF9EAFEEBFFEF89F0A4FCE5F0CE899C
:1001AE00F0A42EFFE435F0CD89F0A42DFEE435F059
:1001BE008067EF4E7005BD80D780C3EF8BF0A4AC87
:1001CE00F0EE8BF0A42CFCE435F0F8EF8AF0A42CC2
:1001DE00E5F038FCE433CB8DF0A42CFCE5F03BF8D5
:1001EE00EE8AF0A42CFCE5F038F8E433CF89F0A4C5
:1001FE002CFCE5F038CF3400CE89F0A42FFFE5F0CB
:10020E003EFEE433C98DF0A42EFEE5F039CD8AF022
:10021E00A42FFFE5F03EFEE43DFD33D0E0FB50079A
:10022E000BBB000F020405EC2CFCEF33FFEE33FE8C
:06023E00ED33FD0203DDBB
:10024400020405EC5D046005E8590470030203FB35
:100254001203C6580460F6EC4860F2EC7004FDFE2C
:10026400FF22C860DB2481C85009C398600250068D
:100274000204029850CAF582E9294B4A7005AB8200
:100284000203F175F0007C1A7880C3EF9BEE9AEDBF
:1002940099400DC3EF9BFFEE9AFEED99FDE842F005
:1002A400DC23ACF0D0E0FFD0E0FED0E0FDAB822058
:1002B400E7101BEB60BAEC2CFCEF33FFEE33FEEDE2
:1002C40033FD0203DDE803F830E705C0F075F00004
:1002D400EF2FFFEE33FEED33FD40B830E7C280AAC6
:1002E40074F8CC6480CCC86480C8F582046043C3CD
:1002F400EB9FF5F0EA9E42F0E99D42F0E89C45F060
:1003040060305018E5825FFFE582F42B5582FB5084
:10031400210ABA001D09B90019088016E5825BFBA1
:10032400E582F42F5582FF50090EBE00050DBD0075
:10033400010CC3EB9FF5F0EA9E42F0E99D42F0E820
:0D0344009C45F06007CC4820E701B3EC2297
:1003510075F020800E75F010800575F0087D007E27
:10036100007F003392D530D503120710EC334010D3
:10037100EF33FFEE33FEED33FDEC33FCD5F0ED2230
:0E038100E5F0247EA2D513CC92E7CDCEFF226C
:10038F00EDD2E7CD33EC3392D524814006E4FFFE66
:10039F00FDFC22FCE4CFCECDCC24E0501174FF80C5
:1003AF00EDC3CC13CCCD13CDCE13CECF13CF047062
:0703BF00F030D5DE0207104B
:1003C600E9D2E7C933E833F892D5EDD2E7CD33EC7D
:0703D60033FC5002B2D522F6
:1003DD00EC30E7100FBF000C0EBE00080DBD000481
:1003ED000BEB6014A2D5EB13FCED92E7FD2274FF2D
:1003FD00FCFDFEFF22E480F8A2D574FF13FC7D8086
:03040D00E480EF99
:03000000021C15CA
:0C1C1500787FE4F6D8FD758120021C5C8D
:10041000E709F608DFFA8046E709F208DFFA803ECE
:1004200088828C83E709F0A3DFFA8032E309F608BB
:10043000DFFA8078E309F208DFFA807088828C8323
:10044000E309F0A3DFFA806489828A83E0A3F608D7
:10045000DFFA805889828A83E0A3F208DFFA804CB1
:1004600080D280FA80C680D4806980F28033801088
:1004700080A680EA809A80A880DA80E280CA8033F1
:1004800089828A83ECFAE493A3C8C582C8CCC58369
:10049000CCF0A3C8C582C8CCC583CCDFE9DEE78039
:1004A0000D89828A83E493A3F608DFF9ECFAA9F0B8
:1004B000EDFB2289828A83ECFAE0A3C8C582C8CC0E
:1004C000C583CCF0A3C8C582C8CCC583CCDFEADE27
:1004D000E880DB89828A83E493A3F208DFF980CC89
:1004E00088F0EF60010E4E60C388F0ED2402B40482
:1004F0000050B9F582EB2402B4040050AF23234529
:06050000822390046073E9
:10050600BB010689828A83E0225002E722BBFE02F3
:09051600E32289828A83E4932226
:10051F00BB010CE58229F582E5833AF583E0225091
:10052F0006E92582F8E622BBFE06E92582F8E222DB
:0D053F00E58229F582E5833AF583E49322F5
:10054C00BB010689828A83F0225002F722BBFE018E
:02055C00F32288
:10055E00EF8DF0A4A8F0CF8CF0A428CE8DF0A42EB1
:02056E00FE226B
:10057000BC000BBE0029EF8DF084FFADF022E4CC6F
:10058000F875F008EF2FFFEE33FEEC33FCEE9DEC38
:10059000984005FCEE9DFE0FD5F0E9E4CEFD22ED7E
:1005A000F8F5F0EE8420D21CFEADF075F008EF2FC8
:1005B000FFED33FD4007985006D5F0F222C398FDB9
:0505C0000FD5F0EA2256
:1005C500C2D5EC30E709B2D5E4C39DFDE49CFCEE51
:1005D50030E715B2D5E4C39FFFE49EFE120570C354
:1005E500E49DFDE49CFC800312057030D507C3E44F
:0605F5009FFFE49EFE22C0
:1005FB00BB010A89828A83E0F5F0A3E022500687CB
:10060B00F009E71922BBFE07E3F5F009E31922898C
:0B061B00828A83E493F5F074019322BF
:10062600BB0110E58229F582E5833AF583E0F5F012
:10063600A3E0225009E92582F886F008E622BBFEEF
:100646000AE92582F8E2F5F008E222E5832AF58335
:08065600E993F5F0A3E99322FA
:10065E00BB010789828A83020771500B09C5F027F7
:10066E00F7C5F01937F722BBFE0D09F8E325F0F3B5
:10067E00C5F019E338F322F889828A837401932531
:08068E00F0C5F0F8E4933822F6
:10069600BB010DC58229C582C5833AC58302077190
:1006A6005011C58229F808E5F026F618F5F0E5821E
:1006B60036F622BBFE11C58229F808E225F0F5F0D0
:1006C600F218E23582F222F8E58229F582E5832ADC
:0D06D600F58374019325F0F5F0E4933822CC
:1006E300F8BB0111E58229F582E5833AF583E8F049
:1006F300E5F0A3F0225009E92582C8F608A6F02206
:0D070300BBFE09E92582C8F2E5F008F222EC
:0E071000C3E49FFFE49EFEE49DFDE49CFC22FA
:0C071E00ECF0A3EDF0A3EEF0A3EFF0224E
:0C072A00ECF208EDF208EEF208EFF2220B
:10073600D083D082E493F208740193F20874029392
:09074600F208740393F2740473C9
:100787007888EBF208EAF208E9F2E47890F208F2E6
:10079700788E08E2FF24FFF218E2FE34FFF2EF4EF4
:1007A700603E788BE2FB08E2FA08E2F9120506FFE1
:1007B7007888E2FB08E2FA08E2F9789008E2FD247B
:1007C70001F218E2FC3400F28D828C83EF12074F9E
:1007D700EF60BD788DE22401F218E23400F280B0B8
:0B07E7007888E2FB08E2FA08E2F92241
:10219F00E4FFFE120506600C0FEF70010E09E970E7
:0521AF00F20A80EF229E
:101989007892EBF208EAF208E9F208E2FB08E2FAD7
:1019990008E2F91205067003021A307892E2FB0890
:1019A900E2FA08E2F91205067003021A3B08E2F9A5
:1019B90008E2FA08E208C9F208EAF208E9F27892BC
:1019C900E2F908E2FA08E2789BC9F208EAF208E9C2
:1019D900F27898E2FB08E2FA08E2F9120506FF60DC
:1019E9002708E2FB08E2FA08E2F91205066F701807
:1019F900789AE22401F218E23400F2789DE2240197
:101A0900F218E23400F280C97898E2FB08E2FA0899
:101A1900E2F91205067002800E7894E22401F218A8
:101A2900E23400F20219A47892E2FB08E2FA08E231
:091A3900F9227B007A00790022F9
:101C2100021A42E493A3F8E493A34003F68001F27D
:101C310008DFF48029E493A3F85407240CC8C333C4
:101C4100C4540F4420C8834004F456800146F6DF93
:101C5100E4800B010204081020408090001EE47E05
:101C6100019360BCA3FF543F30E509541FFEE49388
:101C7100A360010ECF54C025E060A840B8E493A34F
:101C8100FAE493A3F8E493A3C8C582C8CAC583CA7A
:101C9100F0A3C8C582C8CAC583CADFE9DEE780BE32
:0100210000DE
:10074F00F8BB010DE58229F582E5833AF583E8F0E0
:10075F00225006E92582C8F622BBFE05E92582C88C
:02076F00F22274
:10077100C5F0F8A3E028F0C5F0F8E5821582700213
:060781001583E038F022B0
:00000001FF
